:02000004080AE8
:1000000000000A08AC5E0A080000060006000501B0
:080010000402E70500000000F6
:04001800C8530A08B7
:1000200009480A4908B5884205D0094A824202D0E7
:10003000121A03F03BF80748074A0021121A03F08E
:1000400040F8064808BD00BF00000020945D0A0883
:10005000F0000020F0000020180800201808002000
:1000600070B501F04FFE074B074C1E46E41AA4087A
:100070000025A54204D056F8253098470135F8E709
:1000800070BD00BF4C5D0A08845D0A0800F064B8CA
:1000900008B500F0CDF8BDE8084001F0F5BD00F06E
:1000A000A9BD00F0AFBD0078B0FA80F040097047FC
:1000B00001230370704700002DE9F0478AB0144611
:1000C0000D46064601F0ECFC1E4901F042FA01F033
:1000D000E7FC8246304602F069F9804628468946A8
:1000E00002F064F9064620460F4602F05FF9044626
:1000F0000D46154A0121CDE90445CDE90267CDE958
:1001000000895046DFF84CA001F04CFA0F4800F08F
:1001100035F95246CDE90089102106A800F08AFD84
:100120005246CDE90067102106A800F083FDCDE915
:100130000045074A102106A800F07CFD0AB0BDE882
:10014000F08700BFDC530A08EF530A084001002083
:100150000E540A0809540A0810B501F0A1FC174C06
:100160004FF4165101F082FC01F012FE01F0D6F8B6
:10017000204600F097F8204600F000F9204600F0F5
:1001800064F9204600F0A3F800222046022100F086
:10019000ABF820460A4C0B4900F012F90A492046F8
:1001A00000F056FA0949204600F010FB782100F0D3
:1001B00045FABDE81040064801F024BB400100208C
:1001C000F400002013540A081C540A08B9000A0855
:1001D0000000E04070B501F052FB01F057FB104EFB
:1001E000104C306001F05AFB0F4D2860204600F0A3
:1001F0002CF9204600F06BF805222046042100F07F
:1002000073F83168204600F0E8F82046074900F00E
:10021000D7F829682046BDE8704000F0DEB800BF7E
:100220003C010020400100203801002082570A08CC
:1002300008B5034800F07CFABDE80840FFF7CABFE4
:10024000F400002010B5064C00F036FB204600F00C
:10025000CFF92046BDE81040024A034901F0D6BD5F
:10026000F4000020F000002079040A080368C9B2F5
:100270009B68184710B50C4601F08AFD3C2101F03F
:1002800057F801F085FD8021FFF7F0FF01F080FDB8
:10029000036821469B68984701F07AFDBDE810404D
:1002A00001F04DB810B50446AE21FFF7E3FF05207D
:1002B00000F0E0FCAF212046FFF7DCFF052000F056
:1002C000D9FC2046BDE81040A621FFF7D3BF10B5EA
:1002D0000446012303702021FFF7CCFF2046BDE830
:1002E00010400221FFF7C6BF38B514460546503905
:1002F000E400C9B2FFF7BEFF04F008012846FFF78B
:10030000B9FFC4F303112846BDE838401031FFF7A8
:10031000B1BF10B50C4601F03BFD3C2101F008F8DF
:1003200001F036FD4021FFF7A1FF01F031FD036828
:1003300021469B68984701F02BFDBDE8104000F076
:10034000FEBF000070B50646A1F120035F2B0A4BEB
:1003500088BF202103EBC1056FF4807203EBC1035A
:100360001544A3F1F90415F8011F3046FFF7D1FF3A
:10037000A542F8D170BD00BF2A540A0870B5AE215D
:100380000546FFF777FF00260022F1B22846FFF767
:10039000ABFF102420212846013CFFF7D3FF14F0C7
:1003A000FF04F7D10136082EEED12846AF21FFF722
:1003B00061FF224621462846BDE87040FFF794BF02
:1003C00070B505460E460024E3B2F15C013419B164
:1003D0002846FFF7B7FFF7E770BDF0B5002385B0FB
:1003E0000E1E074601930293ADF80C3007DA2D215B
:1003F000FFF7A8FF7642012300240A2105E0FBD184
:100400003021FFF79FFF01201DE004AA651C144462
:1004100096FBF1F201FB1266EDB204F80C6C2C466F
:100420001646002AF1D12B44DCB25DB104AB2B445B
:1004300013F80D1C38463031C9B2013DFFF782FF79
:10044000EDB2F2E7204605B0F0BDA621FFF712BFDE
:1004500000F032BA30B40368126858689C6810F033
:10046000010F4FEA600018BF25581B68204418BFD1
:10047000EB58096830BC184710B50446054B40F8E6
:100480002C3B01F0DDF804F10C0001F0D9F8204616
:1004900010BD00BF34570A0810B50446FFF7ECFF43
:1004A0002046442101F0B7FC204610BD024630B57D
:1004B000184D92F82E30286889B010F8011C079367
:1004C000536B154C069392F82B30241A059392F82F
:1004D0002A30049392F82930039392F8283002933B
:1004E00092F82730019392F826300C4A00930C4B77
:1004F0005B2918BF13460B4A214600F09BFB844240
:1005000006D32B68084A1844136828600133136027
:1005100009B030BD4C020020460200203C570A08BA
:10052000B6580A083E570A08440100202DE9F3474F
:10053000436A04468BB3104602F006FE01AA18492E
:10054000054603F090FC28B302F0A2FC01AA06467F
:100550000F460020124903F086FCD8B102F098FC47
:1005600001AA8046894600200D4903F07CFC88B131
:1005700002F08EFC02F050FA49468246404602F0F4
:100580004BFA80463946304602F046FA636A5246D4
:1005900041469847284600F035FB02B0BDE8F08799
:1005A0003C570A08022A38B5044605D0032A0FD062
:1005B000012A11D10B6809E00C200D68FFF76FFDCF
:1005C000034618B195E8070083E80700236003E0BD
:1005D0000C21006801F01FFC002038BD10B58368B5
:1005E000044613B1032201469847204610BD00007F
:1005F00038B50F4B0446036042F210730025456086
:1006000083600C490C3001F062F84FF4FA53A36296
:10061000E56125626562084904F12C0001F057F894
:100620004FF49B73E3634FF4CD732364204638BDCE
:1006300034570A081C540A0874570A08042998BF3A
:100640000521022343604FF47A7359438160704758
:1006500010B504460C3001F04DF8204610BD0000E6
:10066000F8B5104C104F0025104E114920463D6042
:1006700002F062FD04F10B0333605B23A372294691
:100680000C4800F0E3F933685D221A707D225A703D
:100690009A70DD701A1D3B68326003B923700148FF
:1006A000F8BD00BF49010020440100204C02002099
:1006B00079570A08AD040A0830B5054685B001F03F
:1006C000EFF9184900F045FF2846FFF7C9FF044637
:1006D00001F0E6F92346144A012100F063FF237874
:1006E000F3B100F007FAD8B1104B22461B78E96845
:1006F0008DF8003002A83C2300F050FC039C7CB134
:100700006368013B63605BB9236820469B68984738
:10071000A368013BA3601BB923682046DB689847A8
:1007200005B030BD84570A0894570A0848010020D4
:1007300010B5036A0446022B0BD0032B23D0002BE9
:1007400034D100F0D7F988B30223236200F09CF87B
:1007500017E000F099F8E369C01AA36A984225D31C
:100760006368012B03D12046FFF7A6FF00E013B911
:100770000423236210BD0323236200F085F8A368DD
:10078000C01AE06110BD00F0B5F970B100F07CF85E
:10079000E369C01AA368984208D300F075F8E061D5
:1007A0002046BDE81040FFF787BF206210BD38B576
:1007B000002383608B6804460D462BB102229847C4
:1007C000EB68E360AB68A360204638BD30B58BB002
:1007D000C5684162044606A800F094F9069B1C4ACD
:1007E00000934FF480712B461A4800F023FA06A8B4
:1007F00000F026FF00250C200495FFF750FC18B1EF
:10080000154B846080E82800144B02900593144B2C
:1008100002A906A80493FFF7CAFF089B7BB110202A
:10082000FFF73DFC054650B106A9FFF7C0FF0023C6
:10083000019300932A460B49064800F073F906A875
:10084000FFF7CCFE02A8FFF7C9FE20460BB030BD73
:10085000A0570A08490100202D050A0855040A0876
:10086000A5050A08330D0A08024B01221A7000F090
:1008700023B800BF4801002008B5024B1B685B6825
:10088000019308BD9C01060808B5024B1B685B6913
:10089000019308BD9C01060808B5024B1B68DB6983
:1008A000019308BD9C01060808B5024B1B689B6DAF
:1008B000019308BD9C01060808B5024B1B681B6824
:1008C000019308BDB001060808B5024B1B68DB6C3C
:1008D000019308BDAC01060808B5024B1B689B6D6F
:1008E000019308BDAC01060808B5024B1B68DB6D1F
:1008F000019308BDAC01060808B5024B1B681B6ECE
:10090000019308BDAC01060808B5024B1B685B6E7D
:10091000019308BDAC01060808B5024B1B689B6E2D
:10092000019308BDAC01060808B5024B1B68DB6EDD
:10093000019308BDAC01060808B5024B1B681B6F8C
:10094000019308BDAC01060808B5034B1B68D3F83A
:100950008030019308BD0000AC01060808B5024BC9
:100960001B689B69019308BDC401060808B5024BCA
:100970001B685B6A019308BDC401060808B5024BF9
:100980001B689B6A019308BDC401060808B5024BA9
:100990001B68DB6A019308BDC401060808B5024B59
:1009A0001B681B6B019308BDC401060808B5024B08
:1009B0001B685B6B019308BDC401060808B5024BB8
:1009C0001B681B6C019308BDC401060808B5024BE7
:1009D0001B681B68019308BDD801060808B5024BC7
:1009E0001B685B68019308BDD801060808B5024B77
:1009F0001B681B69019308BDD801060808B5024BA6
:100A00001B685B69019308BDD801060808B5024B55
:100A10001B689B69019308BDD801060808B5024B05
:100A20001B68DB69019308BDD801060808B5024BB5
:100A30001B681B6A019308BDD801060808B5024B64
:100A40001B689B6C019308BDC001060808B5024BEA
:100A50001B68DB6D019308BDC001060808B5024B99
:100A60001B681B68019308BDA401060808B5024B6A
:100A70001B685B68019308BDA401060808B5024B1A
:100A80001B685B69019308BDA401060808B5024B09
:100A90001B68DB6C019308BDA401060808B5024B76
:100AA0001B685B6D019308BDA401060808B5024BE5
:100AB0001B689B6D019308BDA401060808B5034B94
:100AC0001B68D3F89030019308BD0000A40106080C
:100AD00008B5034B1B68D3F89C30019308BD000098
:100AE000A401060808B5024B1B689B68019308BD6A
:100AF000CC01060808B5024B1B685B69019308BD71
:100B0000CC01060808B5024B1B68DB69019308BDE0
:100B1000CC01060808B5024B1B681B6A019308BD8F
:100B2000CC01060808B5024B1B685B6A019308BD3F
:100B3000CC01060808B5024B1B681B6B019308BD6E
:100B4000CC01060808B5024B1B68DB6B019308BD9E
:100B5000CC01060808B5024B1B685B68019308BD11
:100B6000C801060808B5024B1B689B68019308BDC5
:100B7000C801060808B5024B1B68DB68019308BD75
:100B8000C801060808B5024B1B681B69019308BD24
:100B9000C801060808B5024B1B685B69019308BDD4
:100BA000C801060808B5024B1B689B69019308BD84
:100BB000C801060808B5024B1B68DB69019308BD34
:100BC000C801060808B5024B1B681B6A019308BDE3
:100BD000C801060808B5024B1B681B6B019308BDD2
:100BE000C801060808B5024B1B685B6B019308BD82
:100BF000C801060808B5024B1B681B68019308BDB5
:100C0000A001060808B5024B1B685B68019308BD8C
:100C1000A001060808B5024B1B689B68019308BD3C
:100C2000A001060808B5024B1B689B69019308BD2B
:100C3000A001060808B5024B1B68DB69019308BDDB
:100C4000A001060808B5024B1B685B6A019308BD4A
:100C5000A001060808B5024B1B68DB6A019308BDBA
:100C6000A001060808B5024B1B681B6B019308BD69
:100C7000A00106080021FFF701BF10B583680446F4
:100C80000BB901F0E4F8C3689847A3681BB10322CD
:100C90002146204698472046BDE81040102101F02B
:100CA000BAB870470020704710B50446102101F013
:100CB000B2F8204610BD08B508B1FFF7F5FF08BD32
:100CC000002202604FF69C72828010B5B1F9044098
:100CD00084808A8002680C6804600A6010BD10B5C8
:100CE00004460068FFF78EFF204610BD38B5C46883
:100CF000F4B12378022B03D104F10C00FFF7EFFFCE
:100D0000656835B12846FFF769FC1021284601F0D7
:100D100082F8A56835B12846FFF760FC1021284607
:100D200001F079F82046BDE83840142101F073B88D
:100D300038BD07B58DE8060082680AB901F087F86A
:100D4000C36801AA6946984703B05DF804FB38B54B
:100D5000046805467CB16368013B63605BB9236846
:100D600020469B689847A368013BA3601BB9236892
:100D70002046DB689847284638BD13B5044691E8FD
:100D8000050000234B600B602060626001A80193A6
:100D90000093FFF7DCFF204602B010BD0B68036034
:100DA00013B15A6801325A607047F7B50C460646CF
:100DB0000F4654F8043B02AD45F8083D214601A812
:100DC000FFF7ECFF29463046FFF7D7FF01A8FFF7F2
:100DD000BEFF2046FFF7BBFF3846082101F01BF895
:100DE000304603B0F0BD13B50B46044603C88DE88A
:100DF000030093E8030084E803009DE8030083E810
:100E0000030002B010BD000038B5002304460360A3
:100E100010200D46FFF743F928B10123436083609A
:100E2000024BC56003602060204638BDBC570A08ED
:100E3000826810B50AB901F00AF8C368BDE810402D
:100E4000184708B5006800F11001FFF7F1FF08BD71
:100E5000826810B50AB900F0FAFFC368BDE8104017
:100E6000184708B5006800F11001FFF7F1FF08BD51
:100E700038B5002383608B6804460D462BB10222EF
:100E80009847EB68E360AB68A360204638BD00007C
:100E9000F0B589B004686846FFF712FF4FF0020210
:100EA00000238DF80830D4E84F3F002B03D1C4E86D
:100EB000412F0029F7D102D08DF8083063E014F1FA
:100EC0000C0503D069462846FFF7FAFEBFF35F8F93
:100ED00001236370BFF35F8F04F10803002053E820
:100EE000006F43E80002002AF9D1BFF35F8F002EA4
:100EF00049D0FFF7CBFD20B129463046FFF798FFD8
:100F00003AE0314602A8FFF7B3FFE068B4F91050A9
:100F100008B102F019F906901020ADF81C50FFF747
:100F2000BEF80546E8B1002787601820FFF7B7F83C
:100F3000044688B10146876002A8FFF754FF049B6E
:100F4000A268A360059B0492E26806A9E36004F12D
:100F500010000592FFF7B4FE0D4B2C60EB600D4BBB
:100F6000AB6006A8FFF7BBFE02A8FFF737FB002225
:100F700029460948FFF792FD3046FFF72FFB102165
:100F8000304600F048FF6846FFF7A9FE09B0F0BD03
:100F9000430E0A08B9100A087B0C0A082DE9F04F25
:100FA0008BB006460F46904699469DF850A0FFF735
:100FB000A1FD07AD834630BB4FF62E73059005A902
:100FC0002846ADF81830FFF77BFE1420FFF767F8CE
:100FD000044658B10223037001234370C0F804B0E3
:100FE000C0F808B029460C30FFF76AFE30462146AB
:100FF00040F8044BFFF708FF2846FFF770FE05A8EE
:10100000FFF76DFE52E000240C2314206C60AC60EE
:101010000793FFF744F8014618B104704470446028
:10102000846004A80391FFF7EFFE224B0820089389
:10103000FFF735F8044628B1039B04A940F8043BA8
:10104000FFF7ACFE00955FFA8AF34A464146384600
:101050000994FFF75FFD20B9039B5B7803F0FF0263
:1010600083B1039B04A906A80593FFF797FE05A982
:101070003046FFF782FE06A8FFF769FE04A8FFF7D7
:1010800066FE13E04FF69C7305A903A80592ADF820
:101090001830FFF7FDFE05A8FFF721FE05A8099906
:1010A000FFF783FE06A8FFF752FEDAE730460BB0E3
:1010B000BDE8F08F29120A08022AF8B5044606D0C6
:1010C000032A17D0012A22D10B6803601FE01820E1
:1010D0000E68FEF7E4FF054650B13146FFF7C8FE43
:1010E0003069B6F9147008B102F02EF82861AF82A9
:1010F00025600CE0046854B104F11000FFF7EFFD27
:101100002046FFF76BFA1821204600F084FE0020ED
:10111000F8BD38B5002383608B6804460D462BB1BB
:1011200002229847EB68E360AB68A360204638BDB5
:10113000022A70B5044606D0032A11D0012A18D11C
:101140000B68036015E014200E68FEF7A8FF054643
:1011500020B13146FFF7DDFF337C2B74256008E0BA
:10116000046834B12046FFF739FA1421204600F014
:1011700052FE002070BD0000F0B50C46BFF35F8F3B
:1011800087B0002350E8006F40E80032002AF9D110
:10119000BFF35F8F002E3FD01846FFF777FC07465E
:1011A00020B121463046FFF753FE2EE0314601A81C
:1011B000FFF7AFFF237810208DF81430FEF76FFF94
:1011C0000546D0B187601420FEF769FF044678B168
:1011D0008760014601A8FFF706FE039BA268A36093
:1011E000049B0392E268E3609DF814300492237438
:1011F0000A4B2C60EB600A4BAB6001A8FFF7EEF9DD
:10120000002229460748FFF749FC3046FFF7E6F978
:101210001021304600F0FFFD07B0F0BD630E0A0854
:1012200031110A087B0C0A0830B5044685B00D461A
:1012300068461146FFF7B9FD7CB124B228460DB1CE
:1012400001F082FF029002A96846ADF80C40FFF75A
:101250001FFE02A8FFF743FD1DE04FF001020098BA
:101260008DF80840D0E84F3FA34203D1C0E8412F9A
:101270000029F7D102D08DF808300CE010F10C01F4
:101280004FF0010318BF0373BFF35F8F043000F802
:10129000033CFFF771FF01A8FFF759FD05B030BD12
:1012A0007047F8B5064615460C468F18BC4206D066
:1012B000336814F8011B9B6830469847F6E72846C8
:1012C000F8BD0022007CFFF717BB0021007CFFF770
:1012D0001BBB0021007CFFF71FBB0021007CFFF738
:1012E00023BB0021007CFFF727BB10B50446142167
:1012F00000F091FD204610BD10B504460023636048
:101300004FF47A73A360044B21740846236011469E
:10131000FFF71AFB204610BDD8570A0800231A46CB
:101320001946007CFFF7D0BA0022007CFFF7D4BA40
:10133000C9B2FFF7F9BF0022007CFFF7D5BA01213F
:10134000FFF7F9BF704710B50446182100F063FDA0
:10135000204610BDF8B50F4600F10806051D002413
:1013600016F8011D0A22384600F0FDF8AE4204448A
:1013700007D0002CF4D02E21384600F0DBF80444CE
:10138000EEE72046F8BD000010B50446044B1122DC
:1013900040F8043B002101F094FE204610BD00BF40
:1013A00000580A080346074A10B543F8042B01F118
:1013B000100251F8044B914243F8044BF9D10A78DA
:1013C0001A7010BD00580A08024A416002600422E7
:1013D0000275704700580A0810B59DF8084044EAA5
:1013E000032343EA024242EA016104234160037598
:1013F00010BD000037B5044D05609DF818500095EC
:10140000FFF7EAFF03B030BD00580A08014A024B5B
:101410001A60704782580A085002002000231A46BA
:101420004068FFF797BB002202214068FFF7A2BB8C
:10143000002211464068FFF795BB00221146406824
:10144000FFF7A0BB00231A4619464068FFF7A2BB6E
:1014500000231A4619464068FFF7A4BB002281F01A
:1014600001014068FFF7A6BB00224068FFF7B2BB4E
:10147000002211464068FFF7B5BB002211464068C4
:10148000FFF7A0BB70B516468EB0044608A8FFF75C
:101490007BFF1122002103A801F013FE304601F06A
:1014A0006EFE00250A4B009581B25B6803AA3046A8
:1014B000FFF7C4FA20B129462046FFF785FF03E075
:1014C00003A92046FFF76EFF20460EB070BD00BF97
:1014D00008070020024B034A1A6000225A60704736
:1014E00054020020F8580A08F8B506460D468F1831
:1014F0000024BD420CD0336815F8011B9B683046B0
:101500009847002801DB0444F3E7002C08BF044699
:101510002046F8BD70B505460C46084649B101F0B5
:101520002EFE2B68024621462846BDE87040DB6847
:10153000184770BD03689B68184738B50D210546EC
:10154000FFF7F8FF0A2104462846FFF7F3FF20447F
:1015500038BD38B50546FFF7DDFF04462846FFF7DE
:10156000ECFF204438BD012A98BF0A2230B50B4653
:101570008BB000218DF824100DF12304B3FBF2F59C
:1015800005FB1233DBB2092B94BF30333733DBB2A8
:10159000214604F801392B46002DEFD1FFF7BAFFA1
:1015A0000BB030BD0CB42DE9F04387B000AF07F1AC
:1015B000380454F8049B05460E4623464A46142137
:1015C000381D3C60FFF73EFB132805D8391D28461F
:1015D000FFF7A0FF044613E000F1080323F0070320
:1015E000E846ADEB030D411C23464A4668463C6085
:1015F000FFF728FB69462846FFF78CFF0446C546DF
:101600001EB12846FFF799FF044420461C37BD460B
:10161000BDE8F04302B0704710B50446FEF7DEFFA8
:10162000204610BD034800238360034A034900F0AD
:10163000EDBB00BF5C020020F000002019160A0874
:1016400010B504460068FFF7DDFA204610BD10B55E
:101650000446006808B1FFF7D5FA00232360A360B1
:10166000636010BD38B504460D4600680131FFF7D0
:10167000D1FA10B184E82100012038BD10B503680B
:10168000044613B143688B4207D22046FFF7EAFFB6
:1016900020B1A3680BB922681370012010BD70B58A
:1016A0000E46114604461546FFF7E8FF18B92046D6
:1016B000FFF7CDFF09E02A463146A560206801F01A
:1016C000F5FC2268A3680021D154204670BD38B5CE
:1016D0000023044603604360836003730D4639B101
:1016E000084601F04CFD294602462046FFF7D7FF89
:1016F000204638BD38B505460C4641B1084601F0D4
:101700003EFD214602462846FFF7C9FF01E0FFF7EC
:101710009EFF284638BD10B50446006818B1FFF793
:1017200071FA0023236010BD10B50446FFF7F3FFE4
:10173000204610BD4FF6FF7310B5084C0020206006
:10174000A080A07120816381FFF790F92046BDE859
:101750001040034A034900F059BB00BF6C0200204F
:10176000F000002029170A08F0B5144B144F1E682A
:10177000144B064418683B6806449E428BB01BD04D
:101780000AA840F8286D01F095FB0446436901ADB5
:1017900003F26C7343610FCC0FC50FCC0FC5D4F8A7
:1017A00000E0094CC5F800E001AD0FCD0FC40FCD2E
:1017B0000FC43E60C4F800E00BB0F0BDA8020020EA
:1017C000A4020020A00200207802002008B500201A
:1017D000FFF7B0F928B1FFF78DF980F00100C0B232
:1017E00008BD012008BD000008B5FFF7BDFF044B90
:1017F000986818B10C2802DD0C3808BD0C2008BD13
:101800007802002010B50949044601F0F3FA60B9E6
:101810000749204601F00CFB38B90649204601F083
:101820004BF901F00FFB044B186010BD000040C1E4
:101830000000604100006145A802002010B50020B2
:10184000FFF732F8044668B9FFF708F901280BD111
:101850002046FFF72BF938B9FFF7B8FF30B9FFF78B
:1018600041F9F9E7012010BD002010BDFFF7AEFFE0
:101870000020FFF719F8003018BF012010BD08B58F
:10188000FFF7DCFFBDE80840FFF706B808B5FFF733
:10189000F6FFBDE80840FFF7A7BF000008B5FFF757
:1018A000EEFFFFF761FF014B586808BD780200208A
:1018B000024B1A68024B1A60704700BF00000020FC
:1018C0009C02002070474174704708B5007CFFF708
:1018D00075F820EAE07008BD08B5007CFFF74EF807
:1018E00020EAE07008BD08B5007CFFF757F830EA41
:1018F000200028BF4FF0FF3008BD08B5007CFFF77F
:1019000045F830EA200028BF4FF0FF3008BD007CCA
:10191000FFF74CB810B50446142100F07CFA2046BD
:1019200010BD70B5457C04460E4625B9007CFFF716
:1019300045F8002805DD3146207CBDE87040FFF702
:1019400015B8284670BD000010B50446084611467B
:10195000002262604FF47A72A260054A207422600D
:10196000012262741A46FEF7F9FF204610BD00BF3F
:1019700054590A0838B50C4D296811F0010411D1E9
:101980002846FEF790FB68B1084A2146084B0948F3
:10199000FFF7DAFF2846FEF78BFB074A07490548A1
:1019A00000F034FA034838BD440300204803002007
:1019B000C0020020AC020020F0000020C5180A0878
:1019C00041747047704708B50021007CFFF71EF88E
:1019D00030EA200028BF4FF0FF3008BD08B50121D4
:1019E000007CFFF713F830EA200028BF4FF0FF30EB
:1019F00008BD08B5007CFFF701F820EAE07008BDDB
:101A000008B5007CFEF7F2FF20EAE07008BD007C1C
:101A1000FFF70CB810B50446142100F0FCF920467D
:101A200010BD38B50446007C0D46FEF7E7FF0028E0
:101A300001DC607C28B12946207CFEF7EFFF20EA1C
:101A4000E07038BD10B50446002363604FF47A732C
:101A5000A360054B0846236001232174637411467B
:101A6000FEF7B4FF204610BD84590A080022007C0E
:101A7000FEF7B4BF10B504461422002101F021FB8B
:101A8000054B20466360054BE36040F20113238160
:101A90008123238210BD00BF51040020D003002009
:101AA00030B50E4D87B001A8FFF7E4FF296811F0AB
:101AB000010410D12846FEF7F6FA60B101AA2146CA
:101AC0000748FFF7BFFF2846FEF7F2FA054A064926
:101AD000034800F09BF9024807B030BDCC0300205A
:101AE00054050020F0000020C5190A0810B504466E
:101AF0001422002101F0E5FA054B20466360054BF6
:101B0000E36040F2011323818123238210BD00BFD3
:101B1000040600206C05002010B50E4C86B001A80C
:101B2000FFF7E4FF2368DB0710D42046FEF7BBFA7B
:101B300060B101AA01210848FFF784FF2046FEF7A3
:101B4000B7FA064A0649044800F060F9024806B0B0
:101B500010BD00BF68050020F0050020F000002047
:101B6000C5190A08002211464068FFF70BB8F0B506
:101B7000164689B011220F460446002103A801F041
:101B8000A0FA304601F0FBFA0025009581B27B688F
:101B900003AA3046FEF752FF20B129462046FFF740
:101BA00013FC03E003A92046FFF7FCFB204609B025
:101BB000F0BD002211464068FFF704B8002211462C
:101BC0004068FFF70FB800224068FFF703B8002213
:101BD00081F001014068FEF7EDBF00231A46194667
:101BE0004068FEF7DFBF00231A4619464068FEF73B
:101BF000D1BF002211464068FEF7B4BF0022022187
:101C00004068FEF7B7BF00231A464068FEF7A2BF40
:101C1000024B04225A60024A1A60704708070020EB
:101C2000B4590A0808B5144B33B1FFF739FF0368FC
:101C30001B699847002816DC104B33B1FFF79AFE5A
:101C400003681B699847002810DC0D4B0BB1AFF3FC
:101C500000800C4B7BB1FFF75FFF03681B6998475F
:101C6000002806DC08BDAFF30080E5E7AFF3008095
:101C7000EBE7AFF3008008BD0000000000000000AB
:101C8000000000000000000008B5FFF7CBFFFEF7E2
:101C9000FBFD014B186008BD180700200248034AED
:101CA0000349121A01F002BA004002400440024007
:101CB000905D0A0807B5002300931A466FF077017C
:101CC000FEF706FF03B05DF804FB000007B543888C
:101CD0000A2B08D0502B09D1094B1B683BB103B02C
:101CE0005DF804EB1847FFF7E5FF06E000230093DB
:101CF0001A466FF07701FEF7EBFE03B05DF804FBC8
:101D00001007002038B5104C104D2368AB42104B23
:101D10000CBF012200221A7002D0FFF7BFFF25601E
:101D2000FEF7AAFD044601F0D5F90A4B13B120468F
:101D3000AFF3008000210748FEF704FFBDE83840FC
:101D400000210548FEF7BABE004002401E1C279A3B
:101D50001407002000000000CD1C0A0870B50446DE
:101D600014252A46094E002101F0ABF925802025D3
:101D70003146A5602561284600F067F8314660606D
:101D8000284600F062F8E060204670BDE0590A087D
:101D900030B50E4D87B0296811F0010413D12846E3
:101DA000FEF781F978B101A8FFF7D8FF01AA214613
:101DB0000748FFF7A1FA2846FEF77AF9054A0649CF
:101DC000034800F023F8024807B030BD1C0700208C
:101DD00020070020F0000020A1120A0813B5084CCB
:101DE00000231A46194600932046FFF703FB2046BE
:101DF000044A054902B0BDE8104000F007B800BF32
:101E000034070020F000002045130A080B46014665
:101E1000184601F041B8FEF744B90000024B1868BB
:101E2000BFF35F8F704700BF4C07002010B500283C
:101E300014BF044601242046FEF7DCFE20B9FFF75C
:101E4000EDFF08B18047F6E710BDFFF7EFBF08B51B
:101E5000FEF700FF244B1A68D0075CBF01221A600E
:101E6000224B1A68D1075CBF01221A60204B1A6806
:101E7000D2075CBF01221A601E4B1A68D0075CBFF4
:101E800001221A601C4B1A68D1075CBF01221A603C
:101E90001A4B1A68D2075CBF01221A60184B1A68E5
:101EA000D0075CBF01221A60164B1A68D1075CBFCD
:101EB00001221A60144B1A68D2075CBF01221A6013
:101EC000124B1A68D0075CBF01221A60104B1A68C7
:101ED000D1075CBF01221A600E4B1A68D2075CBFA3
:101EE00001221A60704700BF7C070020780700209D
:101EF00074070020700700206C070020680700208E
:101F000064070020600700205C07002058070020BD
:101F10005407002050070020184B1A68D1075CBFF7
:101F200001221A60164B1A68D2075CBF01221A60A0
:101F3000144B1A68D0075CBF01221A60124B1A6852
:101F4000D1075CBF01221A60104B1A68D2075CBF30
:101F500001221A600E4B1A68D0075CBF01221A607A
:101F60000C4B1A68D1075CBF01221A600A4B1A6831
:101F7000D2075CBF01221A60704700BF9C07002097
:101F80009807002094070020900700208C0700206D
:101F9000880700208407002080070020184B1A685B
:101FA000D1075CBF01221A60164B1A68D2075CBFCA
:101FB00001221A60144B1A68D0075CBF01221A6014
:101FC000124B1A68D1075CBF01221A60104B1A68C5
:101FD000D2075CBF01221A600E4B1A68D0075CBFA3
:101FE00001221A600C4B1A68D1075CBF01221A60EB
:101FF0000A4B1A68D2075CBF01221A60704700BF03
:10200000BC070020B8070020B4070020B00700205C
:10201000AC070020A8070020A4070020A00700208C
:10202000244B1A68D0075CBF01221A60224B1A6841
:10203000D1075CBF01221A60204B1A68D2075CBF2F
:1020400001221A601E4B1A68D0075CBF01221A6079
:102050001C4B1A68D1075CBF01221A601A4B1A6820
:10206000D2075CBF01221A60184B1A68D0075CBF08
:1020700001221A60164B1A68D1075CBF01221A6050
:10208000144B1A68D2075CBF01221A60124B1A68FF
:10209000D0075CBF01221A60104B1A68D1075CBFE1
:1020A00001221A600E4B1A68D2075CBF01221A6027
:1020B000704700BFEC070020E8070020E40700207D
:1020C000E0070020DC070020D8070020D40700200C
:1020D000D0070020CC070020C8070020C40700203C
:1020E000C007002081F0004102E000BF83F0004300
:1020F00030B54FEA41044FEA430594EA050F08BFA3
:1021000090EA020F1FBF54EA000C55EA020C7FEA66
:10211000645C7FEA655C00F0E2804FEA5454D4EBE3
:102120005555B8BF6D420CDD2C4480EA020281EAAD
:10213000030382EA000083EA010180EA020281EAE5
:102140000303362D88BF30BD11F0004F4FEA013137
:102150004FF4801C4CEA113102D0404261EB410146
:1021600013F0004F4FEA03334CEA133302D05242CC
:1021700063EB430394EA050F00F0A780A4F1010488
:10218000D5F1200E0DDB02FA0EFC22FA05F28018C2
:1021900041F1000103FA0EF2801843FA05F35941A8
:1021A0000EE0A5F120050EF1200E012A03FA0EFC27
:1021B00028BF4CF0020C43FA05F3C01851EBE37151
:1021C00001F0004507D54FF0000EDCF1000C7EEB6E
:1021D00000006EEB0101B1F5801F1BD3B1F5001FAC
:1021E0000CD349085FEA30004FEA3C0C04F10104CB
:1021F0004FEA445212F5800F80F09A80BCF1004FF4
:1022000008BF5FEA500C50F1000041EB045141EA75
:10221000050130BD5FEA4C0C404141EB010111F476
:10222000801FA4F10104E9D191F0000F04BF014621
:102230000020B1FA81F308BF2033A3F10B03B3F1FF
:1022400020020CDA0C3208DD02F1140CC2F10C028F
:1022500001FA0CF021FA02F10CE002F11402D8BFED
:10226000C2F1200C01FA02F120FA0CFCDCBF41EAB9
:102270000C019040E41AA2BF01EB0451294330BD88
:102280006FEA04041F3C1CDA0C340EDC04F1140465
:10229000C4F1200220FA04F001FA02F340EA03003C
:1022A00021FA04F345EA030130BDC4F10C04C4F182
:1022B000200220FA02F001FA04F340EA0300294662
:1022C00030BD21FA04F0294630BD94F0000F83F4AC
:1022D000801306BF81F480110134013D4EE77FEA8F
:1022E000645C18BF7FEA655C29D094EA050F08BFDB
:1022F00090EA020F05D054EA000C04BF19461046BC
:1023000030BD91EA030F1EBF0021002030BD5FEAFF
:10231000545C05D14000494128BF41F0004130BD27
:1023200014F580043CBF01F5801130BD01F000457B
:1023300045F0FE4141F470014FF0000030BD7FEAEE
:10234000645C1ABF194610467FEA655C1CBF0B46E9
:10235000024650EA013406BF52EA033591EA030F00
:1023600041F4002130BD00BF90F0000F04BF0021F8
:10237000704730B54FF4806404F132044FF000052B
:102380004FF0000150E700BF90F0000F04BF0021A4
:10239000704730B54FF4806404F1320410F000450A
:1023A00048BF40424FF000013EE700BF42004FEA05
:1023B000E2014FEA31014FEA02701FBF12F07F4382
:1023C00093F07F4F81F06051704792F0000F14BF7F
:1023D00093F07F4F704730B54FF4607401F00045C3
:1023E00021F0004120E700BF50EA010208BF70471A
:1023F00030B54FF000050AE050EA010208BF70470F
:1024000030B511F0004502D5404261EB41014FF477
:10241000806404F132045FEA915C3FF4DCAE4FF07B
:1024200003025FEADC0C18BF03325FEADC0C18BF62
:10243000033202EBDC02C2F1200300FA03FC20FAB3
:1024400002F001FA03FE40EA0E0021FA02F1144400
:10245000C1E600BF70B54FF0FF0C4CF4E06C1CEA15
:1024600011541DBF1CEA135594EA0C0F95EA0C0F8A
:1024700000F0DEF82C4481EA030621EA4C5123EAFD
:102480004C5350EA013518BF52EA033541F480112C
:1024900043F4801338D0A0FB02CE4FF00005E1FBDF
:1024A00002E506F00042E0FB03E54FF00006E1FB29
:1024B00003569CF0000F18BF4EF0010EA4F1FF046C
:1024C000B6F5007F64F5407404D25FEA4E0E6D41AC
:1024D00046EB060642EAC62141EA55514FEAC520BD
:1024E00040EA5E504FEACE2EB4F1FD0C88BFBCF539
:1024F000E06F1ED8BEF1004F08BF5FEA500E50F1EA
:10250000000041EB045170BD06F0004646EA0101AF
:1025100040EA020081EA0301B4EB5C04C2BFD4EBE1
:102520000C0541EA045170BD41F480114FF0000EDA
:10253000013C00F3AB8014F1360FDEBF002001F048
:10254000004170BDC4F10004203C35DA0C341BDCC2
:1025500004F11404C4F1200500FA05F320FA04F094
:1025600001FA05F240EA020001F0004221F00041C8
:1025700010EBD37021FA04F642EB06015EEA430E3B
:1025800008BF20EAD37070BDC4F10C04C4F120056B
:1025900000FA04F320FA05F001FA04F240EA02001E
:1025A00001F0004110EBD37041F100015EEA430EEF
:1025B00008BF20EAD37070BDC4F1200500FA05F20F
:1025C0004EEA020E20FA04F301FA05F243EA02038E
:1025D00021FA04F001F0004121FA04F220EA02009D
:1025E00000EBD3705EEA430E08BF20EAD37070BDE3
:1025F00094F0000F0FD101F00046400041EB0101C3
:1026000011F4801F08BF013CF7D041EA060195F0A4
:10261000000F18BF704703F00046520043EB03035E
:1026200013F4801F08BF013DF7D043EA060370474B
:1026300094EA0C0F0CEA135518BF95EA0C0F0CD056
:1026400050EA410618BF52EA4306D1D181EA03019C
:1026500001F000414FF0000070BD50EA410606BF96
:102660001046194652EA430619D094EA0C0F02D1DB
:1026700050EA013613D195EA0C0F05D152EA033620
:102680001CBF104619460AD181EA030101F000413E
:1026900041F0FE4141F470014FF0000070BD41F087
:1026A000FE4141F4780170BD70B54FF0FF0C4CF461
:1026B000E06C1CEA11541DBF1CEA135594EA0C0F80
:1026C00095EA0C0F00F0A7F8A4EB050481EA030ECD
:1026D00052EA03354FEA013100F088804FEA0333B4
:1026E0004FF0805545EA131343EA12634FEA022282
:1026F00045EA111545EA10654FEA00260EF0004143
:102700009D4208BF964244F1FD0404F5407402D294
:102710005B084FEA3202B61A65EB03055B084FEA25
:1027200032024FF480104FF4002CB6EB020E75EB22
:10273000030E22BFB61A754640EA0C005B084FEA4A
:102740003202B6EB020E75EB030E22BFB61A7546C7
:1027500040EA5C005B084FEA3202B6EB020E75EB12
:10276000030E22BFB61A754640EA9C005B084FEA8A
:102770003202B6EB020E75EB030E22BFB61A754697
:1027800040EADC0055EA060E18D04FEA051545EA86
:1027900016754FEA06164FEAC30343EA52734FEA2F
:1027A000C2025FEA1C1CC0D111F4801F0BD141EAA8
:1027B00000014FF000004FF0004CB6E711F4801F0D
:1027C00004BF01430020B4F1FD0C88BFBCF5E06FED
:1027D0003FF6AFAEB5EB030C04BFB6EB020C5FEAFD
:1027E000500C50F1000041EB045170BD0EF0004E52
:1027F0004EEA113114EB5C04C2BFD4EB0C0541EA84
:10280000045170BD41F480114FF0000E013C90E680
:1028100045EA060E8DE60CEA135594EA0C0F08BF44
:1028200095EA0C0F3FF43BAF94EA0C0F0AD150EA43
:1028300001347FF434AF95EA0C0F7FF425AF1046D6
:1028400019462CE795EA0C0F06D152EA03353FF4FE
:10285000FDAE1046194622E750EA410618BF52EA7B
:1028600043067FF4C5AE50EA41047FF40DAF52EA4F
:1028700043057FF4EBAE12E74FF0FF3C06E000BFEC
:102880004FF0010C02E000BF4FF0010C4DF804CDF9
:102890004FEA410C7FEA6C5C4FEA430C18BF7FEAB9
:1028A0006C5C1BD001B050EA410C0CBF52EA430CE7
:1028B00091EA030F02BF90EA020F0020704710F167
:1028C000000F91EA030F58BF994208BF90422CBFF6
:1028D000D8176FEAE37040F0010070474FEA410CEF
:1028E0007FEA6C5C02D150EA013C07D14FEA430C0D
:1028F0007FEA6C5CD6D152EA033CD3D05DF8040B7E
:10290000704700BF8446104662468C4619466346AF
:1029100000E000BF01B5FFF7B7FF002848BF10F186
:10292000000F01BD4DF808EDFFF7F4FF0CBF0120CB
:1029300000205DF808FB00BF4DF808EDFFF7EAFF47
:1029400034BF012000205DF808FB00BF4DF808ED02
:10295000FFF7E0FF94BF012000205DF808FB00BFF7
:102960004DF808EDFFF7CEFF94BF012000205DF881
:1029700008FB00BF4DF808EDFFF7C4FF34BF01208E
:1029800000205DF808FB00BF4FEA410212F500127B
:1029900015D211D56FF47873B3EB625212D94FEAA6
:1029A000C12343F0004343EA505311F0004F23FA90
:1029B00002F018BF404270474FF00000704750EAE5
:1029C000013005D111F0004008BF6FF000407047A2
:1029D0004FF00000704700BF4A0011D212F50012FC
:1029E00011D20DD56FF47873B3EB62520ED44FEA67
:1029F000C12343F0004343EA505323FA02F07047E7
:102A00004FF00000704750EA013002D14FF0FF3024
:102A100070474FF0000070474FEA4102B2F1E043C7
:102A200024BFB3F5001CDCF1FE5C0DD901F0004CB5
:102A30004FEAC0024CEA5070B2F1004F40EB830005
:102A400008BF20F00100704711F0804F21D113F131
:102A50003872BCBF01F00040704741F480114FEA6A
:102A60005252C2F11802C2F1200C10FA0CF320FAF3
:102A700002F018BF40F001004FEAC1234FEAD32310
:102A800003FA0CFC40EA0C0023FA02F34FEA43037A
:102A9000CCE77FEA625307D150EA01331EBF4FF003
:102AA000FE4040F44000704701F0004040F0FE401E
:102AB00040F40000704700BF4FF0FF0C1CEAD052FA
:102AC0001EBF1CEAD15392EA0C0F93EA0C0F6FD091
:102AD0001A4480EA010C400218BF5FEA41211ED06F
:102AE0004FF0006343EA501043EA5111A0FB01315B
:102AF0000CF00040B1F5000F3EBF490041EAD37130
:102B00005B0040EA010062F17F02FD2A1DD8B3F1AB
:102B1000004F40EBC25008BF20F00100704790F01A
:102B2000000F0CF0004C08BF49024CEA502040EA6C
:102B300051207F3AC2BFD2F1FF0340EAC250704732
:102B400040F400004FF00003013A5DDC12F1190F70
:102B5000DCBF00F000407047C2F10002410021FAE2
:102B600002F1C2F1200200FA02FC5FEA310040F1FA
:102B7000000053EA4C0308BF20EADC70704792F073
:102B8000000F00F0004C02BF400010F4000F013AAB
:102B9000F9D040EA0C0093F0000F01F0004C02BFA6
:102BA000490011F4000F013BF9D041EA0C018FE715
:102BB0000CEAD15392EA0C0F18BF93EA0C0F0AD01B
:102BC00030F0004C18BF31F0004CD8D180EA010041
:102BD00000F00040704790F0000F17BF90F0004FDA
:102BE000084691F0000F91F0004F14D092EA0C0FBC
:102BF00001D142020FD193EA0C0F03D14B0218BF4F
:102C0000084608D180EA010000F0004040F0FE4094
:102C100040F40000704740F0FE4040F44000704730
:102C20004FF0FF0C1CEAD0521EBF1CEAD15392EAAF
:102C30000C0F93EA0C0F69D0A2EB030280EA010C9F
:102C400049024FEA402037D04FF0805343EA111138
:102C500043EA10130CF000408B4238BF5B0042F196
:102C60007D024FF4000C8B4224BF5B1A40EA0C003B
:102C7000B3EB510F24BFA3EB510340EA5C00B3EB6D
:102C8000910F24BFA3EB910340EA9C00B3EBD10F5B
:102C900024BFA3EBD10340EADC001B0118BF5FEAAD
:102CA0001C1CE0D1FD2A3FF650AF8B4240EBC250D6
:102CB00008BF20F0010070470CF0004C4CEA502097
:102CC0007F32C2BFD2F1FF0340EAC250704740F4E6
:102CD00000004FF00003013A37E792F0000F00F0D8
:102CE000004C02BF400010F4000F013AF9D040EA56
:102CF0000C0093F0000F01F0004C02BF490011F4EA
:102D0000000F013BF9D041EA0C0195E70CEAD153E1
:102D100092EA0C0F08D142027FF47DAF93EA0C0FC8
:102D20007FF470AF084676E793EA0C0F04D14B02AC
:102D30003FF44CAF08466EE730F0004C18BF31F05E
:102D4000004CCAD130F000427FF45CAF31F0004358
:102D50007FF43CAF5FE700BF4FF0FF3C06E000BFF1
:102D60004FF0010C02E000BF4FF0010C4DF804CD14
:102D70004FEA40024FEA41037FEA226C18BF7FEA24
:102D8000236C11D001B052EA530C18BF90EA010F26
:102D900058BFB2EB030088BFC81738BF6FEAE170B5
:102DA00018BF40F0010070477FEA226C02D15FEA51
:102DB000402C05D17FEA236CE4D15FEA412CE1D0BD
:102DC0005DF8040B704700BF844608466146FFE784
:102DD0000FB5FFF7C9FF002848BF10F1000F0FBD66
:102DE0004DF808EDFFF7F4FF0CBF012000205DF85F
:102DF00008FB00BF4DF808EDFFF7EAFF34BF0120E4
:102E000000205DF808FB00BF4DF808EDFFF7E0FF7C
:102E100094BF012000205DF808FB00BF4DF808EDCD
:102E2000FFF7D2FF94BF012000205DF808FB00BF30
:102E30004DF808EDFFF7C8FF34BF012000205DF812
:102E400008FB00BF4FEA4002B2F1FE4F0FD34FF034
:102E50009E03B3EB12620DD94FEA002343F0004307
:102E600010F0004F23FA02F018BF404270474FF0B5
:102E70000000704712F1610F01D1420205D110F03C
:102E8000004008BF6FF0004070474FF000007047EF
:102E9000002100F0B5BF000010B5054C13462CB161
:102EA0000A4601460220AFF3008010BD204610BD47
:102EB0000000000038B5074B05461C68E36B1BB9E2
:102EC0002420FDF797FEE063E16B2846BDE838401B
:102ED00000F002B8680000202DE9F0410C46804661
:102EE00001F0DEFD21460746404601F0DDFD466962
:102EF000044606F26C76B30705D1642296FBF2F322
:102F000002FB13634BB94FF4C87596FBF5F305FB51
:102F10001365B5FA85F35B0900E001235F4A3025AC
:102F200005FB032501F0D2F801F0D2F85C4B1B68D9
:102F3000F3B17B689E4205D13968D8F80030FA6950
:102F400041B90AE0304601F019F80028F4D14FF0F9
:102F5000FF330DE0934208DB01E0934207DABA6BDE
:102F60009342ACBF0023012302E0002300E00123D1
:102F70002362236A3C20012B0CBFF96B396A4FF4A2
:102F8000616391FBF3F603FB161393FBF0F200FB76
:102F9000123061682368891AA2681B1A921B3B2BA6
:102FA00023606160A26003DD013161603C3B04E0AD
:102FB000002B03DA013961603C33236063683B2BEB
:102FC00003DD0132A2603C3B04E0002B03DA013A4E
:102FD000A2603C336360A368172B22DDE269183BD3
:102FE0000132E261A269A3600132062AC8BF002251
:102FF000A261E26823690132E26055F823108A4237
:1030000046DD01330C2B08BF6369A2EB0102E260CD
:1030100005BF013300222361226104BF6361E261C5
:1030200036E0002B34DAE2691833013AE261A26932
:10303000A360013A48BF0622A261E268013AE26059
:1030400032BB2369013B01D423611DE00B232361C3
:1030500063695A1E12F0030F626103F26B7305D1AC
:10306000642193FBF1F201FB12324AB94FF4C871AB
:1030700093FBF1F201FB1233B3FA83F35B0900E037
:10308000012303F5B673E361236955F82330E36048
:1030900001F01DF82046BDE8F08100BF505B0A0832
:1030A0000C080020004870476C00002010B5431E3B
:1030B0000A44914204D011F8014B03F8014FF8E79C
:1030C00010BD03460244934202D003F8011BFAE705
:1030D0007047000038B5124B05461C68A36BD3B986
:1030E0001820FDF787FD43F20E33A06303804AF6F4
:1030F000CD33438041F2342383804EF26D63C3802D
:103100004DF6EC630381052343810B238381012268
:103110000023C0E90423A36B00221D615A6138BD5E
:103120006800002010F8012B11F8013B012A28BF8C
:103130009A42F7D0D01A7047034611F8012B03F8D2
:10314000012B002AF9D17047024B0146186800F0A4
:1031500003B800BF6800002070B5064608460C465C
:1031600000F00DF8451C29463046FDF77BFD06466C
:1031700018B12A462146FFF799FF304670BD034635
:1031800013F8012B002AFBD1181A0138704730B50B
:1031900082B1451E013915F8013F11F8014FA342D4
:1031A00006D1EC431444E04201D0002BF3D11C467D
:1031B000181B30BD104630BD2DE9F0410F4690463A
:1031C00001F0CEFF04460D46B8F1000F11D0C7F351
:1031D0000A53C3F16B03002B0BDD1B0503F17F5575
:1031E000002405F5401522462B46FFF733F9BDE8CC
:1031F000F08120462946BDE8F08100000000000073
:103200002DE9F04F82460C469DB00023139218938F
:103210004FF000084FF000091791179B1A780D2AFC
:1032200005D8092A13D2002A00F0AD8112E02B2A1A
:1032300004D02D2A04D0202A0CD108E0002200E07E
:1032400001220C925A1C17925B782BB99BE1013337
:103250001793E2E700230C93179D2B78302B5CD15A
:103260006B78582B01D0782B4CD10C9BA84A01933A
:1032700018AB009317A919AB504601F0FAF810F0FB
:103280000706044600F08585062E05D1013500238A
:1032900017950C9300F07DBD189A3AB135211AA804
:1032A00002F045F81899504601F0C9FC062E22D8C4
:1032B000DFE806F0040D08181D0D04004FF00009AA
:1032C000C84618E0DDF86880DDF86C9013E01B9BC1
:1032D000199A23F4801302F23342DDF8688043EA3E
:1032E000025908E0DFF82C924FF0000803E06FF07D
:1032F00000494FF0FF38210740F14B8549F0004964
:1033000000F047BD179B5A1C17925B78302BF9D001
:10331000002B00F03E85012300E000230593179B5E
:103320000A22069300239B4602930493179D2E784E
:10333000A6F13003D9B2092911D8BBF1080FD5BFC6
:103340000499029902FB013302FB013305F10105E7
:10335000D4BF049302930BF1010B1795E6E7504697
:10336000FFF7A0FE07685046FFF79CFE0068FFF7D6
:1033700006FF394602462846FFF709FF074628B1EF
:10338000002033465D46024601465AE05046FFF7AC
:1033900089FE0068FFF7F3FE179B1A1817921B5C53
:1033A000BBF1000F45D15846302B05D1179B01309A
:1033B0005A1C17925B78F7E7A3F13102082A46D826
:1033C000179A0692024600200546303B00F10101A3
:1033D00029D00A44294605EB000C0A2661450FD086
:1033E000013101F1FF3EBEF1080F03DC049F77437A
:1033F0000497F3E71029DEBF029F77430297EDE7BA
:103400002844082800F1010505DC04980A2101FB85
:103410000033049306E0102DDFBF02980A2101FB60
:10342000003302930021179B581C17905B780846C5
:1034300002E05D4638463A46A3F130010929C4D975
:103440000121652B01D0452B4FD16DB904E0652BCF
:1034500040F0AD840022012128B9059B002B00F02B
:103460009280054600E00025179C631C1793637843
:103470002B2B06D02D2B02D00026039606E001232D
:1034800000E000230393A31C1793A378A3F1300655
:10349000092E29D8302B04D1179B5E1C17965B7818
:1034A000F8E7A3F13106082E1FD8A3F1300E179BC1
:1034B0001F46179B5E1C17965B78A3F1300CBCF17E
:1034C000090F05D80A2606FB0E3EAEF1300EF0E7D6
:1034D000F61B082E44F61F6602DC7645A8BF76462A
:1034E000039F1FB1764201E017940026002D52D1B0
:1034F000002840F04E84059A002A40F04A840029B2
:1035000041D14E2B20D007DC492B0AD03BE000BF35
:10351000B05B0A080000F07F692B02D06E2B13D03D
:1035200031E0AA4917A801F0D5F960B3179BA84963
:10353000013B17A8179301F0CDF910B9179B013380
:103540001793DFF8A8921AE0A24917A801F0C2F970
:10355000C8B1179B1B78282B0FD11AAA9E4917A810
:1035600001F0CBF9052808D11B9BDDF8688043F0FA
:10357000FF4949F4E00900F00CBCDFF874924FF009
:10358000000800F006BC139B1794002B00F00C847D
:1035900000230C93FFE32C46BBF1000F08BFAB46A2
:1035A0000498102DA8BF1024B71AFEF7DDFE092CD1
:1035B0008046894613DD894B03EBC40353E912238C
:1035C000FEF748FF804602988946FEF7CDFE024688
:1035D0000B4640464946FEF78BFD804689460F2D37
:1035E00033DC002F00F0D58322DD162F07DC7B4D66
:1035F000424605EBC7014B46D1E9000113E0C5F196
:1036000025039F4221DC754CC5F10F0504EBC50174
:103610007D1B4246D1E900014B4604EBC504FEF791
:1036200019FFD4E90023FEF715FF80468946B0E371
:1036300017F1160F09DB694D4046A5EBC703D3E927
:1036400000234946FFF730F8EFE72C1B3C44002CE1
:103650005DDD14F00F010AD0604B424603EBC1015F
:10366000D1E900014B46FEF7F5FE8046894634F06D
:103670000F0400F0C180B4F59A7F0FDD4FF0000B0E
:10368000CDF808B0CDF814B0CDF810B02223CAF8A8
:103690000030DFF858914FF0000889E14046494674
:1036A00000234F4E24110293012C0CDDE20704D5B8
:1036B000D6E90023FEF7CEFE0123029A6410013200
:1036C00002920836F0E70BB180468946444B029AD5
:1036D000A9F1547903EBC201D1E9000142464B46FE
:1036E000FEF7B8FE21F0004389460A461B0D3D490E
:1036F0001B058B428046C1D8A1F580118B4286BF45
:10370000DFF8F0904FF0FF3802F1547974E073D095
:10371000644214F00F020AD0304B404603EBC20360
:103720004946D3E90023FEF7BFFF804689462411AE
:1037300062D01F2C08DD4FF0000BCDF808B0CDF89B
:1037400014B0CDF810B02CE14046494614F0100FEB
:103750000CBF00236A23244E03930023002C09DDB1
:10376000E20704D5D6E90023FEF774FE01236410B6
:103770000836F3E70BB180468946039BEBB1C9F3EA
:103780000A53C3F16B03002B494616DD1F2B0EDDD8
:10379000342BDEBF203B4FF0FF3202FA03F34FF031
:1037A0000008CCBF4FF05C7903EA010905E04FF057
:1037B000FF3202FA03F303EA08080022002340461E
:1037C0004946FFF7AFF80028B5D117E0C45B0A08F7
:1037D000C75B0A08CD5B0A08D05B0A08505C0A0880
:1037E000185D0A080000A07CE85B0A080000F07F72
:1037F0000000F8FFFFFFEF7F00230393049B5A466E
:10380000009306992B46504601F06BFA059000286C
:103810003FF434AF002FC7F10003A8BF00230D937E
:103820004FF0000B27EAE7731293CDF808B0059B21
:103830005046596801F0CEF9049000283FF426AFB5
:10384000059B0C301A6903F10C0102329200FFF75C
:103850002DFC1AAB019319AB009342464B465046E0
:10386000CDE9088901F0EDFC189000283FF40EAF77
:103870000121504601F0C0FA029000283FF406AF43
:10388000199B0399002BACBF0D9A129A1A9CACBFDE
:10389000D618D21AA3EB01032344B14903F1FF3335
:1038A000ACBF129A0D9E8B42C4F1360480F2858023
:1038B000C91A1F29C8BFAB4D4FF00107D4BF07FA83
:1038C00001F3ED1AA4EB0104D9BF0793002507FA11
:1038D00005F507973719039BBE4214441C44334631
:1038E000A8BF3B46A342A8BF2346002BC2BFFF1A76
:1038F000E41AF61A0D9B002B63D1002F7ADC129B81
:10390000002B40F08180002C00F38880002E00F313
:103910008F80049A1899504601F0C3FB8346002813
:103920003FF4B4AEC3680024C4600299069301F06A
:103930009CFBA04280F28B80069B002B40F0028211
:10394000B8F1000F40F0FE81C9F31303002B40F0E3
:10395000F98129F000431B0D1B05B3F1D66F40F22E
:10396000F181DBF81430002B6CD05946012250460F
:1039700001F02AFB0299834601F077FB002840F30F
:10398000E18129F00043039A1B0D1B05002A00F07A
:103990008D80B3F1D66F00F38980B3F15C7F00F3C3
:1039A000D38122234FF000084FF00009CAF80030FD
:1039B000059B002B40F0D981EBE101230025079303
:1039C00088E71A460299504601F0B0FA02900028A2
:1039D0003FF45CAE0146189A504601F016FA069084
:1039E00000283FF453AE1899504601F028F9069B81
:1039F000189382E73A461899504601F0E5FA189074
:103A000000287FF47CAF41E6129A0499504601F0F9
:103A10008DFA049000287FF476AF37E622460499A9
:103A2000504601F0D1FA049000287FF46FAF2DE6E4
:103A300032460299504601F0C7FA029000287FF4FE
:103A400068AF23E6DBF81030012B8EDC7AE161D120
:103A5000069AC9F3130322B343494A468B422ED137
:103A6000039B414663B1414B1340B3F1D46F07D878
:103A70001B0DC3F16B034FF0FF3000FA03F301E0BD
:103A80004FF0FF338B421AD139498A4202D10133B8
:103A90003FF4FCAD354B4FF00008134003F580199F
:103AA00050E163B9B8F1000F09D16AE7A3F58013BB
:103AB0006FEA13594FF0FF386FEA095942E115B127
:103AC00015EA090F02E0079B13EA080F00F03A819C
:103AD000069B039A4046494653B1FFF76DFB0246E9
:103AE0000B46DDE90801FEF703FB8046894629E124
:103AF000FFF762FB02460B46DDE90801FEF7F6FA26
:103B00000022002380468946FEF70CFF00287FF440
:103B100048AF17E10299584601F0E1FB00224FF04F
:103B2000804306460F46FEF711FF00283FD0069B54
:103B300013B100260F4F10E0B8F1000F03D1C9F305
:103B400013033BB91AE0B8F1010F03D1B9F1000F2B
:103B50003FF427AF084F00260024064D3CE000BF8D
:103B600002FCFFFFE2FBFFFFFFFF0F000000F07F02
:103B7000FFFFEF7F0000F03F0000F0BF00229A4BF4
:103B800030463946FEF7D8FE40B90022974B304602
:103B90003946FEF75FFC04460D4601E0069C934D56
:103BA00005F1004314941593DDE9146714E08F4B7D
:103BB000002230463946FEF74DFC069B04460D4672
:103BC00023B901F100430E900F9303E002460B4628
:103BD000CDE90E23DDE90E6729F000431B0D1B051F
:103BE0000793079A824B9A422BD1DDE90823A9F16A
:103BF000547940464946CDE90A2301F0B1FA02461C
:103C00000B4630463946FEF725FC42464B46FEF74A
:103C10006FFA21F000431B0D764A1B059342804644
:103C20000CD9754B0B9A9A4203D10A9B01333FF48E
:103C30002DADDFF8C4914FF0FF3872E001F15479F7
:103C400039E0039B3BB3079BB3F1D46F23D85EA34A
:103C5000D3E9002320462946FEF778FEB8B129466D
:103C60002046FEF7B9FE002808BF0120FEF77CFBC6
:103C7000069B04460D4623B901F1004310901193B1
:103C800003E002460B46CDE91023DDE91067079AF1
:103C900007F1D6639F1ADDE9080101F061FA0246D7
:103CA0000B4630463946FEF7D5FBDDE90823FEF723
:103CB0001FFA80468946039B9BBB29F000431B0DDE
:103CC000079A1B059A424E462BD129462046FEF7FD
:103CD0005BFEFEF759FB0B46024629462046FEF7DF
:103CE00005FA069B04460D462BB9B8F1000F02D128
:103CF000C9F313067EB136A3D3E900232046294633
:103D0000FEF71AFE88BB34A3D3E9002320462946D8
:103D1000FEF730FE04E032A3D3E90023FEF70CFEE9
:103D200018BB1899504600F08AFF0499504600F0DD
:103D300086FF0299504600F082FF5946504600F037
:103D40007EFF74E5039B83B12C4B40460B9300230D
:103D50000A934946DDE90A23FEF77CFB8046894643
:103D600019B910B92223CAF800301899504600F04A
:103D700066FF0499504600F062FF0299504600F039
:103D80005EFF0599504600F05AFF5946504600F034
:103D900056FF139B13B1179B139A13600C9B1BB117
:103DA000424609F1004307E042464B4604E0002545
:103DB0002A460121FFF747BB104619461DB0BDE852
:103DC000F08F00BFAFF300800000C0FFFFFFDF41B6
:103DD0009535A094FFFFDF3F35E5AF350000E03FAC
:103DE0009535A094FFFFCF3F0000F03F0000E03F7B
:103DF0000000E07FFFFF9F7CFFFFEF7F0000503956
:103E0000024B0A4601461868FFF7FAB9680000201D
:103E1000F0B548B9106838B9F0BD17F8016B5EB15C
:103E2000B542FAD12BB1204604460F4614F8015B87
:103E3000F3E714600370F0BD4DB915602846F0BD7E
:103E400017F8016BB54207D0002EF9D11C46234666
:103E50000F4613F8015BF3E715B10021217000E074
:103E60002B461360F0BD0123FFF7D2BF2DE9F047C9
:103E70000E4680463B48D0F80090354615F8014B79
:103E800009EB0400407800F0080000F0FF0708B1DB
:103E90002E46F2E72D2C03D1B51C7478012703E0E0
:103EA0002B2C04BF7478B51C13B1102B0AD153E02E
:103EB000302C4FD1287800F0DF00582845D16C789D
:103EC000102302354FF0FF3CBCFBF3FC03FB0CFA64
:103ED00000266FEA0A0A304609EB040E9EF801E05C
:103EE0001EF0040F01D0303C0BE01EF0030E1AD080
:103EF000BEF1010F0CBF4FF0370E4FF0570ECEEB57
:103F00000404A3420FDD002E08DB604506D801D172
:103F1000544503DC03FB0040012601E04FF0FF366F
:103F200015F8014BD8E7002E07DA2223C8F8003035
:103F30004FF0FF302AB9BDE8F08707B1404272B1B7
:103F400006B1691E1160BDE8F0873024002BB9D19D
:103F50000823B7E70A23B5E7302CABD0B2E7BDE8BA
:103F6000F08700BF0400002013460A4601460248BD
:103F70000068FFF77BBF00BF680000202DE9F74F06
:103F8000044600F08DFD40F2B1739C4240F39680F0
:103F900040F26D156FF4F663E318A4F2B2729B1051
:103FA00005FB0235A4F26D726FF0630392FBF3F32D
:103FB0006FF4C8622B44A5184FF4C87294FBF2F753
:103FC00095FBF2F502FB17471D44642394FBF3F6BF
:103FD000B7FA87FE014603FB164600F1380301934A
:103FE00004F0030344604FEA5E1E00934FF0070C99
:103FF0000B7A4A2B0ED14B69009AEC1802B906B91C
:1040000027B93B2BD4BF0023012300E00023234426
:10401000013B3FE0442B02D14B692B443AE0009B2B
:104020002BB9002E0CBFF0464FF0010800E0F0461F
:10403000A946244B302202FB0838CC68A8F1040AB8
:104040000123A34204DA5AF804BF0133D944F8E744
:1040500009F1040393FBFCFBCBEBCB0ACAEB030A8D
:104060004B69012CB8BF0124B3EB0A0A0B6904F1B8
:10407000804403F1FF3304F1FF3448BF0AF1070A1B
:10408000C3EBC30358F824405344A34201DB073B6E
:10409000FBE74B448C690C4A02FB03430C6A234444
:1040A00041F81C3F019B9942A2D1C369826B9342A4
:1040B000ACBF002301230360012000E0002003B017
:1040C000BDE8F08F505B0A088051010070477047CF
:1040D000014B186800F002B8680000202DE9F04F8D
:1040E0008DB0074600F0DCFCB0490446384600F0CD
:1040F000CFFCAF4E054660B9AE4BAF4A1860AF4B30
:104100001860AF4B30681A605A60FCF77BFD356071
:1041100048E1316879B93068FCF774FD2846FFF74B
:104120002EF8411C3846FCF79DFD306048B1294609
:10413000FFF702F805E0FEF7F5FF002800F03281F6
:10414000E9E72B780AAE3A2B08BF013533469D4A82
:104150009D492846FCF766FD002840F323810A9B11
:10416000EF18EB5C2D2B03D101374FF0FF3503E047
:104170002B2B08BF013701250DF1200A0DF11E0B75
:104180004FF000080396CDF808A00196CDF800B0D6
:10419000334607AA8D493846ADF81E80ADF8208019
:1041A000FCF740FD404540F3FD80BDF81E20BDF802
:1041B00020303C2101FB0233BDF81C204FF461612B
:1041C00001FB02335D437F4B25627D4DDFF8089292
:1041D0002B600A9B4A461F447B4933463846FCF70E
:1041E00021FD404508DC2B68226A6B60714B1A6028
:1041F000724BC3F80080D5E00A9BC5F80490FD1807
:10420000FB5C2D2B03D101354FF0FF3703E02B2B47
:1042100008BF013501270023ADF81C30ADF81E3072
:10422000ADF820300A930396CDF808A00196CDF89A
:1042300000B0334607AA65492846FCF7F3FC00287E
:1042400004DC236AA3F56163E3630EE0BDF81E207E
:10425000BDF820303C2101FB0233BDF81C204FF497
:10426000616101FB02335F43E76327460A9B4FF01E
:1042700000091D442B782C2B08BF013595F80080D0
:10428000B8F14D0F26D10DF12603029309AB00932F
:104290000396019633460DF122024D492846FCF75C
:1042A000C1FC03287ED1BDF822104B1E0B2B79D800
:1042B000BDF82420531E042B74D8BDF82630062BDD
:1042C00070D887F80880F9603A617B610A9B05EB3A
:1042D00003082AE0B8F14A0F06BF434601354423DC
:1042E0000A220BA928460593FFF73EFEDDF82C8035
:1042F000ADF826004545059B14D14D23B9F1000FBB
:1043000007D123720323E36002232361C4F81490CE
:104310000BE084F824300B23A3620123E362002323
:10432000236302E080B23B7278610223ADF81C3057
:104330000023ADF81E30ADF820300A9398F8003015
:104340002F2B0BD10396CDF808A00196CDF800B025
:10435000334607AA1F494046FCF764FCBDF81E20FF
:10436000BDF820303C2101FB0233BDF81C204FF486
:10437000616101FB0233BB610A9D09F10109B9F1D9
:10438000020F454407F11C077FF474AF6068FFF724
:10439000F5FD226A074B1A60E36B9B1A074A18BFA8
:1043A000012313600DB0BDE8F08F00BF105C0A0858
:1043B0000808002010080020135C0A080C080020E0
:1043C000A4000020FB070020175C0A083A5C0A08DA
:1043D000265C0A08395C0A08F0070020F0B5066977
:1043E0004B11B34200F1140527DA11F01F0105EB60
:1043F000860605EB830201D1294616E0141D55F807
:1044000023202B46C1F1200ECA40B44209D22768AE
:1044100007FA0EF73A4343F8042B54F8042BCA402A
:10442000F3E71A6052B1043308E0B2420B4605D2FA
:1044300052F8043B41F8043BF7E72B465B1B9B100B
:10444000036103B94361F0BDA0F13003092B01D82A
:1044500020380AE0A0F16103052B01D8473804E0B9
:10446000A0F14103052B02D82738C0B270470020C5
:1044700070472DE9F04F8BB08A4690460693029024
:10448000FEF710FE03684FF0000B18460393FEF78B
:1044900076FE039B0190034413F8013C0793DAF87E
:1044A000003002331F4613F8010B302802D10BF104
:1044B000010BF7E7FFF7C8FF0446E0B9019A03993B
:1044C0003846FEF764FE002834D1019BF85CFE18E4
:1044D000FFF7BAFF80B3334618781F46302803F140
:1044E0000103F9D0FFF7B0FFB0FA80F534466D094B
:1044F0004FF0010B01E000252C463A461646307875
:104500000132FFF7A1FF0028F8D1019A0399304644
:10451000FEF73DFE50B954B9019BF41822461646E9
:1045200030780132FFF790FF0028F8D134B1A41B96
:10453000A40003E03E4600E0044601253378502BFA
:1045400001D0702B2AD173782B2B08D02D2B03D0C0
:10455000711C4FF0000905E04FF0010901E04FF038
:104560000009B11C0878FFF76FFF431EDBB2182B60
:1045700014D8A0F1100211F8010FFFF765FF431ED8
:10458000DBB2182B04D80A2303FB0202103AF2E72D
:10459000B9F1000F00D05242144400E03146CAF88D
:1045A00000102DB1BBF1000F14BF002006207CE1EC
:1045B0002946F31B013B072B02DD01315B10FAE7B3
:1045C000029800F007FB4FF000090546CB46019B1F
:1045D00000F1140AC3F10103CDF810A00893B7420B
:1045E0002FD2731E0593079A16F8013C93420BD005
:1045F000BBF1200F16D1049BC3F8009004334FF099
:1046000000090493CB460DE0059B089A13449F4292
:10461000EED81846019A03990993FEF7B8FD099B55
:1046200068B1E5E716F8010CFFF70EFF00F00F0088
:1046300000FA0BF0059B49EA00090BF1040B1E463A
:10464000CDE7049840F8049BCAEB00008010286175
:104650004701484600F083FBD8F80060381AB042A2
:1046600026DD871B3946284600F07BFEC8B17B1E3D
:10467000591103F01F024FF001095AF8211009FAED
:1046800002F20A420ED04B4502DC4FF0020909E06B
:10469000B91E284600F065FE0028F6D04FF0030949
:1046A00000E0814639462846FFF798FE3C440CE07E
:1046B00009DA371A29463A46029800F085FC054681
:1046C000E41B00F1140A4FF00009D8F808309C42AE
:1046D00008DD0298294600F0B2FA149A002313600C
:1046E000A320E2E0D8F80400844253DA041BA64277
:1046F0002EDCD8F80C30022B1AD0032B1CD0012B47
:104700001DD1A6421BD1012E0BDCD8F80430069A2D
:104710006220136001232B61CAF80030149B1D60D6
:10472000C3E0711E284600F01CFE0028EDD106E013
:10473000159B002BE9D002E0159B002BE5D10298D8
:10474000294600F07CFA149A002313605020ACE054
:10475000671EB9F1000F06D13FB13946284600F077
:1047600000FE814601E04FF001097A11012307F0B4
:104770001F0703FA07F75AF8223021461F4228463E
:1047800018BF49F00209361BFFF728FE0227D8F8A8
:10479000044000E00127B9F1000F00F08180D8F853
:1047A0000C30022B0ED0032B10D0012B76D119F038
:1047B000020F73D0DAF8000049EA000919F0010F7E
:1047C00007D16BE0159BC3F101031593159B002BDB
:1047D00064D0D5F810A005F114034FEA8A0903EB61
:1047E000090100201A68B2F1FF3F02D001321A60BD
:1047F00020E043F8040B9942F4D8AB689A4512DBE9
:1048000069680298013100F0E5F983462A6905F1EB
:104810000C01023292000C30FEF748FC2946029847
:1048200000F00DFA5D462B695A1C2A6105EB8303E3
:1048300001225A61022F05F1140211D1D8F800307B
:10484000013B9E4227D17111012306F01F0603FA96
:1048500006F652F821301E420CBF022701271AE04B
:104860002B699A450ADA01212846FFF7B7FDD8F8E7
:10487000083001349C423FF72CAF0BE016F01F06C6
:1048800008D0914459F8040C00F069FAC6F12006EA
:10489000B042E8DB012747F0200701E047F01007AE
:1048A0003846149B1D60069B1C600BB0BDE8F08F62
:1048B000C2F10802920070B5C2F120064368056893
:1048C00003FA06F42C43D340046040F8043F8842C6
:1048D000F4D370BD30B5036811F8014B01334CB10E
:1048E0001A78A2F14105192D98BF2032A242F3D0C7
:1048F000002030BD0360012030BD0B682DE9F04F72
:104900005E1102EB860613F01F0318BF0436351F35
:10491000174600228246A8462C46914685B0D0F81C
:1049200000B0019346F8042C00921BF8011F0029E7
:104930003CD0084603920291FFF786FD039A00BB24
:104940000299202916D8009B9945EEDD444505D2F1
:10495000072A03DC41462046FFF7AAFFBC4223D9C1
:104960000023A4F1040844F8043CCDF80090444628
:104970001A46DAE7292948D10BF10103CAF80030B9
:1049800014E00132082A09F1010906DDBC42CCD944
:10499000002344F8043C0122043C216800F00F008D
:1049A00040EA01102060C0E70822BEE7B9F1000F1D
:1049B0002BD0444505D2072A03DC41462046FFF7A9
:1049C00077FFBC420CD93B4654F8042BA54243F870
:1049D000042BF9D2002243F8042B9D42FBD20BE0BA
:1049E000019B4BB1C3F120024FF0FF33D34056F887
:1049F000042C134046F8043C2B6843B9BD4202D155
:104A000001232B6003E0043DF6E7042000E00520CD
:104A100005B0BDE8F08F00002DE9F84F07468B4642
:104A2000904600F0CEFC194B1D689A463DB15C469D
:104A3000234613F8012B42B13D2A1C46F8D13846D3
:104A400000F0C0FC0020BDE8F88FCBEB0404A946C1
:104A500059F8040B0028F2D022465946FEF797FB7E
:104A600088B959F8043C1E191B5D3D2B0BD1DAF8AF
:104A700000303846ED1AAD10C8F8005000F0A2FC26
:104A8000701CBDE8F88F4D46E1E700BFEC00002048
:104A900007B501AAFFF7C0FF03B05DF804FB0000F3
:104AA00000487047AC0000200268464BF0B592FB0E
:104AB000F3F403FB1422002ABCBF02F5A83202F56E
:104AC000C0724FF4616092FBF0F300FB13224FF0D1
:104AD0003C008B6092FBF0F300FB132204F52F24C3
:104AE000ACBF04F66C2404F66B244B600A60072309
:104AF000E21C92FBF3F3344DC3EBC30394FBF5F5D7
:104B0000D31A48F6AC6240F2B4578B612F4B304851
:104B100003FB0544B4FBF2F2B4FBF7F3B4FBF0F093
:104B20002244D21A48F69466131A40F26D12B3FB6F
:104B3000F6F6B3FBF2F0B3FBF7F33444E31A02FBEF
:104B4000103303EB830299240232B2FBF4F2544394
:104B5000A61C0524B6FBF4F40A2A34BF02266FF023
:104B6000090616444FF4C87202FB05055F1C012EAE
:104B700098BF0135B3F5997FA7EB040702D3A3F5DE
:104B8000997214E0820705D16424B0FBF4F204FBAF
:104B900012024AB94FF4C872B0FBF2F402FB1400DF
:104BA000B0FA80F2520900E001223B331A44A5F228
:104BB0006C750023CA614D610E61CF600B620846BF
:104BC000F0BD00BF80510100B13A02004FC5FDFFAA
:104BD000B03A020070B5456A04460E463DB9102051
:104BE000FCF708F86062456085600560C560656A2D
:104BF000EB6843B1636ADB6853F8260078B102685A
:104C000043F8262017E021220421204600F0CBFBA8
:104C1000636AE860DB68002BECD1002070BD0121E5
:104C200001FA06F56A1D9200204600F0BCFB002840
:104C3000F3D04660856000230361C36070BD70B52A
:104C4000446A06460D463CB91020FBF7D3FF70625C
:104C5000446084600460C4603DB1736A6A68DB6864
:104C600053F82210296043F8225070BD2DE9F0411D
:104C700006460C460D691F4601F1140E0023DEF8AE
:104C80000000013381B202FB0171000C0F0C02FB2A
:104C9000007089B201EB00419D424FEA10474EF887
:104CA000041BECDCD7B1A3689D4212DB616830467F
:104CB0000131FFF78FFF8046226904F10C010232B7
:104CC00092000C30FEF7F2F921463046FFF7B7FFAD
:104CD000444604EB850301355F6125612046BDE84C
:104CE000F0812DE9F843064615461F460922083390
:104CF0000C4693FBF2F3002101229A4202DA5200A1
:104D00000131FAE73046FFF765FF089B092D436143
:104D10004FF00103036111DD04F10908C1462C4481
:104D200019F8013B0146303B0A223046FFF79EFF4F
:104D3000A145F5D108EB0504083C01E00A3409253A
:104D40002D1B63199F4208DD14F8013B0146303BDF
:104D50000A223046FFF78AFFF3E7BDE8F883030C29
:104D60001B0413B90004102300E0002310F07F4F50
:104D700004BF0002083310F0704F04BF0001043379
:104D800010F0404F04BF80000233002803DB4200D4
:104D900003D5581C70471846704720207047036899
:104DA00013F007020BD0D90722D49A074BBF5B0838
:104DB0009B08036003604CBF01200220704799B23A
:104DC00009B91B0C102213F0FF0F04BF1B0A083295
:104DD000190704BF1B090432990704BF9B0802325C
:104DE000D90702D45B0805D0013203601046704732
:104DF000002070472020704710B50C460121FFF7B6
:104E0000E9FE01224461026110BD2DE9F74F14460D
:104E10000A69236988469A42BEBF0B46A0461C46D3
:104E2000D8F81070D4F81090D8F80830D8F80410DA
:104E300007EB09069E42C8BF0131FFF7CBFE00F128
:104E400014052B4605EB860C0022634502D243F87D
:104E5000042BFAE704F1140208F1140102EB8903B0
:104E600001EB87070093009B0192934257D9B2F858
:104E700000B0BBF1000F23D08946AE464FF00008CA
:104E800059F8044BBEF800A0A3B20BFB03A34FEAF2
:104E9000144ADEF8004043444FEA14480BFB0A84EE
:104EA000F24604EB13449BB243EA04434F454FEAF6
:104EB00014484AF8043B01D9D646E1E7CEF804800D
:104EC000019B0432B3F802A0BAF1000F21D02C46A6
:104ED00089462B684FF00008B9F800E0B4F802B03A
:104EE0009BB20AFB0EBEA346F04443EA08434BF8CC
:104EF000043B59F8043BB4F804E01B0C0AFB03E341
:104F00004F4503EB18434FEA134801D95C46E3E7EA
:104F100063600435A7E75CF8043D13B9013E002E39
:104F2000F9DC066103B0BDE8F08F00002DE9F8431D
:104F3000154612F0030206460F4607D0214C013AEF
:104F4000002354F82220FFF791FE0746AD1036D01B
:104F5000746A3CB91020FBF74DFE706244608460B7
:104F60000460C460D6F82480D8F808404CB940F2F8
:104F700071213046FFF740FF04460023C8F80800BF
:104F800003604FF00008EB070AD539462246304649
:104F9000FFF73BFF814639463046FFF750FE4F464C
:104FA0006D100CD0206808B10446ECE7224621467B
:104FB0003046FFF72AFF2060C0F80080F4E738464B
:104FC000BDE8F883405D0A082DE9F0470C46074626
:104FD000914626694FEA621A56444968A368751CCF
:104FE000AB4202DA01315B00FAE73846FFF7F2FD27
:104FF000002380461A4600F11401534503DA41F8B4
:1050000023200133F9E72AEAEA73206901EB8303DD
:1050100019F01F0904F1140101EB800E14D0C9F13D
:10502000200C002208689A4600FA09F0024343F86F
:10503000042B51F8042B8E4522FA0CF2F2D8CAF850
:10504000042042B1B51C06E0043B51F8042B8E4508
:1050500043F8042FF9D8013D3846C8F810502146CE
:10506000FFF7EDFD4046BDE8F08703690A6910B51A
:105070009B1A11D192001430143183180A4453F84A
:10508000044D52F8041D8C4202D007D3012010BDFC
:105090009842F4D3002010BD184610BD4FF0FF30E9
:1050A00010BD2DE9F8430C4607461146204615462B
:1050B000FFF7DBFF061E08D131463846FFF78AFDB1
:1050C000012303614661BDE8F883BCBF23462C463B
:1050D00038466168BABF1D4601260026FFF77AFDF3
:1050E0002B69C660266905F1140904F1140101EB6E
:1050F000860709EB830800F114054FF0000C51F806
:10510000042B59F8044B93B29C44A3B2240CC3EB78
:105110000C03C4EB124202EB23429BB24FEA224C37
:10512000C84543EA02428E4645F8042BE7D8BE45FF
:105130000ED25EF8041B8AB26244131403EB1143CF
:1051400092B242EA03424FEA234C45F8042BEEE7C1
:1051500055F8043D0BB9013EFAE70661BDE8F88356
:10516000104B0B40A3F15073002B02DD00201946B9
:1051700070475B421B15132B4FF000004FF00001EE
:1051800004DC4FF4002242FA03F17047143B1E2B5B
:105190004FF00102CEBF1346C3F11F0302FA03F31F
:1051A000184670470000F07FF8B5056900F1140655
:1051B00006EB850555F8044C2F1F2046FFF7CFFD61
:1051C000C0F120030A280B6014DCC0F10B0E24FA96
:1051D0000EF1BE4241F07F5334BF55F8081C002148
:1051E000153004FA00F021FA0EF143F4401340EABE
:1051F000010223E0BE423ABFA5F1080755F8081C9A
:1052000000210B3815D08440C0F1200544F07F54B4
:1052100044F44014B74221FA05FE44EA0E038CBF61
:1052200057F8044C002401FA00F0EC4040EA040274
:1052300004E00A4644F07F5343F4401310461946F5
:10524000F8BD2DE9F3411C4601219046089E099DB9
:10525000FFF7C0FCC4F31302C4F30A5407460CB1B1
:1052600042F480120192B8F1000F19D002A840F860
:10527000088DFFF794FD009B48B1019AC0F1200111
:1052800002FA01F10B43C2407B61019200E07B61B5
:10529000019B002B14BF02210121BB61396107E092
:1052A00001A8FFF77CFD019B01217B613961203062
:1052B00034B1A4F2334404443460C0F1350009E051
:1052C000A0F2324007EB810330601869FFF747FD19
:1052D000C0EB41102860384602B0BDE8F0812DE9EE
:1052E000F743884669468146FFF75EFF0D46044650
:1052F00001A94046FFF758FF0F460646D9F810307F
:10530000D8F8102020469A1A9DE80A00C91A01EB25
:105310004213002BCCBF05EB0355A7EB03573246D6
:105320003B462946FDF7C0F903B0BDE8F0830139DB
:1053300010B549111469013102F1140300EB810128
:1053400003EB8404A342024604D253F8042B40F832
:10535000042BF7E700238A4202D242F8043BFAE723
:1053600010BD00F1140200694B11984210B50CDB1E
:105370000CDD11F01F0109D052F8234024FA01F08E
:1053800000FA01F18C420CD100E0034602EB8303EA
:10539000934204D953F8041D0029F9D001E00020FC
:1053A00010BD012010BD38B502FB01F42146FBF70A
:1053B00059FC054618B122460021FDF782FE284619
:1053C00038BD70477047000021000A0861000A08D4
:1053D0008D000A0891000A08000000004C6F63610C
:1053E00074696F6E43616C6C6261636B2829006C39
:1053F00061743D2566206C6F6E3D25662061636398
:1054000075726163793D256600252E366600252E6E
:105410003166004750532076342E3100646576693A
:1054200063654C6F6361746F7200000000000000E0
:10543000000000005F0000000000000007000700FF
:10544000000000147F147F14000000242A7F2A1219
:105450000000002313086462000000364955225002
:1054600000000000050300000000001C22410000B5
:1054700000000041221C0000000000082A1C2A082D
:1054800000000008083E0808000000A060000000BE
:105490000000000808080808000000606000000024
:1054A00000000020100804020000003E5149453E63
:1054B00000000000427F4000000000625149494660
:1054C00000000022414949360000001814127F10E4
:1054D00000000027454545390000003C4A49493055
:1054E00000000001710905030000003649494936F2
:1054F000000000064949291E000000003636000061
:1055000000000000AC6C0000000000081422410004
:1055100000000014141414140000004122140800A8
:105520000000000201510906000000324979413EA5
:105530000000007E0909097E0000007F49494936C4
:105540000000003E414141220000007F4141221CF9
:105550000000007F494949410000007F0909090115
:105560000000003E414151720000007F0808087FA2
:10557000000000417F4100000000002040413F0149
:105580000000007F081422410000007F404040409E
:105590000000007F020C027F0000007F0408107FE3
:1055A0000000003E4141413E0000007F090909061C
:1055B0000000003E4151215E0000007F091929468C
:1055C000000000264949493200000001017F010125
:1055D0000000003F4040403F0000001F2040201FCF
:1055E0000000003F4038403F00000063140814638F
:1055F00000000003047804030000006151494543A2
:105600000000007F4141000000000002040810205B
:1056100000000041417F000000000004020102047C
:1056200000000080808080800000000102040000F3
:1056300000000020545454780000007F484444384F
:105640000000003844442800000000384444487FEB
:105650000000003854545418000000087E0902006D
:1056600000000018A4A4A47C0000007F08040478B3
:10567000000000007D00000000000080847D00002C
:105680000000007F10284400000000417F4000001F
:105690000000007C041804780000007C08047C00F2
:1056A0000000003844443800000000FC24241800A6
:1056B000000000182424FC00000000007C08040006
:1056C0000000004854542400000000047F440000FF
:1056D0000000003C40407C000000001C2040201CDA
:1056E0000000003C4030403C0000004428102844AA
:1056F0000000001CA0A07C000000004464544C4446
:105700000000000836410000000000007F0000009B
:105710000000004136080000000000020101020103
:10572000000000020505020000000000000000006B
:105730000000000079040A0899040A082C00257367
:105740007B226D223A22253032783A253032783A5F
:10575000253032783A253032783A253032783A2579
:10576000303278222C2273223A25642C2263223A8A
:1057700025647D0041542654007B2277223A7B2207
:1057800061223A007075626C6973684C6F63617472
:10579000696F6E007363616E446174613D257300CF
:1057A000686F6F6B2D726573706F6E73652F2573E5
:1057B0002F2573000000000000000000A30C0A0861
:1057C000A90C0A08ED0C0A08B70C0A08A50C0A086F
:1057D0000000000000000000A1120A08EB120A08F5
:1057E000C3120A08A3120A08CB120A08D3120A0825
:1057F000DB120A08E3120A080000000000000000A3
:1058000055130A0845130A0847130A0862617564AC
:105810000053657269616C0055534253657269614A
:105820006C31007479706500706172616D00636D38
:105830006400696400686E64007374726D00666968
:105840006C74006C766C0061646448616E646C65B5
:10585000720072656D6F766548616E646C6572008A
:10586000656E756D48616E646C657273004A534F66
:105870004E53747265616D4C6F6748616E646C6500
:10588000720061707000253031307520005D20009D
:105890002564002C200028293A2000205B00636F3B
:1058A0006465203D200025690064657461696C733E
:1058B000203D20000D0A006C6E00666E00636F6470
:1058C000650064657461696C006E6F6E650074726A
:1058D00061636500696E666F007761726E00657264
:1058E000726F720070616E696300616C6C00000021
:1058F00000000000000000001D140A0827140A0818
:1059000031140A083B140A0845140A0851140A08FD
:105910005D140A0869140A0871140A087B140A083D
:1059200085140A08252B3033643A2530327500255A
:10593000592D256D2D25645425483A254D3A25537A
:10594000257A0061736374696D65000000000000D2
:1059500000000000C5180A0815190A0823190A08CA
:10596000E9140A08D9180A08FB180A08E7180A08EF
:105970000F190A08C7180A08CB180A080000000007
:1059800000000000C5190A08151A0A08231A0A0897
:10599000E9140A08011A0A08C7190A08DD190A08D1
:1059A0000F1A0A08F3190A08C1190A0800000000B2
:1059B00000000000071C0A08FD1B0A08F31B0A0868
:1059C000651B0A08E71B0A08DB1B0A08CF1B0A082D
:1059D000C71B0A08BD1B0A08B31B0A086F1B0A086D
:1059E00000002020202020202020202828282828CF
:1059F00020202020202020202020202020202020A7
:105A000020208810101010101010101010101010FE
:105A100010100404040404040404040410101010FE
:105A200010101041414141414101010101010101B9
:105A30000101010101010101010101010110101029
:105A4000101010424242424242020202020202028C
:105A500002020202020202020202020202101010FC
:105A60001020000000000000000000000000000006
:105A70000000000000000000000000000000000026
:105A80000000000000000000000000000000000016
:105A90000000000000000000000000000000000006
:105AA00000000000000000000000000000000000F6
:105AB00000000000000000000000000000000000E6
:105AC00000000000000000000000000000000000D6
:105AD00000000000000000000000000000000000C6
