:02000002D0002C
:1040000000400D002CB00D00000006000D00050161
:084010000401E70500000000B7
:04401800F8A00D00FF
:1040200009480A49884208B505D0094A824202D0A7
:10403000121A03F0F9FD0748074A0021121A03F08B
:10404000FEFD014808BD00BF08E1032014AF0D00CC
:10405000F8E10320F8E10320F0E7032070B502F057
:104060000FFE074C074BE41AA40800251E46A54284
:1040700004D056F8253098470135F8E770BD00BFE9
:1040800008AF0D00C4AE0D0000F016B808B500F082
:104090007FF8BDE8084002F0B5BD01F099BB01F022
:1040A0009FBB01F09DBB0078B0FA80F040097047DB
:1040B000012303707047704710B502F05FFD184C84
:1040C0004FF4165102F04EFD02F020FE01F0D0FF39
:1040D000204600F02BFD204600F094FD204600F025
:1040E000F8FD204600F037FD00222046022100F0B6
:1040F0003FFD20460B4C0C4900F0A6FD0B49204625
:1041000000F0EEFE0A49204601F006F91E2100F0FB
:10411000DDFEB1EE0C0ABDE8104002F0EFBB00BFBF
:1041200049E20320FCE103200CA10D0015A10D00C4
:10413000B7400D0070B502F01EFC02F023FC104EDB
:10414000104C306002F026FC0F4D2860204600F035
:10415000C0FD204600F0FFFC05222046042100F0AF
:1041600007FD3168204600F07CFD2046074900F03D
:104170006BFD29682046BDE8704000F072BD00BFAD
:1041800044E2032049E2032040E2032090A20D0014
:1041900008B5034801F072F8BDE80840FFF7CABF50
:1041A000FCE1032010B5064C01F066F9204600F052
:1041B00067FE2046034A0449BDE8104002F0CCBD2A
:1041C000FCE10320F8E10320014D0D0030B41C4652
:1041D0001B681D681346AC460A460146204630BCA3
:1041E00060470EB400B58CB00DAA202352F8041B12
:1041F00003928DE8060004930168002304AA1E20A0
:10420000059301F011FA0CB05DF804EB03B07047B0
:1042100070B58CB00C4604A84B4915461E4602F0FA
:104220000CFAB4F5101F35D013DCB4F5901F28D06C
:1042300005DC24B3B4F5881F36D1444922E0B4F537
:10424000081F23D0B4F50C1F22D0B4F5041F2BD1C6
:1042500017E0B4F5401F21D007DCB4F5141F1BD0C4
:10426000B4F5181F20D13A490CE0B4F5A00F17D0CF
:10427000B4F5C00F16D0B4F5800F15D110E0354954
:1042800000E0354904A802F02AFA19E03349F9E7B9
:104290003349F7E73349F5E73349F3E73349F1E7C2
:1042A0003349EFE73349EDE72246334908A802F0E6
:1042B00085FA08A904A802F00AFA08A802F076F91B
:1042C0003346049A2D492E48FFF78BFF1E4908A854
:1042D00002F0B3F92C46631B9E4227DD14F8013B24
:1042E0000A2B0CD1274908A802F021FA0899244882
:1042F000FFF777FF144908A802F0F1F9EBE70D2B5F
:1043000001D1214909E0A3F120025E2A09D90A213D
:104310001E4A01A801F08CFA01A908A802F007FAC8
:10432000D9E7194608A802F011FAD4E70A9B1BB195
:1043300008991348FFF755FF08A802F037F904A8B9
:1043400002F034F90CB070BD04A50D003DA10D00C4
:1043500086A10D0030A10D0045A10D0050A10D005A
:104360005DA10D006CA10D007CA10D0094A10D00BC
:10437000A0A10D00AAA10D00B7A10D00C1A10D00C3
:1043800098E30320E2A10D00E5A10D00E8A10D00D6
:104390002DE9F8430F4606461449904602F04DF9C0
:1043A000796A304602F020F900252C4607F11C09F5
:1043B0007B6A9D4216D22946484602F0FCF9222823
:1043C000014607D184F00103DBB244B1B8F1000F1C
:1043D00005D007E014B1304602F0B8F923460135A4
:1043E0001C46E5E73046BDE8F88300BF04A50D0094
:1043F00038B56FF002034360084D00230372084B89
:104400000446294640F80C3B02F017F9294604F10E
:104410001C0002F012F9204638BD00BF04A50D00B3
:104420002CA50D0010B5064B044640F81C3B02F0CD
:10443000BDF804F10C0002F0B9F8204610BD00BF31
:104440002CA50D0070B5044615460E46FFF7D0FFAB
:10445000084B23604FF6FF73E362FF2323630022C0
:1044600063654FF0FF3384F84820A665E565236651
:10447000204670BD20A50D000368B3F57A7F0CDAE5
:1044800069B9037FC0680BB1064B01E04FF6FE73BC
:104490009842CCBF002001207047002070470120C7
:1044A000704700BFFEFFFF0FF0B5054685B0084618
:1044B0000F46144603F02FFC0F2801D8002603E016
:1044C00023463A465949ABE0B85D28B104F0DAFB1F
:1044D0000DF806000136F7E704AB1E44544906F810
:1044E000100C684603F0EAFB40B95249204603F03D
:1044F00042FC003018BF0120287794E04E496846FE
:1045000003F0DCFB20B9204603F07FFA28608AE044
:104510004A49684603F0D2FB20B9204603F075FAF9
:10452000686080E04649684603F0C8FB014628B948
:104530001022204604F014FBA86074E0414968464C
:1045400003F0BCFB014628B91022204604F008FB0A
:10455000E86068E03C49684603F0B0FB014628B9D2
:104560001022204604F0FCFA28615CE037496846D6
:1045700003F0A4FB20B9204603F047FA686152E03B
:104580003349684603F09AFB00284CD0314968460D
:1045900003F094FB002846D02F49684603F08EFBB9
:1045A000002840D02D49684603F088FB014628B911
:1045B0001022204604F0D4FAA86134E02849684665
:1045C00003F07CFB20B9204603F01FFA28622AE0A2
:1045D0002449684603F072FB30B9204603F015FA0F
:1045E000012368622B771EE01F49684603F066FBD3
:1045F00020B9204603F009FAA86214E01B49684676
:1046000003F05CFB78B11A49684603F057FB50B1E0
:104610001849684603F052FB28B1174923463A4629
:104620001648FFF7DEFD05B0F0BD00BFF5A10D0097
:1046300012A20D0016A20D001BA20D001FA20D005C
:1046400023A20D0027A20D002AA20D002FA20D000B
:1046500035A20D003FA20D0048A20D004EA20D0094
:1046600054A20D0058A20D005CA20D0065A20D0021
:1046700069A20D006CA20D0075A20D0098E3032045
:10468000F7B50646084603F02BFB01AA104905467C
:1046900004F0DDF90027B0B1044601302378202B67
:1046A000FAD03A21204603F0FBFA30B10246214607
:1046B00002F8017B3046FFF7F7FE01AA044900200B
:1046C00004F0C5F9E7E7284601F08AF803B0F0BD29
:1046D0008BA80D002DE9F043067A8BB005460F46F6
:1046E00091461C460EB1FFF793FD37F4800855D173
:1046F000601C01F06DF8064600284FD0224649465E
:1047000003F026FB06F80480274AEB68202102A864
:1047100001F08EF82549804601AA304604F097F949
:104720000446002837D003788BB3B7F5800F05D146
:10473000424602A903F0F7FA00B9444404221C4996
:10474000204603F0F0FAB8B92B6E002B08DA2146A8
:1047500005F12C00FFF794FF2B6E01332B6616E05A
:10476000AA6DA2B1E96D8B4211D2591C2C20296689
:1047700000FB0320214608E004220E49204603F0F6
:10478000D2FA20B9214605F12C00FFF779FF01AAE2
:1047900006490020C2E7304601F022F84FF0FF3012
:1047A0000BB0BDE8F08300BF12A50D0002A50D00FF
:1047B0008DA20D0092A20D0070B5046E002C0FDBCF
:1047C000856D5DB100222C26A24207D0002106FB98
:1047D0000250FFF751FE28B10132F5E7204670BDC7
:1047E000002070BD104670BD2DE9F04100F1340687
:1047F00086B000F1380700F13C088DE8C00100F1F7
:10480000300504462B4605AA0B49C06901F000F8A3
:10481000052803D1012384F82C3009E08DE88001BC
:1048200033462A460549E06900F0F2FF0428F1D03A
:1048300006B0BDE8F08100BF9AA30D009DA30D0056
:1048400010B56FF00203436000230372044B054967
:10485000044640F80C3B01F0F0FE204610BD00BFBE
:104860002CA10D0004A50D0010B5044B044640F822
:104870000C3B01F09BFE204610BD00BF2CA10D009B
:1048800010B588B0044601A8FFF7DAFF084B0948C5
:1048900042F2107201A900F095FD04A9204601F032
:1048A0000BFF01A8FFF7E0FF204608B010BD00BFD6
:1048B000CDA30D00CD410D0010B588B0014668466E
:1048C000FFF7DEFF094904A801F0B7FE04A9684616
:1048D00001F05FFF044604A801F068FE684601F09D
:1048E00065FE201C18BF012008B010BD0BA40D00F0
:1048F00030B5144993B01546044601F09EFE07A852
:10490000FFF776FD10490AA801F0E9FE00950F4B6C
:104910000F4842F2107207A900F054FD02300BD18B
:10492000012207A903A8FFF733FD03A9204601F0E0
:10493000CEFE03A801F03AFE07A8FFF773FD20465C
:1049400013B030BD04A50D0013A40D0019A40D0073
:10495000CD410D0037B514460D4602F10C00074954
:1049600001F0BDFE0095064B064842F2107221464A
:1049700000F028FD606003B030BD00BF73A40D00DF
:1049800078A40D00CD410D0010B50C460021124B4E
:1049900042F21072084600F015FD02301AD10F499C
:1049A00004F10C0001F09BFE0D4B0E4842F2107218
:1049B000214600F007FD606002300BD12046FFF772
:1049C00013FF0021084B42F210720846BDE8104068
:1049D00000F0F8BC10BD00BFB3A40D00BFA40D00D3
:1049E000C4A40D00CD410D00CFA40D002DE9F04170
:1049F0000D461F46591CAB689DF81880194428467F
:104A0000164601F0F1FD3446A31B9F420DDDB8F1BF
:104A1000000F04D023780D2B05D00A2B03D021786A
:104A2000284601F093FE0134EEE7BDE8F081000076
:104A3000F7B590F808E004460F4615461E46BEF14D
:104A4000000F01D0FFF7E4FB47B9012300932A468A
:104A5000334604F10C010348FFF7C8FF4FF0FF3065
:104A600003B0F0BD48E20320F0B590F808E08BB049
:104A700006460D4617461C46BEF1000F01D0FFF753
:104A8000C7FBB5F5800F2AD1601C00F0A1FE0546DA
:104A900028B32246394603F05BF900232B55124A0E
:104AA000F368202102A800F0C3FE02A9284603F003
:104AB00062F9044680B102A803F02DF904440D21E7
:104AC000204603F0EDF8012300932246031B06F174
:104AD0001C010648FFF78AFF284600F081FE4FF0D0
:104AE000FF300BB0F0BD00BF11A50D0048E2032060
:104AF00000F0C2BC0368C9B29B68184710B50C46E9
:104B000002F004F93C2101F0BDFA02F0FFF8802127
:104B1000FFF7F0FF02F0FAF8036821469B68984718
:104B200002F0F4F8BDE8104001F0B3BA10B5AE21C0
:104B30000446FFF7E3FF052000F09AFEAF21204670
:104B4000FFF7DCFF052000F093FE2046A621BDE81C
:104B50001040FFF7D3BF10B5012304460370202196
:104B6000FFF7CCFF20460221BDE81040FFF7C6BF8B
:104B700038B550391446C9B20546FFF7BFFFE1000A
:104B8000284601F00801FFF7B9FFC4F343012846A6
:104B90001031BDE83840FFF7B1BF10B50C4602F048
:104BA000B5F83C2101F06EFA02F0B0F84021FFF7B1
:104BB000A1FF02F0ABF8036821469B68984702F01A
:104BC000A5F8BDE8104001F064BA0000A1F120038F
:104BD0005F2B0B4B88BF202170B56FF4807203EB05
:104BE000C10503EBC10306461544A3F1F90415F80A
:104BF000011F3046FFF7D1FFA542F8D170BD00BFBD
:104C000030A50D0070B5AE210546FFF777FF0026F1
:104C10000022F1B22846FFF7ABFF102420212846DE
:104C2000013CFFF7D3FF14F0FF04F7D10136082E43
:104C3000EED12846AF21FFF761FF224621462846E4
:104C4000BDE87040FFF794BF70B505460E460024DE
:104C5000E3B20134F15C19B12846FFF7B7FFF7E77B
:104C600070BDF0B585B000230E1E07460193029378
:104C7000ADF80C3007DA2D21FFF7A8FF76420123AB
:104C800000240A2105E0FBD13021FFF79FFF01201E
:104C90001DE004AA651C1444EDB296FBF1F201FB81
:104CA000126604F80C6C2C461646002AF1D12B44EF
:104CB000DCB25DB104AB2B44384613F80D1C303127
:104CC000C9B2013DFFF782FFEDB2F2E7204605B021
:104CD000F0BDA621FFF712BF00F0CEBB30B40368D1
:104CE000126858689C681B68096810F0010F4FEA49
:104CF000600018BF2558204418BFEB5830BC184737
:104D000010B5064B044640F82C3B01F04FFC04F173
:104D10000C0001F04BFC204610BD00BF50A80D0058
:104D200010B50446FFF7ECFF2046442102F019F8C5
:104D3000204610BD7FB5174E174D184A04463068FF
:104D4000636810F8011C039323680293A36801931E
:104D5000E3680093124B2D1A5B2918BF1346114AC2
:104D6000294600F065FD854212D3A26882B14FF654
:104D7000FF739A420CD022689A4209D062689A4224
:104D800006D03368084A1844136830600133136052
:104D900004B070BD54E303204DE303208BA80D0045
:104DA00004A50D0058A80D004CE203202DE9F043A6
:104DB000436A85B00446002B37D0104602F090FFBE
:104DC00003AA1B49054603F042FE58B302F01AFE3F
:104DD00003AA1749002057EC106B03F038FE08B304
:104DE00002F010FE03AA1249002059EC108B03F0C8
:104DF0002EFEB8B102F006FE51EC100B02F0B2FD2F
:104E000049460190404602F0ADFD394600903046DB
:104E100002F0A8FD636A9DED011ADDED000A00EEC7
:104E2000100A9847284600F0DBFC05B0BDE8F08387
:104E30008BA80D00022A38B5044605D0032A0FD0EE
:104E4000012A11D10B6809E00C200D68FFF725F944
:104E5000034618B195E8070083E80700236003E0E4
:104E60000C21006801F07DFF002038BD10B583687B
:104E7000044613B1032201469847204610BD0000A6
:104E800038B50F4B0360002542F2107304464560AD
:104E900083600C490C3001F0D0FB4FF4FA53A3624D
:104EA000E56125626562084904F12C0001F0C5FB4B
:104EB0004FF49B73E3634FF4CD732364204638BDF6
:104EC00050A80D0015A10D0078A80D000223436025
:104ED000042998BF05214FF47A73594381607047C4
:104EE00010B504460C3001F0FAFB204610BD00005E
:104EF00070B5224C224923688AB000251D70092212
:104F000002A81026FFF7F4FC2946324606A802F054
:104F100096FE294606A8ADF8186000F05BFA054633
:104F200030BB029A17492068174E00F069FC2368CD
:104F300016490344184602F0CBFEBDF8202001922A
:104F4000BDF81E20BDF8223000920530099A1049A4
:104F5000206000F055FC3268216801320B18326085
:104F60005D220A547D225A709A701A1D2260DD70EB
:104F700002A801F01BFB07480AB070BD54E30320F0
:104F800048E203207DA80D004CE203208DA80D000F
:104F90005AA80D0051E20320F0B593B012AE2D4D8A
:104FA00046F8405D00246FF0020307462A49039348
:104FB00005A88DF8104001F040FB274909A801F031
:104FC0003CFB264B02938DF834400E944FF6FF7352
:104FD0001194234C0F9331464FF0FF332148109327
:104FE000FFF7D2FCFA6A20492068204E00F008FC46
:104FF00023681F490344184602F06AFE9DF83430C6
:105000000530206073B13B6C0193FB6B0093109AE9
:105010000F9B184900F0F4FB2368184433682060A4
:105020000133336023685D221A707D225A709A70B2
:105030001A1D22600022DA7033680BB90E4A137011
:1050400009A8029501F0B2FA05A801F0AFFA0A48E2
:1050500013B0F0BD2CA50D0004A50D0038A80D005F
:1050600054E3032048E203207DA80D004CE2032016
:105070008DA80D005AA80D0051E2032070B5054619
:10508000CAB03948FFF718FC044618B12846FFF7A4
:1050900083FF66E004221EA905A8FFF7D3F9334B6E
:1050A000059355A929AB4FF6FF70FF2243F82C0C4E
:1050B00043F8282C03F8104C43F8042C2C338B4273
:1050C000F4D105AA05212848FFF744FC069B0233CA
:1050D00004D005AA03212448FFF73CFC244C2249B4
:1050E0002568092201A8FFF703FC019A21492846F7
:1050F00000F086FB23681844206001A801F056FAEE
:1051000023681D49184602F0E3FD0346053310A845
:105110002360FFF70FFE00252C2605A8FFF74CFBA8
:10512000A84206D91B9806FB0500FFF703FE0135D0
:10513000F3E723685D221A707D225A709A701A1D57
:1051400022600022DA700D4B1B680BB90C4A1370F9
:105150000C4B05930CA801F029FA08A801F026FAD7
:1051600007484AB070BD00BF48E2032044A80D00C4
:1051700054E303207DA80D008DA80D004CE2032010
:1051800051E203202CA50D00174B184A30B51A60C8
:10519000174B184D00221A60174B1A7889B0044635
:1051A000BAB9012215491A706846FFF769FB14491C
:1051B00004A801F042FA04A9684601F0EAFAB0FA3C
:1051C00080F04009287004A801F0F0F9684601F069
:1051D000EDF92B78204613B1FFF78AFE01E0FFF7C7
:1051E0004DFF09B030BD00BF54E3032051E203205E
:1051F0004CE2032051E3032058E3032048E203205C
:1052000093A80D0030B585B0054601F0B7FC1849EC
:1052100001F053F92846FFF7B7FF044601F0AEFC52
:105220002346144A012101F072F92378F3B100F00A
:105230004FFAD8B1104BE9681B788DF80030224640
:105240003C2302A800F016FD039C7CB16368013B7F
:1052500063605BB9236820469B689847A368013B5D
:10526000A3601BB923682046DB68984705B030BDB2
:105270009DA80D00ADA80D0050E2032010B5036AF3
:10528000022B04460BD0032B23D0002B34D100F08B
:105290001FFA88B30223236200F0D6F817E000F06B
:1052A000D3F8E369C01AA36A984225D36368012B37
:1052B00003D12046FFF7A6FF00E013B904232362C1
:1052C00010BD0323236200F0BFF8A368C01AE06199
:1052D00010BD00F0FDF970B100F0B6F8E369C01A36
:1052E000A368984208D300F0AFF8E0612046BDE81B
:1052F0001040FFF787BF206210BD38B500238360E0
:105300008B6804460D462BB102229847EB68E36098
:10531000AB68A360204638BD30B58BB0C56841622C
:10532000044606A800F0DCF9069B00931B4A1C48C3
:105330002B464FF4807100F07BFA06A801F036F995
:1053400000250C200495FEF7A8FE18B1154B8460CB
:1053500080E82800144B0290059302A9134B049394
:1053600006A8FFF7CAFF089B7BB11020FEF795FE49
:10537000054650B106A9FFF7C0FF00230193009333
:105380002A460B49064800F0BBF906A8FFF76EFD58
:1053900002A8FFF76BFD20460BB030BDB9A80D0089
:1053A00051E20320AD4D0D00DD4C0D00354E0D00DA
:1053B000455A0D00024B01221A7000F05DB800BF83
:1053C00050E2032008B5024B1B689B6C019308BD9B
:1053D0007402030008B5034B1B68D3F894300193A3
:1053E00008BD00007402030008B5024B1B689B68EF
:1053F000019308BD4802030008B5024B1B681B69F6
:10540000019308BD4802030008B5024B1B685B69A5
:10541000019308BD4802030008B5024B1B685B6C92
:10542000019308BD4802030008B5024B1B689B6C42
:10543000019308BD4802030008B5024B1B685B6876
:10544000019308BD1802030008B5024B1B685B6995
:10545000019308BD1802030008B5024B1B68DB6905
:10546000019308BD1802030008B5024B1B689B6D31
:10547000019308BD1802030008B5024B1B681B68A6
:10548000019308BD2C02030008B5024B1B68DB68C2
:10549000019308BD2802030008B5024B1B689B69F5
:1054A000019308BD2802030008B5024B1B68DB69A5
:1054B000019308BD2802030008B5024B1B681B6A54
:1054C000019308BD2802030008B5024B1B685B6A04
:1054D000019308BD2802030008B5024B1B689B6AB4
:1054E000019308BD2802030008B5024B1B68DB6A64
:1054F000019308BD2802030008B5024B1B681B6B13
:10550000019308BD2802030008B5024B1B681B6C01
:10551000019308BD2802030008B5024B1B685B69B4
:10552000019308BD6402030008B5024B1B689B6829
:10553000019308BD6802030008B5024B1B68DB68D5
:10554000019308BD6802030008B5024B1B681B6885
:10555000019308BD3C02030008B5024B1B68DB68E1
:10556000019308BD3C02030008B5024B1B681B6990
:10557000019308BD3C02030008B5024B1B685B6940
:10558000019308BD3C02030008B5024B1B689B69F0
:10559000019308BD3C02030008B5024B1B68DB69A0
:1055A000019308BD3C02030008B5024B1B689B6ACF
:1055B000019308BD3C02030008B5024B1B681B6841
:1055C000019308BD4C02030008B5024B1B685B68E1
:1055D000019308BD4C02030008B5024B1B681B6910
:1055E000019308BD4C02030008B5024B1B685B69C0
:1055F000019308BD4C02030008B5024B1B689B6970
:10560000019308BD4C02030008B5024B1B68DB691F
:10561000019308BD4C02030008B5024B1B681B6ACE
:10562000019308BD4C02030008B5024B1B685B6D7B
:10563000019308BD6002030008B5024B1B681B689C
:10564000019308BD2002030008B5024B1B685B688C
:10565000019308BD2002030008B5024B1B685B697B
:10566000019308BD2002030008B5024B1B68DB6CE8
:10567000019308BD2002030008B5024B1B685B6D57
:10568000019308BD2002030008B5024B1B689B6D07
:10569000019308BD2002030008B5034B1B68D3F833
:1056A0008830019308BD00002002030008B5034BB9
:1056B0001B68D3F89430019308BD0000200203005A
:1056C00008B5024B1B689B68019308BD44020300A8
:1056D00008B5024B1B685B69019308BD44020300D7
:1056E00008B5024B1B68DB69019308BD4402030047
:1056F00008B5024B1B681B6A019308BD44020300F6
:1057000008B5024B1B685B6A019308BD44020300A5
:1057100008B5024B1B681B6B019308BD44020300D4
:1057200008B5024B1B68DB6B019308BD4402030004
:1057300008B5024B1B685B68019308BD400203007B
:1057400008B5024B1B689B68019308BD400203002B
:1057500008B5024B1B68DB68019308BD40020300DB
:1057600008B5024B1B681B69019308BD400203008A
:1057700008B5024B1B685B69019308BD400203003A
:1057800008B5024B1B689B69019308BD40020300EA
:1057900008B5024B1B68DB69019308BD400203009A
:1057A00008B5024B1B681B6A019308BD4002030049
:1057B00008B5024B1B681B6B019308BD4002030038
:1057C00008B5024B1B685B6B019308BD40020300E8
:1057D00008B5024B1B681B68019308BD1C0203003F
:1057E00008B5024B1B685B68019308BD1C020300EF
:1057F00008B5024B1B689B68019308BD1C0203009F
:1058000008B5024B1B68DB68019308BD1C0203004E
:1058100008B5024B1B685B69019308BD1C020300BD
:1058200008B5024B1B689B69019308BD1C0203006D
:1058300008B5024B1B68DB69019308BD1C0203001D
:1058400008B5024B1B685B6A019308BD1C0203008C
:1058500008B5024B1B68DB6A019308BD1C020300FC
:1058600008B5024B1B681B6B019308BD1C020300AB
:105870000021FFF7F1BE10B5836804460BB901F0B3
:105880008CFAC3689847A3681BB1032221462046BF
:10589000984720461021BDE8104001F062BA10B5CB
:1058A0000446006808B1FFF7BFFD204610BD10B5E3
:1058B000036804469B689847A368013BA3602BB923
:1058C00023682046DB68BDE81040184710BD0B6810
:1058D000036013B15A6801325A60704710B504462C
:1058E000006828B14368013B43600BB9FFF7DFFF55
:1058F000204610BD10B5064C002320462360FFF75C
:105900008BFD2046034A0449BDE8104001F024BA4B
:105910005CE30320F8E103209F580D0000221146AC
:105920004068FFF71DBF002211464068FFF738BFEF
:10593000002211464068FFF743BF00224068FFF78E
:1059400037BF002281F001014068FFF721BF00232B
:105950001A4619464068FFF713BF00231A46194636
:105960004068FFF705BF002211464068FFF7E8BE18
:10597000002202214068FFF7EBBE00231A46406870
:10598000FFF7D6BE38B5084C28252A460021204608
:1059900002F055F94FF0FF336360044B2580042279
:1059A0005A60034A1A6038BD68E3032060E30320AD
:1059B000D8A80D0070470020704710B5102104468C
:1059C00001F0CFF9204610BD08B508B1FFF7F5FF8B
:1059D00008BD0022026010B54FF69C728280B1F9BA
:1059E000044084808A8002680C6804600A6010BDEC
:1059F00010B504460068FFF7F3FE204610BD38B529
:105A0000C468F4B12378022B03D104F10C00FFF732
:105A1000EFFF656835B12846FFF728FA10212846C0
:105A200001F09FF9A56835B12846FFF71FFA10214C
:105A3000284601F096F920461421BDE8384001F0CF
:105A400090B938BD07B58DE8060082680AB901F043
:105A5000A4F9C36801AA6946984703B05DF804FB3E
:105A600013B5044691E8050000234B600B602060ED
:105A7000626001A801930093FFF730FF204602B057
:105A800010BDF7B50C4602AD54F8043B45F8083D8F
:105A900006460F4601A82146FFF719FF2946304662
:105AA000FFF7DEFF01A8FFF719FF2046FFF716FFFB
:105AB0003846082101F055F9304603B0F0BD13B562
:105AC0000B46044603C88DE8030093E8030084E80E
:105AD00003009DE8030083E8030002B010BD00004E
:105AE00038B500230446036010200D46FEF7D5FAB2
:105AF00028B1012343608360024B0360C5602060CE
:105B0000204638BD0CA90D00826810B50AB901F015
:105B100044F9C368BDE81040184708B5006800F1B3
:105B20001001FFF7F1FF08BD826810B50AB901F056
:105B300034F9C368BDE81040184708B5006800F1A3
:105B40001001FFF7F1FF08BD38B5002383608B68B3
:105B500004460D462BB102229847EB68E360AB6820
:105B6000A360204638BD0000F0B589B004686846DF
:105B7000FFF72FFF00238DF808304FF00202D4E822
:105B80004F3F002B03D1C4E8412F0029F7D102D0A9
:105B90008DF8083063E014F10C0503D069462846FF
:105BA000FFF717FFBFF35F8F01236370002004F13D
:105BB0000803BFF35F8F53E8006F43E80002002A39
:105BC000F9D1BFF35F8F002E49D0FFF74DFD20B113
:105BD00029463046FFF798FF3AE0314602A8FFF722
:105BE000B3FFE068B4F9105008B102F079F80690FC
:105BF0001020ADF81C50FEF750FA0546E8B100271A
:105C000087601820FEF749FA044688B1014687608C
:105C100002A8FFF754FF049BA268A360059B0492AF
:105C200006A9E268E36004F110000592FFF7D1FED7
:105C30000D4BEB600D4B2C60AB6006A8FFF7D8FE58
:105C400002A8FFF713F9002229460948FFF714FDBF
:105C50003046FFF70BF91021304601F082F8684614
:105C6000FFF7C6FE09B0F0BD1B5B0D00915D0D0096
:105C700077580D002DE9F04F8BB006460F46904641
:105C800099469DF850A0FFF723FD07AD834630BB32
:105C90004FF62E73059005A92846ADF81830FFF78A
:105CA00098FE1420FEF7F9F9044658B10223037058
:105CB00001234370C0F804B0C0F808B029460C3086
:105CC000FFF787FE3046214640F8044BFFF708FFF8
:105CD0002846FFF78DFE05A8FFF78AFE52E0002454
:105CE0000C2314206C60AC600793FEF7D6F90146D4
:105CF00018B1047044704460846004A80391FFF7F5
:105D0000EFFE224B08930820FEF7C7F9044628B19E
:105D1000039B40F8043B04A9FFF7D9FD00955FFA07
:105D20008AF34A46414638460994FFF7E1FC20B918
:105D3000039B5B7803F0FF0283B1039B059304A9E7
:105D400006A8FFF7C4FD05A93046FFF789FE06A89F
:105D5000FFF7C4FD04A8FFF7C1FD13E04FF69C73E5
:105D600005A903A80592ADF81830FFF7FDFE05A8B8
:105D7000FFF73EFE05A80999FFF783FE06A8FFF787
:105D8000ADFDDAE730460BB0BDE8F08F015F0D00E6
:105D9000022AF8B5044606D0032A17D0012A22D1D8
:105DA0000B6803601FE018200E68FEF776F90546C1
:105DB00050B13146FFF7C8FE3069B6F9147008B12A
:105DC00001F08EFF2861AF8225600CE0046854B1B9
:105DD00004F11000FFF70CFE2046FFF747F81821EA
:105DE000204600F0BEFF0020F8BD38B500238360D8
:105DF0008B6804460D462BB102229847EB68E3609E
:105E0000AB68A360204638BD022A70B5044606D0B0
:105E1000032A11D0012A18D10B68036015E0142061
:105E20000E68FEF73AF9054620B13146FFF7DDFF6F
:105E3000337C2B74256008E0046834B12046FFF7FA
:105E400015F81421204600F08CFF002070BD0000E2
:105E5000F0B5002387B00C46BFF35F8F50E8006FAA
:105E600040E80032002AF9D1BFF35F8F002E3FD007
:105E70001846FFF7F9FB074620B121463046FFF7E9
:105E800053FE2EE0314601A8FFF7AFFF23788DF8CF
:105E900014301020FEF701F90546D0B187601420B8
:105EA000FEF7FBF8044678B18760014601A8FFF7CA
:105EB00006FE039BA268A360049B0392E268E36072
:105EC0009DF81430049223740A4BEB600A4B2C604B
:105ED000AB6001A8FEF7CAFF002229460748FFF77A
:105EE000CBFB3046FEF7C2FF1021304600F039FFF1
:105EF00007B0F0BD3B5B0D00095E0D0077580D004B
:105F000030B585B004460D4668461146FFF7B9FD29
:105F10007CB124B228460DB101F0E2FE029002A944
:105F20006846ADF80C40FFF71FFE02A8FFF760FDC2
:105F30001DE000988DF808404FF00102D0E84F3F77
:105F4000A34203D1C0E8412F0029F7D102D08DF838
:105F500008300CE010F10C014FF0010318BF03737F
:105F6000BFF35F8F043000F8033CFFF771FF01A817
:105F7000FFF7B4FC05B030BD002211464068FFF7C2
:105F80000FBC002211464068FFF71ABC002240688F
:105F9000FFF70EBC002281F001014068FFF7F8BB5B
:105FA00000231A4619464068FFF7EABB00231A4649
:105FB00019464068FFF7DCBB002211464068FFF736
:105FC000CFBB002211464068FFF7BABB0022022176
:105FD0004068FFF7BDBB00231A464068FFF7A8BB27
:105FE000024B03225A60024A1A60704790E3032072
:105FF00028A90D007047F8B5064615460C468F18BF
:10600000BC4206D0336814F8011B9B6830469847A1
:10601000F6E72846F8BD0022007CFFF74DBA0021C4
:10602000007CFFF751BA0021007CFFF755BA002130
:10603000007CFFF759BA0021007CFFF75DBA10B56C
:106040001421044600F08DFE204610BD10B5044614
:10605000002363604FF47A73A360044B21740846F5
:1060600023601146FFF750FA204610BD5CA90D00D1
:1060700000231A461946007CFFF706BA0022007C6E
:10608000FFF70ABAC9B2FFF7F9BF0022007CFFF799
:106090000BBA0121FFF7F9BF704710B5182104466C
:1060A00000F05FFE204610BDF0B5037D062B8DB0DD
:1060B0000E4600F104074FF0000402D000F108057D
:1060C00018E00CAD394605F8304D2F232A460A203A
:1060D000FFF722FA284601F01EFE33680246DB680D
:1060E0002946304698470FE024B12E21304600F073
:1060F000D5F9044415F8011D0A22304600F0E7F9ED
:10610000BD420444F0D120460DB0F0BD10B5054BA2
:106110000446112240F8043B002101F090FD204686
:1061200010BD00BF84A90D000346074A10B543F80F
:10613000042B01F1100251F8044B43F8044B914237
:10614000F9D10A781A7010BD84A90D0010B59DF818
:10615000084044EA032343EA024242EA016104237D
:106160004160037510BD37B50D788B784A78C978D2
:1061700000912946FFF7EAFF03B030BD014B024A08
:106180001A60704798E3032003AA0D00002211460D
:106190004068FFF705BB002211464068FFF710BBBF
:1061A00000224068FFF704BB002281F00101406833
:1061B000FFF7EEBA00231A4601214068FFF7E0BA64
:1061C00000231A4619464068FFF7D2BA002211464A
:1061D0004068FFF7C5BA002211464068FFF7B0BA21
:1061E000002202214068FFF7B3BA00231A46406834
:1061F000FFF79EBA38B5054688B104684CB1A3686C
:106200001BB103222146204698471021204600F06A
:10621000A8FD28461421BDE8384000F0A2BD38BDD5
:1062200010B103685B681847704710B503680446EF
:10623000BBB15868FFF7D8F878B923685A7C12B90F
:106240005868FFF7D9F823685868FFF7DDF8206829
:106250000023236028B1FFF7CDFF206808B1FFF7C6
:10626000C9FF204610BD38B50446D0F8C40108B1B6
:10627000FDF717FFD4F8C00108B1FFF7D5F8D4F83F
:10628000BC5135B12846FFF7D0FF0421284600F065
:1062900068FD206808B1FFF7C3FF204638BD000045
:1062A00010B5044B044640F8083BFFF7DCFF2046DE
:1062B00010BD00BF74AA0D0038B50E4C0E4B236004
:1062C0000025022304F5E4706360A560C4F8C4519E
:1062D000C4F8C851FFF7A0F8084BC4F8CC5184F8B3
:1062E000D05123602046064A0649BDE8384000F0F8
:1062F00033BD00BF9CE30320A8AA0D0074AA0D00C3
:10630000F8E10320A1620D0000231A464068FFF760
:106310000FBA002202214068FFF71ABA0022114684
:106320004068FFF70DBA002211464068FFF718BA1F
:1063300000231A4619464068FFF71ABA00231A4686
:1063400019464068FFF71CBA002281F0010140683D
:10635000FFF71EBA00224068FFF72ABA0022114652
:106360004068FFF72DBA002211464068FFF718BABF
:106370002DE9F043002495B016460D460746FFF779
:10638000C5FE214620220CA8009401F058FC4023B1
:106390000C9321466B460CAA3046FFF7CDF8044615
:1063A000002844D1024601216868FFF7D9F902218B
:1063B000804622466868FFF7D3F9009E8146214651
:1063C000002E34D0002932D17368022B02D00A2B60
:1063D00009D02AE0B8F1000F27D07169384604319E
:1063E000FFF7C1FE20E0B9F1000F1ED07469112241
:1063F00001A801F024FC06238DF8143001AD04F14E
:1064000008031834186859682A4603C20833A3429F
:106410001546F7D101A906A807ADFFF785FE0FCDF8
:106420003C1D0FC42B6823700121F669C8E7009852
:10643000FFF77AF8384615B0BDE8F083024B034AFF
:106440001A6000225A60704770E50320A8AA0D0068
:10645000F8B506460D468F180024BD420CD03368AF
:1064600015F8011B9B6830469847002801DB04445F
:10647000F3E7002C08BF04462046F8BD70B505467A
:106480000C46084649B101F046FC2B6802462146FD
:106490002846DB68BDE87040184770BD03689B68FC
:1064A000184738B50D210546FFF7F8FF0A210446C5
:1064B0002846FFF7F3FF204438BD38B50546FFF7FF
:1064C000DDFF04462846FFF7ECFF204438BD30B519
:1064D0008BB00B4600218DF82410012A98BF0A22A8
:1064E0000DF12304B3FBF2F505FB123303F0FF03B8
:1064F000092B94BF30333733DBB2214604F801391E
:106500002B46002DEED1FFF7B9FF0BB030BD0CB418
:106510002DE9F04387B000AF07F13804054654F881
:10652000049B3C600E4623464A461421381DFFF763
:1065300087F9132805D8391D2846FFF79FFF044621
:1065400013E000F1080323F00703E846ADEB030D69
:10655000411C23464A4668463C60FFF771F969468C
:106560002846FFF78BFF0446C5461EB12846FFF7B5
:1065700098FF044420461C37BD46BDE8F04302B0F6
:10658000704710B50446FEF771FC204610BD0000B0
:106590000348044A04490023836000F0DDBB00BFC8
:1065A00078E50320F8E1032083650D0010B504466B
:1065B0000068FFF715F9204610BD10B504460068C5
:1065C00008B1FFF70DF900232360A360636010BDDD
:1065D00038B504460D4600680131FFF709F910B1DE
:1065E00084E82100012038BD10B50368044613B1CA
:1065F00043688B4207D22046FFF7EAFF20B1A36829
:106600000BB922681370012010BD70B50E461146FB
:1066100004461546FFF7E8FF18B92046FFF7CDFFFF
:1066200009E02A463146A560206801F0FDFA22689B
:10663000A3680021D154204670BD38B5002304461C
:1066400003604360836003730D4639B1084601F06F
:1066500062FB294602462046FFF7D7FF204638BD99
:1066600038B5054600680C4660B16A688B689A4286
:1066700006D3096801F02CFBA368AB6000230AE095
:10668000FFF7AEF823682B6063686B60A368AB60AC
:10669000002323606360A36038BD884210B50B46B9
:1066A000044607D0096819B19A68FFF7AEFF01E008
:1066B000FFF783FF204610BD10B50023044603609A
:1066C000436083600373FFF7E8FF204610BD8842F4
:1066D00010B5044601D0FFF7C3FF204610BD38B502
:1066E00005460C4641B1084601F015FB214602461D
:1066F0002846FFF78AFF01E0FFF75FFF284638BD15
:1067000070B504460E4609B9002070BD6AB18368B1
:10671000D5182946FFF768FF0028F5D02068A36840
:106720003146184401F0D4FAA560012070BD38B597
:1067300005460C46084641B101F0EDFA21460246F5
:106740002846BDE83840FFF7DBBF38BD07B500235A
:106750008DF80410012201A98DF80530FFF7D0FF54
:1067600003B05DF804FB10B5144683688A689B1A71
:10677000A3420AD3006858B1096841B1204401F02E
:10678000D2FAB0FA80F0400910BD002010BD0846D2
:1067900010BD82688B689A4202D30022FFF7E3BFE4
:1067A0000020704783688B4203D9006810B1405CB9
:1067B000704700207047FFF7F5BF00000EB4FFB52B
:1067C00009AC054654F8047B019423463A4605215A
:1067D00002A8FFF735F80C4906462846FFF72DFFBB
:1067E00031462846FFF700FF286830B123463A4675
:1067F000711C0194FFF724F8A860284604B0BDE896
:10680000F04003B0704700BF04A50D0010B504466A
:10681000006818B1FEF7E4FF0023236010BD10B537
:106820000446FFF7F3FF204610BD000010B5094CE9
:1068300000204FF6FF732060A080A071208163814B
:10684000FEF702FF2046044A0449BDE8104000F06C
:1068500083BA00BF88E50320F8E103201F680D001C
:10686000F0B5144B144F1E68144B064418683B686F
:1068700006449E428BB01BD00AA801AD40F8286D9B
:1068800001F0D6F8436903F26C73436104460FCC00
:106890000FC50FCC0FC5D4F800E0C5F800E001AD7E
:1068A0000FCD074C0FC40FCD0FC43E60C4F800E0FD
:1068B0000BB0F0BDC4E50320C0E50320BCE5032018
:1068C00094E5032008B50020FEF722FF28B1FEF76B
:1068D000FFFE80F00100C0B208BD012008BD00002D
:1068E00008B5FFF7BDFF044B986818B10C2802DD0E
:1068F0000C3808BD0C2008BD94E50320FAEE087A98
:10690000B4EEE70AF1EE10FA0FD4F2EE0C7AB4EE20
:10691000E70AF1EE10FA08DCDFED047A044B20EE12
:10692000270ABDEEC00A83ED000A704700006145EA
:10693000C4E5032010B50020FEF796FD044668B9B3
:10694000FEF77AFE01280BD12046FEF79DFE38B9EE
:10695000FFF7B8FF30B9FEF7B3FEF9E7012010BD2D
:10696000002010BDFFF7AEFF0020FEF77DFD0030D8
:1069700018BF012010BD08B5FFF7DCFFBDE80840D7
:10698000FEF76ABD08B5FFF7F6FFBDE80840FFF760
:10699000A7BF000008B5FFF7EEFFFFF761FF014B4F
:1069A000586808BD94E50320024B1A68024B1A6030
:1069B000704700BF08E10320B8E503207047417429
:1069C000704708B5007CFEF7EFFD20EAE07008BDD7
:1069D00008B5007CFEF7C8FD20EAE07008BD08B5E8
:1069E000007CFEF7D1FD30EA200028BF4FF0FF30D9
:1069F00008BD08B5007CFEF7BFFD30EA200028BFC7
:106A00004FF0FF3008BD007CFEF7C6BD10B5142165
:106A1000044600F0A6F9204610BD70B5457C04463A
:106A20000E4625B9007CFEF7BFFD002805DD314686
:106A3000207CBDE87040FEF78FBD284670BD000089
:106A400010B5044608461146002262604FF47A727F
:106A5000A260054A22600122207462741A46FEF781
:106A600073FD204610BD00BF04AB0D0038B50C4DC2
:106A7000296811F0010411D12846FDF714FB68B113
:106A8000084A094B09482146FFF7DAFF2846FDF777
:106A90000FFB074A0749054800F05EF9034838BD77
:106AA00060E6032064E60320DCE50320C8E503205C
:106AB000F8E10320BD690D0041747047704708B5C7
:106AC0000021007CFEF798FD30EA200028BF4FF03F
:106AD000FF3008BD08B50121007CFEF78DFD30EACE
:106AE000200028BF4FF0FF3008BD08B5007CFEF73E
:106AF0007BFD20EAE07008BD08B5007CFEF76CFD68
:106B000020EAE07008BD007CFEF786BD10B51421B8
:106B1000044600F026F9204610BD38B50446007C36
:106B20000D46FEF761FD002801DC607C28B1294696
:106B3000207CFEF769FD20EAE07038BD10B5044600
:106B4000002363604FF47A73A360054B2360012335
:106B50000846217463741146FEF72EFD204610BDD1
:106B600034AB0D000022007CFEF72EBD10B51422C0
:106B70000446002101F063F8204610BD30B50E4DEB
:106B800087B001A8FFF7F2FF296811F0010410D1C6
:106B90002846FDF788FA60B101AA21460748FFF7A9
:106BA000CDFF2846FDF784FA054A0649034800F060
:106BB000D3F8024807B030BDE8E60320ECE6032036
:106BC000F8E10320BD6A0D0008B50C4B33B1FFF7A7
:106BD000D5FF03681B699847002809DC084B63B19F
:106BE000FFF744FF03681B699847002803DC08BDD2
:106BF000AFF30080F2E7AFF3008008BD00000000B3
:106C00000000000008B5FFF7DFFFFEF71DFC014B99
:106C1000186008BD08E703200248034A0349121A16
:106C200001F002B800F4032004F4032010AF0D00BB
:106C300007B5002300931A466FF07701FEF736FD83
:106C400003B05DF804FB000007B543880A2B08D0A9
:106C5000502B09D1094B1B683BB103B05DF804EB25
:106C60001847FFF7E5FF06E0002300931A466FF090
:106C70007701FEF71BFD03B05DF804FB00E703207E
:106C800038B5104C104D2368AB42104B0CBF01229D
:106C900000221A7002D0FFF7BFFF2560FEF7CCFB81
:106CA000044600F0D5FF0A4B13B12046AFF3008035
:106CB00000210748FEF734FD00210648BDE83840B2
:106CC000FEF7EABC00F403201E1C279A04E7032009
:106CD00000000000496C0D0070B5044614252A46DA
:106CE000094E002100F0ABFF258020253146A5602C
:106CF0002561284600F04FF831466060284600F0D4
:106D00004AF8E060204670BD5CAB0D0030B50E4D1A
:106D1000296811F0010487B013D12846FDF7C3F9A3
:106D200078B101A8FFF7D8FF01AA21460748FFF76D
:106D30008DF92846FDF7BCF9054A0649034800F0DD
:106D40000BF8024807B030BD0CE7032010E7032022
:106D5000F8E10320F55F0D000B460146184600F0F0
:106D600059BEFDF79CB90000024B1868BFF35F8F56
:106D7000704700BF24E7032010B5002814BF044665
:106D800001242046FEF724FD20B9FFF7EDFF08B1EE
:106D90008047F6E710BDFFF7EFBF08B5FEF758FDD7
:106DA000244B1A68D0075CBF01221A60224B1A6874
:106DB000D1075CBF01221A60204B1A68D2075CBF62
:106DC00001221A601E4B1A68D0075CBF01221A60AC
:106DD0001C4B1A68D1075CBF01221A601A4B1A6853
:106DE000D2075CBF01221A60184B1A68D0075CBF3B
:106DF00001221A60164B1A68D1075CBF01221A6083
:106E0000144B1A68D2075CBF01221A60124B1A6831
:106E1000D0075CBF01221A60104B1A68D1075CBF13
:106E200001221A600E4B1A68D2075CBF01221A6059
:106E3000704700BF54E7032050E703204CE70320CE
:106E400048E7032044E7032040E703203CE7032012
:106E500038E7032034E7032030E703202CE7032042
:106E600028E70320184B1A68D1075CBF01221A607B
:106E7000164B1A68D2075CBF01221A60144B1A68BD
:106E8000D0075CBF01221A60124B1A68D1075CBFA1
:106E900001221A60104B1A68D2075CBF01221A60E7
:106EA0000E4B1A68D0075CBF01221A600C4B1A689F
:106EB000D1075CBF01221A600A4B1A68D2075CBF77
:106EC00001221A60704700BF74E7032070E70320B7
:106ED0006CE7032068E7032064E7032060E70320F2
:106EE0005CE7032058E70320184B1A68D1075CBF02
:106EF00001221A60164B1A68D2075CBF01221A6081
:106F0000144B1A68D0075CBF01221A60124B1A6832
:106F1000D1075CBF01221A60104B1A68D2075CBF10
:106F200001221A600E4B1A68D0075CBF01221A605A
:106F30000C4B1A68D1075CBF01221A600A4B1A6811
:106F4000D2075CBF01221A60704700BF94E703209C
:106F500090E703208CE7032088E7032084E70320E1
:106F600080E703207CE7032078E70320244B1A689E
:106F7000D0075CBF01221A60224B1A68D1075CBFA0
:106F800001221A60204B1A68D2075CBF01221A60E6
:106F90001E4B1A68D0075CBF01221A601C4B1A688E
:106FA000D1075CBF01221A601A4B1A68D2075CBF76
:106FB00001221A60184B1A68D0075CBF01221A60C0
:106FC000164B1A68D1075CBF01221A60144B1A686D
:106FD000D2075CBF01221A60124B1A68D0075CBF4F
:106FE00001221A60104B1A68D1075CBF01221A6097
:106FF0000E4B1A68D2075CBF01221A60704700BFAF
:10700000C4E70320C0E70320BCE70320B8E7032060
:10701000B4E70320B0E70320ACE70320A8E7032090
:10702000A4E70320A0E703209CE7032098E70320C0
:1070300081F0004102E000BF83F0004330B54FEA29
:1070400041044FEA430594EA050F08BF90EA020F96
:107050001FBF54EA000C55EA020C7FEA645C7FEA29
:10706000655C00F0E2804FEA5454D4EB5555B8BF4C
:107070006D420CDD2C4480EA020281EA030382EABD
:10708000000083EA010180EA020281EA0303362D4F
:1070900088BF30BD11F0004F4FEA01314FF4801C22
:1070A0004CEA113102D0404261EB410113F0004F34
:1070B0004FEA03334CEA133302D0524263EB4303EB
:1070C00094EA050F00F0A780A4F10104D5F1200E89
:1070D0000DDB02FA0EFC22FA05F2801841F10001E4
:1070E00003FA0EF2801843FA05F359410EE0A5F1B8
:1070F00020050EF1200E012A03FA0EFC28BF4CF0E9
:10710000020C43FA05F3C01851EBE37101F000459E
:1071100007D54FF0000EDCF1000C7EEB00006EEBAB
:107120000101B1F5801F1BD3B1F5001F0CD3490835
:107130005FEA30004FEA3C0C04F101044FEA44528C
:1071400012F5800F80F09A80BCF1004F08BF5FEA13
:10715000500C50F1000041EB045141EA050130BDF3
:107160005FEA4C0C404141EB010111F4801FA4F196
:107170000104E9D191F0000F04BF01460020B1FAEB
:1071800081F308BF2033A3F10B03B3F120020CDA23
:107190000C3208DD02F1140CC2F10C0201FA0CF001
:1071A00021FA02F10CE002F11402D8BFC2F1200C66
:1071B00001FA02F120FA0CFCDCBF41EA0C0190401C
:1071C000E41AA2BF01EB0451294330BD6FEA040465
:1071D0001F3C1CDA0C340EDC04F11404C4F1200250
:1071E00020FA04F001FA02F340EA030021FA04F362
:1071F00045EA030130BDC4F10C04C4F1200220FAB9
:1072000002F001FA04F340EA0300294630BD21FAF6
:1072100004F0294630BD94F0000F83F4801306BFBC
:1072200081F480110134013D4EE77FEA645C18BFB0
:107230007FEA655C29D094EA050F08BF90EA020F47
:1072400005D054EA000C04BF1946104630BD91EA3F
:10725000030F1EBF0021002030BD5FEA545C05D142
:107260004000494128BF41F0004130BD14F5800481
:107270003CBF01F5801130BD01F0004545F0FE41F5
:1072800041F470014FF0000030BD7FEA645C1ABF2A
:10729000194610467FEA655C1CBF0B46024650EA61
:1072A000013406BF52EA033591EA030F41F400218D
:1072B00030BD00BF90F0000F04BF0021704730B513
:1072C0004FF4806404F132044FF000054FF00001E8
:1072D00050E700BF90F0000F04BF0021704730B5A9
:1072E0004FF4806404F1320410F0004548BF40427E
:1072F0004FF000013EE700BF42004FEAE2014FEAD3
:1073000031014FEA02701FBF12F07F4393F07F4FAD
:1073100081F06051704792F0000F14BF93F07F4FDF
:10732000704730B54FF4607401F0004521F0004122
:1073300020E700BF50EA010208BF704730B54FF0A8
:1073400000050AE050EA010208BF704730B511F0AD
:10735000004502D5404261EB41014FF4806404F1E5
:1073600032045FEA915C3FF4DCAE4FF003025FEA67
:10737000DC0C18BF03325FEADC0C18BF033202EBEF
:10738000DC02C2F1200300FA03FC20FA02F001FA49
:1073900003FE40EA0E0021FA02F11444C1E600BFE8
:1073A00070B54FF0FF0C4CF4E06C1CEA11541DBF9B
:1073B0001CEA135594EA0C0F95EA0C0F00F0DEF866
:1073C0002C4481EA030621EA4C5123EA4C5350EA4B
:1073D000013518BF52EA033541F4801143F480139C
:1073E00038D0A0FB02CE4FF00005E1FB02E506F02D
:1073F0000042E0FB03E54FF00006E1FB03569CF082
:10740000000F18BF4EF0010EA4F1FF04B6F5007F87
:1074100064F5407404D25FEA4E0E6D4146EB0606F9
:1074200042EAC62141EA55514FEAC52040EA5E5082
:107430004FEACE2EB4F1FD0C88BFBCF5E06F1ED82C
:10744000BEF1004F08BF5FEA500E50F1000041EB63
:10745000045170BD06F0004646EA010140EA020010
:1074600081EA0301B4EB5C04C2BFD4EB0C0541EA32
:10747000045170BD41F480114FF0000E013C00F347
:10748000AB8014F1360FDEBF002001F0004170BD6B
:10749000C4F10004203C35DA0C341BDC04F1140484
:1074A000C4F1200500FA05F320FA04F001FA05F210
:1074B00040EA020001F0004221F0004110EBD370DD
:1074C00021FA04F642EB06015EEA430E08BF20EA09
:1074D000D37070BDC4F10C04C4F1200500FA04F3AC
:1074E00020FA05F001FA04F240EA020001F000413E
:1074F00010EBD37041F100015EEA430E08BF20EAB1
:10750000D37070BDC4F1200500FA05F24EEA020EF8
:1075100020FA04F301FA05F243EA020321FA04F027
:1075200001F0004121FA04F220EA020000EBD370DE
:107530005EEA430E08BF20EAD37070BD94F0000FDE
:107540000FD101F00046400041EB010111F4801F12
:1075500008BF013CF7D041EA060195F0000F18BFC3
:10756000704703F00046520043EB030313F4801FFF
:1075700008BF013DF7D043EA0603704794EA0C0FB9
:107580000CEA135518BF95EA0C0F0CD050EA4106CF
:1075900018BF52EA4306D1D181EA030101F000414C
:1075A0004FF0000070BD50EA410606BF1046194674
:1075B00052EA430619D094EA0C0F02D150EA013680
:1075C00013D195EA0C0F05D152EA03361CBF1046C1
:1075D00019460AD181EA030101F0004141F0FE4160
:1075E00041F470014FF0000070BD41F0FE4141F4E4
:1075F000780170BD70B54FF0FF0C4CF4E06C1CEAE4
:1076000011541DBF1CEA135594EA0C0F95EA0C0F98
:1076100000F0A7F8A4EB050481EA030E52EA033553
:107620004FEA013100F088804FEA03334FF0805574
:1076300045EA131343EA12634FEA022245EA1115A1
:1076400045EA10654FEA00260EF000419D4208BF52
:10765000964244F1FD0404F5407402D25B084FEAFF
:107660003202B61A65EB03055B084FEA32024FF4AB
:1076700080104FF4002CB6EB020E75EB030E22BF08
:10768000B61A754640EA0C005B084FEA3202B6EBC8
:10769000020E75EB030E22BFB61A754640EA5C0077
:1076A0005B084FEA3202B6EB020E75EB030E22BF07
:1076B000B61A754640EA9C005B084FEA3202B6EB08
:1076C000020E75EB030E22BFB61A754640EADC00C7
:1076D00055EA060E18D04FEA051545EA16754FEA29
:1076E00006164FEAC30343EA52734FEAC2025FEA47
:1076F0001C1CC0D111F4801F0BD141EA00014FF0D6
:1077000000004FF0004CB6E711F4801F04BF0143A6
:107710000020B4F1FD0C88BFBCF5E06F3FF6AFAEC2
:10772000B5EB030C04BFB6EB020C5FEA500C50F152
:10773000000041EB045170BD0EF0004E4EEA1131D5
:1077400014EB5C04C2BFD4EB0C0541EA045170BDDC
:1077500041F480114FF0000E013C90E645EA060E20
:107760008DE60CEA135594EA0C0F08BF95EA0C0F4E
:107770003FF43BAF94EA0C0F0AD150EA01347FF496
:1077800034AF95EA0C0F7FF425AF104619462CE76D
:1077900095EA0C0F06D152EA03353FF4FDAE1046D0
:1077A000194622E750EA410618BF52EA43067FF421
:1077B000C5AE50EA41047FF40DAF52EA43057FF4B1
:1077C000EBAE12E74FF0FF3C06E000BF4FF0010CBC
:1077D00002E000BF4FF0010C4DF804CD4FEA410C20
:1077E0007FEA6C5C4FEA430C18BF7FEA6C5C1BD0ED
:1077F00001B050EA410C0CBF52EA430C91EA030F6E
:1078000002BF90EA020F0020704710F1000F91EACA
:10781000030F58BF994208BF90422CBFD8176FEA98
:10782000E37040F0010070474FEA410C7FEA6C5C66
:1078300002D150EA013C07D14FEA430C7FEA6C5C6D
:10784000D6D152EA033CD3D05DF8040B704700BF99
:107850008446104662468C461946634600E000BFE7
:1078600001B5FFF7B7FF002848BF10F1000F01BDB9
:107870004DF808EDFFF7F4FF0CBF012000205DF884
:1078800008FB00BF4DF808EDFFF7EAFF34BF012009
:1078900000205DF808FB00BF4DF808EDFFF7E0FFA2
:1078A00094BF012000205DF808FB00BF4DF808EDF3
:1078B000FFF7CEFF94BF012000205DF808FB00BF5A
:1078C0004DF808EDFFF7C4FF34BF012000205DF83C
:1078D00008FB00BF4FEA410212F5001215D211D584
:1078E0006FF47873B3EB625212D94FEAC12343F0BD
:1078F000004343EA505311F0004F23FA02F018BF3F
:10790000404270474FF00000704750EA013005D107
:1079100011F0004008BF6FF0004070474FF00000CA
:10792000704700BF4A0011D212F5001211D20DD5D6
:107930006FF47873B3EB62520ED44FEAC12343F075
:10794000004343EA505323FA02F070474FF000001F
:10795000704750EA013002D14FF0FF3070474FF0CE
:10796000000070474FEA4102B2F1E04324BFB3F593
:10797000001CDCF1FE5C0DD901F0004C4FEAC002A6
:107980004CEA5070B2F1004F40EB830008BF20F08A
:107990000100704711F0804F21D113F13872BCBF44
:1079A00001F00040704741F480114FEA5252C2F199
:1079B0001802C2F1200C10FA0CF320FA02F018BFE2
:1079C00040F001004FEAC1234FEAD32303FA0CFC35
:1079D00040EA0C0023FA02F34FEA4303CCE77FEAC4
:1079E000625307D150EA01331EBF4FF0FE4040F40E
:1079F0004000704701F0004040F0FE4040F40000BD
:107A0000704700BF002100F0EFBF0A22002101F003
:107A1000A7B8000010B5054C13462CB10A46014624
:107A20000220AFF3008010BD204610BD0000000012
:107A300038B5074B1C68E36B05461BB92420FDF7DE
:107A4000C7FEE063E16B2846BDE8384000F002B8AD
:107A500070E103202DE9F0410C46804601F0B0FEB4
:107A600021460746404601F0AFFE466906F26C76B5
:107A7000B307044605D1642296FBF2F302FB1363BD
:107A80004BB94FF4C87596FBF5F305FB1365B5FAD2
:107A900085F35B0900E001235F4A302505FB0325E0
:107AA00001F0A4F901F0A4F95C4B1B68F3B17B6809
:107AB0009E4205D13968D8F80030FA6941B90AE028
:107AC000304601F0EBF80028F4D14FF0FF330DE021
:107AD000934208DB01E0934207DABA6B9342ACBFF2
:107AE0000023012302E0002300E001232362236A34
:107AF000012B0CBFF96B396A4FF461633C2091FB99
:107B0000F3F603FB1613616893FBF0F200FB1230EF
:107B10002368891AA26861601B1A921B3B2B2360A1
:107B2000A26003DD013161603C3B04E0002B03DA1D
:107B3000013961603C33236063683B2B03DD013214
:107B4000A2603C3B04E0002B03DA013AA2603C3324
:107B50006360A368172B22DDE2690132E261A2694A
:107B60000132062AC8BF0022A261E268183B013236
:107B7000A3602369E26055F823108A4246DD013391
:107B80000C2B0CBF63692361A2EB0102E26001BF11
:107B9000013300222261636108BFE26136E0002BFD
:107BA00034DAE269013AE261A269013A48BF062289
:107BB000A261E2681833013AE260A36032BB236934
:107BC000013B01D423611DE00B23236163695A1E2D
:107BD00012F0030F626103F26B7305D1642193FB12
:107BE000F1F201FB12324AB94FF4C87193FBF1F282
:107BF00001FB1233B3FA83F35B0900E0012303F5C1
:107C0000B673E361236955F82330E36001F0EFF8C0
:107C10002046BDE8F08100BFC8AC0D00E4E70320BA
:107C20000048704774E1032010B5431E0A44914296
:107C300004D011F8014B03F8014FF8E710BD0244DE
:107C40000346934202D003F8011BFAE77047000095
:107C500038B5124B1C68A36B0546D3B91820FDF745
:107C6000B7FD43F20E33A06303804AF6CD33438061
:107C700041F2342383804EF26D63C3804DF6EC6392
:107C80000381052343810B23838101220023C0E963
:107C90000423A36B00221D615A6138BD70E10320EB
:107CA000C9B2034610F8012B1AB19142F9D1184616
:107CB000704700290CBF18460020704710F8012BB0
:107CC00011F8013B012A28BF9A42F7D0D01A704719
:107CD000034611F8012B03F8012B002AF9D1704754
:107CE000024B0146186800F003B800BF70E10320A2
:107CF00070B5064608460C4600F00DF8451C2946AE
:107D00003046FDF7ADFD064618B12A462146FFF77D
:107D10008BFF304670BD034613F8012B002AFBD1C0
:107D2000181A0138704730B582B1451E013915F86F
:107D3000013F11F8014FA34206D1EC431444E04245
:107D400001D0002BF3D11C46181B30BD104630BDAE
:107D500010B5034642B111F8014B03F8014B013A4B
:107D6000002CF7D11A4400E010BD934202D003F872
:107D7000014BFAE710BDF0B5037863B90B78002B1F
:107D800018BF0020F0BD15F8012F62B114F8017F73
:107D900097423046F7D00346461C007810B14D1E7E
:107DA0005C1EF0E7F0BD1846F0BD70B504460D4608
:107DB00045EC104B164602F065F851EC100B7EB105
:107DC000C5F30A53C3F16B03002B09DD1B0503F157
:107DD0007F55002405F5401522462B46FFF7E0FAB3
:107DE00070BD0000000000002DE9F04F9DB00023A1
:107DF00002900C46139218934FF0000A4FF0000BBC
:107E00001791179B1A780D2A05D8092A13D2002A30
:107E100000F0AC8112E02B2A04D02D2A04D0202AB5
:107E20000CD108E0002200E001220C925A1C1792AB
:107E30005B782BB99AE101331793E2E700230C93A7
:107E4000179D2B78302B5CD16B78582B01D0782B79
:107E50004CD10C9B019318AB0093A94A029819AB23
:107E600017A901F096F910F00706044600F087857F
:107E7000062E05D10135002317950C9300F07FBD28
:107E8000189A3AB135211AA802F0E9F8189902981F
:107E900001F067FD062E22D8DFE806F0040D081871
:107EA0001D0D04004FF0000BDA4618E0DDF868A065
:107EB000DDF86CB013E01B9B199ADDF868A023F481
:107EC000801302F2334243EA025B08E0DFF834B287
:107ED0004FF0000A03E06FF0004B4FF0FF3A21072C
:107EE00040F14D854BF0004B00F049BD179B5A1CEB
:107EF00017925B78302BF9D0002B00F040850123DE
:107F000000E000234FF000080693179B0793CDF87D
:107F10001480CDF810800A22179D2E78A6F1300328
:107F2000D9B209290ED804990829DDBF059902FBA9
:107F30000133059302FB0838049B01350133049398
:107F40001795E9E70298FFF76BFE07680298FFF7BD
:107F500067FE0068FFF7DFFE394602462846FFF756
:107F6000E2FE074628B100203346049D0246014642
:107F700057E00298FFF754FE0068FFF7CCFE179B0E
:107F80001A181792049A1B5C002A42D11046302B13
:107F900005D1179B5A1C179201305B78F7E7A3F1C4
:107FA0003102082A43D8179A079202460020054654
:107FB000303B00F1010126D00A4405EB000C2946B4
:107FC0000A2661450ED0013101F1FF3EBEF1080FD6
:107FD00003DC059F77430597F3E71029D8BF06FB1D
:107FE00008F8EEE72844082800F1010505DC0598AB
:107FF0000A2101FB0033059304E0102DDCBF0A21A8
:1080000001FB08380021179B581C17905B78084625
:1080100002E0049D38463A46A3F130010929C7D948
:108020000121652B01D0452B51D16DB904E0652BA1
:1080300040F0B3840022012128B9069B002B00F0F8
:108040009580054600E00025179C631C1793637814
:108050002B2B06D02D2B02D00026039606E0012301
:1080600000E000230393A31C1793A378A3F1300629
:10807000092E2BD8302B04D1179B5E1C17965B78EA
:10808000F8E7A3F13106082E21D8A3F1300E179B93
:108090004FF00A0C1F46179B5E1C17965B78A3F1E6
:1080A0003009B9F1090F04D80CFB0E3EAEF1300EC9
:1080B000F1E7F61B082E44F61F6902DCF145A8BF64
:1080C000F146039E2EB1C9F1000902E017944FF06A
:1080D0000009002D53D1002840F05184069A002A4F
:1080E00040F04D84002941D14E2B20D002DC492B99
:1080F0000AD03BE0692B07D06E2B18D036E000BFCA
:1081000028AD0D000000F07FA84917A801F072FA11
:1081100060B3179BA649013B17A8179301F06AFAB1
:1081200010B9179B01331793DFF8A0B21AE0A149E9
:1081300017A801F05FFAC8B1179B1B78282B0FD145
:108140001AAA9D4917A801F068FA052808D11B9BB7
:10815000DDF868A043F0FF4B4BF4E00B00F00FBCE0
:10816000DFF86CB24FF0000A00F009BC139B1794C3
:10817000002B00F00F8400230C9300F002BC049B42
:108180000598002B08BF2B46102D2C46C2EB090981
:10819000A8BF10240493FFF78DF8092C82468B4664
:1081A00013DD864B03EBC40353E91223FFF7F8F802
:1081B000064640460F46FFF77DF802460B4630461E
:1081C0003946FEF73BFF82468B460F2D36DCB9F170
:1081D000000F00F0D48324DDB9F1160F07DC774DD2
:1081E00005EBC90952465B46D9E9000114E0C5F127
:1081F0002503994522DC714CC5F10F0504EBC5013F
:10820000C5EB090552465B46D1E9000104EBC50404
:10821000FFF7C6F8D4E90023FFF7C2F882468B4681
:10822000ADE319F1160F09DB644DA5EBC909D9E9D6
:10823000002350465946FFF7DDF9EFE72C1B4C446D
:10824000002C57DD14F00F010AD05C4B03EBC10189
:1082500052465B46D1E90001FFF7A2F882468B4601
:1082600034F00F0400F0B880B4F59A7F0BDD0024E1
:10827000254605940494029ADFF850B12223136036
:108280004FF0000A87E14E4E002324115046594614
:1082900098463746012C0BDDE20704D5D6E90023CA
:1082A000FFF77EF8012308F1010864100836F1E7B2
:1082B0000BB182468B46ABF1547B07EBC8075246A5
:1082C0005B46D7E90001FFF76BF821F000438B46CE
:1082D0000A461B0D3B491B058B428246C7D8A1F5B8
:1082E00080118B4286BFDFF8ECB04FF0FF3A02F10D
:1082F000547B71E070D0644214F00F020AD02F4B0F
:1083000003EBC20350465946D3E90023FFF772F945
:1083100082468B4624115FD01F2C04DD00242546A5
:108320000594049430E114F0100F0CBF00236A236D
:10833000254E0393504659460023002C09DDE207E1
:1083400004D5D6E90023FFF72BF801236410083683
:10835000F3E70BB182468B46039BEBB1CBF30A5399
:10836000C3F16B03002B594616DD1F2B0EDD342B9A
:10837000DEBF203B4FF0FF3202FA03F34FF0000A5A
:10838000CCBF4FF05C7B03EA010B05E04FF0FF32FE
:1083900002FA03F303EA0A0A002200235046594670
:1083A000FFF766FA0028B9D118E000BF50AD0D0004
:1083B00053AD0D0059AD0D003CAD0D00C8AD0D0025
:1083C00090AE0D000000A07C60AD0D000000F07FBD
:1083D0000000F8FFFFFFEF7F00230393059B00934E
:1083E000049A079902982B4601F00DFB059000288E
:1083F0003FF43DAFB9F1000FC9F10003A8BF00235E
:108400000D93002429EAE97312932546059B0298EF
:10841000596801F071FA049000283FF42CAF059BD5
:108420001A69023203F10C0192000C30FFF7FCFBD9
:108430001AAA19A94BEC10AB0298CDE908AB01F0D0
:1084400096FD189000283FF416AF0121029801F024
:1084500065FB054600283FF40EAF199B03991A9E51
:10846000002BADBF0D9A129ADDF8348002EB0308A1
:10847000B8BFD21AA3EB01033344B549A8BF129A7F
:10848000013B8B42C6F1360680F28A80C91A1F2949
:10849000C8BFB04F4FF00109D4BF09FA01F3FF1A6A
:1084A000A6EB0106D9BF0693002709FA07F7CDF816
:1084B000189008EB0609039BC84516441E44434622
:1084C000A8BF4B46B342A8BF3346002BC2BFC3EB85
:1084D0000909F61AC3EB08080D9B002B64D1B9F10A
:1084E000000F7ADC129B002B40F08180002E00F3FD
:1084F0008880B8F1000F00F38E80049A18990298D2
:1085000001F061FC044600283FF4B5AEC368079350
:108510000023C360294601F03AFC002880F28980DC
:10852000079B002B40F00482BAF1000F40F000825C
:10853000CBF31303002B40F0FB812BF000431B0D0A
:108540001B05B3F1D66F40F2F3816369002B6CD049
:1085500021460122029801F0C9FB2946044601F098
:1085600016FC002840F3E4812BF00043039A1B0D16
:108570001B05002A00F08C80B3F1D66F00F38880D1
:10858000B3F15C7F00F3D681029A22234FF0000AF8
:108590004FF0000B1360059B002B40F0DC81EEE1F7
:1085A00001230027069384E729461A46029801F022
:1085B0004FFB054600283FF45EAE0146189A02982C
:1085C00001F0B5FA079000283FF455AE18990298CB
:1085D00001F0C7F9079B189381E74A46189902985A
:1085E00001F084FB189000287FF47CAF43E6129AD8
:1085F0000499029801F02CFB049000287FF476AFD8
:1086000039E632460499029801F070FB0490002884
:108610007FF46FAF2FE629464246029801F066FBD1
:10862000054600287FF469AF25E62369012B8FDC1E
:108630007EE161D1079ACBF3130322B346498B4203
:108640005A462ED1039B514663B1444B1340B3F1BC
:10865000D46F07D81B0DC3F16B034FF0FF3000FA46
:1086600003F301E04FF0FF338B421AD13C498A42B9
:1086700002D101333FF4FFAD384B134003F5801BAB
:108680004FF0000A54E163B9BAF1000F09D16BE76A
:10869000A3F580136FEA135B6FEA0B5B4FF0FF3AB1
:1086A00046E117B117EA0B0F02E0069B13EA0A0F27
:1086B00000F03E81079B039A5046594653B1FFF79D
:1086C00074FB02460B46DDE90801FEF7B7FC824663
:1086D0008B462DE1FFF769FB02460B46DDE90801F9
:1086E000FEF7AAFC0022002382468B46FFF7C0F863
:1086F00000287FF449AF1BE12946204601F085FCA4
:1087000057EC106B00224FF0804310EE100A3946F0
:10871000FFF7C2F8002842D0079B23B14FF00008B2
:10872000DFF8409011E0BAF1000F03D1CBF313034F
:108730003BB91BE0BAF1010F03D1BBF1000F3FF4CD
:1087400023AFDFF824904FF000080026054F39E0F2
:1087500002FCFFFFE2FBFFFFFFFF0F000000F07FC6
:10876000FFFFEF7F0000F03F0000F0BF0022984BBA
:1087700030463946FFF786F840B930463946002280
:10878000944BFEF70DFE06460F4601E0914F002682
:1087900007F1004314961593DDE9148912E08D4B1F
:1087A000304639460022FEF7FBFD079B06460F4682
:1087B00023B901F100430E900F9301E0CDE90E675C
:1087C000DDE90E892BF000431B0D1B050693069A6D
:1087D000814B9A422BD1DDE90823ABF1547B4BEC62
:1087E00010ABCDE90A2301F04DFB404653EC102BB2
:1087F0004946FEF7D5FD52465B46FEF71FFC21F0C9
:1088000000431B0D754A1B05934282460CD9744BDD
:108810000B9A9A4203D10A9B01333FF42CADDFF847
:10882000C0B14FF0FF3A72E001F1547B38E0039B96
:1088300033B3069BB3F1D46F22D85DA3D3E90023F1
:1088400030463946FFF728F8A8B139463046FFF7D9
:1088500069F8002808BF0120FEF72CFD079B06469B
:108860000F4623B901F100431090119301E0CDE9C7
:108870001067DDE91089069A09F1D663C2EB030996
:108880009DED080B01F0FEFA404653EC102B4946D3
:10889000FEF786FDDDE90823FEF7D0FB82468B4616
:1088A000039BA3BB2BF000431B0D069A1B059A42AA
:1088B000D8462CD139463046FFF70CF8FEF70AFDB2
:1088C0000B46024639463046FEF7B6FB079B064686
:1088D0000F462BB9BAF1000F02D1CBF3130383B1CA
:1088E00035A3D3E9002330463946FEF7CBFF0028F5
:1088F00031D133A3D3E9002330463946FEF7E0FFF8
:1089000004E031A3D3E90023FEF7BCFF18BB18999C
:10891000029801F026F80499029801F022F82946FD
:10892000029801F01EF82146029801F01AF86DE550
:10893000039B83B12B4B0B9300230A93504659465C
:10894000DDE90A23FEF72CFD82468B4619B910B9E2
:10895000029A222313601899029801F002F80499F0
:10896000029800F0FEFF2946029800F0FAFF0599F0
:10897000029800F0F6FF2146029800F0F2FF139BE8
:1089800013B1139A179B13600C9B1BB152460BF14A
:10899000004307E052465B4604E000252A460121D9
:1089A000FFF741BB43EC102B1DB0BDE8F08F00BFBB
:1089B0000000C0FFFFFFDF419535A094FFFFDF3FC0
:1089C00035E5AF350000E03F9535A094FFFFCF3F80
:1089D0000000F03F0000E03F0000E07FFFFF9F7CD1
:1089E000FFFFEF7F00005039024B0A46014618682E
:1089F000FFF7FAB970E10320F0B548B9106838B94B
:108A0000F0BD17F8016B5EB1B542FAD12BB120462B
:108A100004460F4614F8015BF3E714600370F0BDE1
:108A20004DB915602846F0BD17F8016BB54207D067
:108A3000002EF9D11C4623460F4613F8015BF3E7DD
:108A400015B10021217000E02B461360F0BD012319
:108A5000FFF7D2BF2DE9F04780464048D0F800909C
:108A60000F463D4615F8014B09EB0400407800F035
:108A7000080000F0FF0608B12F46F2E72D2C03D1C5
:108A8000BD1C7C78012603E02B2C04BF7C78BD1C28
:108A900013B1102B0AD15BE0302C57D1287800F0AD
:108AA000DF0058284DD16C7810230235002E14BFFA
:108AB0004FF0004C6FF0004C0027BCFBF3FA384637
:108AC00003FB1ACC09EB040E9EF801E01EF0040F24
:108AD00001D0303C0BE01EF0030E1BD0BEF1010FA5
:108AE0000CBF4FF0370E4FF0570ECEEB0404A342ED
:108AF00010DDB7F1FF3F0AD0504506D801D16445DB
:108B000003DC03FB0040012701E04FF0FF3715F8BD
:108B1000014BD7E77B1C0CD1002E4FF0220314BF72
:108B20004FF000406FF00040C8F800302AB9BDE8AF
:108B3000F08706B1404272B107B1691E1160BDE80D
:108B4000F0873024002BB1D10823AFE70A23ADE72B
:108B5000302CA3D0AAE7BDE8F08700BF0CE10320CA
:108B600013460A46014602480068FFF773BF00BF7C
:108B700070E103202DE9F04780463C48D0F8009092
:108B80000E46354615F8014B09EB0400407800F01D
:108B9000080000F0FF0708B12E46F2E72D2C03D1A4
:108BA000B51C7478012703E02B2C04BF7478B51C26
:108BB00013B1102B0AD153E0302C4FD1287800F09C
:108BC000DF00582845D16C78102302354FF0FF3C68
:108BD0000026BCFBF3FC03FB0CFA6FEA0A0A3046E2
:108BE00009EB040E9EF801E01EF0040F01D0303CAA
:108BF0000BE01EF0030E1AD0BEF1010F0CBF4FF0B8
:108C0000370E4FF0570ECEEB0404A3420FDD002EBB
:108C100008DB604506D801D1544503DC03FB004066
:108C2000012601E04FF0FF3615F8014BD8E7002E82
:108C300007DA2223C8F800304FF0FF302AB9BDE828
:108C4000F08707B1404272B106B1691E1160BDE8FC
:108C5000F0873024002BB9D10823B7E70A23B5E702
:108C6000302CABD0B2E7BDE8F08700BF0CE10320A9
:108C700013460A46014602480068FFF77BBF00BF63
:108C800070E10320044B1B6803445B7803F003038B
:108C9000022B08BF203870470CE103202DE9F74F65
:108CA000044600F08DFD40F2B1739C4240F3968083
:108CB0006FF4F663E318A4F2B2729B1040F26D15E4
:108CC00005FB0235A4F26D726FF0630392FBF3F3C0
:108CD0006FF4C8622B44A5184FF4C87295FBF2F5E7
:108CE0001D44642394FBF2F794FBF3F602FB174751
:108CF00003FB164600F13803B7FA87FE019304F030
:108D0000030344604FEA5E1E014600934FF0070CD8
:108D10000B7A4A2B0ED14B69009AEC1802B906B9AE
:108D200027B93B2BD4BF0023012300E000232344B9
:108D3000013B3FE0442B02D14B692B443AE0009BBE
:108D40002BB9002E0CBFF0464FF0010800E0F046B2
:108D5000244BCC68302202FB0838A8F1040AA9464B
:108D60000123A34204DA5AF804BF0133D944F8E7D7
:108D700009F1040393FBFCFBCBEBCB0A012CCAEB00
:108D8000030A4B69B8BF012404F18044B3EB0A0A1B
:108D90000B6904F1FF3403F1FF3348BF0AF1070AFE
:108DA000C3EBC30358F824405344A34201DB073B01
:108DB000FBE74B448C690C4A02FB03430C6A2344D7
:108DC00041F81C3F019B9942A2D1C369826B934237
:108DD000ACBF002301230360012000E0002003B0AA
:108DE000BDE8F08FC8AC0D0080510100704770479E
:108DF000014B186800F002B870E103202DE9F04F34
:108E00008DB0074600F0DCFCB049B14E0446384650
:108E100000F0CEFC054660B9AE4BAF4A1860AF4BD0
:108E20001860AF4B30681A605A60FCF7D9FC3560A7
:108E300048E1316879B93068FCF7D2FC2846FEF782
:108E40006AFF411C3846FCF70BFD306048B12946EB
:108E5000FEF73EFF05E0FEF731FF002800F032810B
:108E6000E9E72B789F4AA0493A2B08BF01350AAEA3
:108E700033462846FCF7D4FC002840F323810A9BA4
:108E8000EF18EB5C2D2B03D101374FF0FF3503E0DA
:108E90002B2B08BF013701250DF1200A0DF11E0B08
:108EA0004FF000080396CDF808A00196CDF800B069
:108EB000334607AA8D49ADF81E803846ADF82080AC
:108EC000FCF7AEFC404540F3FD80BDF81E20BDF828
:108ED0002030DFF824923C2101FB0233BDF81C2036
:108EE0004FF4616101FB02335D4325627C4D7D4B94
:108EF0002B600A9B7C491F444A4633463846FCF7A0
:108F00008FFC404508DC2B686B60724B226A1A604C
:108F1000724BC3F80080D5E00A9BC5F80490FD1899
:108F2000FB5C2D2B03D101354FF0FF3703E02B2BDA
:108F300008BF013501270023ADF81C30ADF81E3005
:108F4000ADF820300A930396CDF808A00196CDF82D
:108F500000B0334607AA65492846FCF761FC0028A3
:108F600004DC236AA3F56163E3630EE0BDF81E2011
:108F7000BDF820303C2101FB0233BDF81C204FF42A
:108F8000616101FB02335F43E7630A9B27461D448F
:108F90004FF000092B782C2B08BF013595F8008085
:108FA000B8F14D0F26D10DF12603029309AB0093C2
:108FB0000396019633460DF122024D492846FCF7EF
:108FC0002FFC03287ED1BDF822104B1E0B2B79D825
:108FD000BDF82420531E042B74D8BDF82630062B70
:108FE00070D887F80880F9603A617B610A9B05EBCD
:108FF00003082AE0B8F14A0F06BF0135434644236F
:109000000A220BA928460593FFF732FEDDF82C80D3
:10901000ADF826004545059B14D14D23B9F1000F4D
:1090200007D123720323E36002232361C4F8149061
:109030000BE084F824300B23A3620123E3620023B6
:10904000236302E080B23B7278610223ADF81C30EA
:109050000023ADF81E30ADF820300A9398F80030A8
:109060002F2B0BD10396CDF808A00196CDF800B0B8
:10907000334607AA1F494046FCF7D2FBBDF81E2025
:10908000BDF820303C2101FB0233BDF81C204FF419
:10909000616101FB0233BB610A9D09F10109B9F16C
:1090A000020F454407F11C077FF474AF6068FFF7B7
:1090B000F5FD084B226A1A60E36B9B1A074A18BF3A
:1090C000012313600DB0BDE8F08F00BF88AD0D0027
:1090D000E0E70320E8E703208BAD0D00E4E7032081
:1090E000ACE10320D3E703208FAD0D00B2AD0D003E
:1090F0009EAD0D00B1AD0D00C8E70320F0B50669C7
:109100004B11B34200F1140527DA11F01F0105EBF2
:10911000860605EB830201D1294616E0141D55F899
:109120002320C1F1200ECA402B46B44209D2276841
:1091300007FA0EF73A4343F8042B54F8042BCA40BD
:10914000F3E71A6052B1043308E0B2420B4605D28D
:1091500052F8043B41F8043BF7E72B465B1B9B109E
:10916000036103B94361F0BDA0F13003092B01D8BD
:1091700020380AE0A0F16103052B01D8473804E04C
:10918000A0F14103052B02D82738C0B27047002058
:1091900070472DE9F04F8BB08A46904606930290B7
:1091A000FEF73EFD036803931846FEF7B4FD039BEC
:1091B000019003444FF0000B13F8013C0793DAF8D9
:1091C000003002331F4613F8010B302802D10BF197
:1091D000010BF7E7FFF7C8FF0446E0B9019A0399CE
:1091E0003846FEF7A0FD002834D1019BF85CFE183C
:1091F000FFF7BAFF80B33346187830281F4603F1D3
:109200000103F9D0FFF7B0FFB0FA80F56D093446DD
:109210004FF0010B01E000252C463A46164601327C
:109220003078FFF7A1FF0028F8D1019A0399304662
:10923000FEF779FD50B954B9019BF4182246164641
:1092400001323078FFF790FF0028F8D134B1A41B29
:10925000A40003E03E4600E0044601253378502B8D
:1092600001D0702B2AD173782B2B08D02D2B03D053
:10927000711C4FF0000905E04FF0010901E04FF0CB
:109280000009B11C0878FFF76FFF431EDBB2182BF3
:1092900014D8A0F1100211F8010FFFF765FF431E6B
:1092A000DBB2182B04D80A2303FB0202103AF2E7C0
:1092B000B9F1000F00D05242144400E03146CAF820
:1092C00000102DB1BBF1000F14BF002006207CE17F
:1092D000F31B013B2946072B02DD01315B10FAE746
:1092E000029800F009FB019B00F1140A4FF00009FD
:1092F000C3F101030546CDF810A0CB460893B74251
:109300002FD2731E0593079A16F8013C93420BD097
:10931000BBF1200F16D1049BC3F8009004334FF02B
:1093200000090493CB460DE0059B089A13449F4225
:10933000EED81846019A03990993FEF7F4FC099BAD
:1093400068B1E5E716F8010CFFF70EFF00F00F001B
:1093500000FA0BF0059B49EA00090BF1040B1E46CD
:10936000CDE7049840F8049BCAEB00008010286108
:109370004701484600F085FBD8F80060381AB04233
:1093800026DD871B3946284600F083FEC8B17B1EC8
:10939000591103F01F024FF001095AF8211009FA80
:1093A00002F20A420ED04B4502DC4FF0020909E0FE
:1093B000B91E284600F06DFE0028F6D04FF00309D4
:1093C00000E0814639462846FFF798FE3C440CE011
:1093D00009DA371A29463A46029800F087FCE41B5E
:1093E000054600F1140A4FF00009D8F808309C42F5
:1093F00008DD0298294600F0B4FA149A002313609D
:10940000A320E2E0D8F80400844253DA041BA64209
:109410002EDCD8F80C30022B1AD0032B1CD0012BD9
:109420001DD1A6421BD1012E0BDC069AD8F80430C0
:10943000136001232B61CAF80030149B62201D6069
:10944000C3E0711E284600F024FE0028EDD106E09E
:10945000159B002BE9D002E0159B002BE5D102986B
:10946000294600F07EFA149A002313605020ACE0E5
:10947000671EB9F1000F06D13FB13946284600F00A
:1094800008FE814601E04FF001097A11012307F03F
:109490001F0703FA07F75AF8223021461F422846D1
:1094A00018BF49F00209361BFFF728FE0227D8F83B
:1094B000044000E00127B9F1000F00F08180D8F8E6
:1094C0000C30022B0ED0032B10D0012B76D119F0CB
:1094D000020F73D0DAF8000049EA000919F0010F11
:1094E00007D16BE0159BC3F101031593159B002B6E
:1094F00064D0D5F810A005F114034FEA8A0903EBF4
:10950000090100201A68B2F1FF3F02D001321A604F
:1095100020E043F8040B9942F4D8AB689A4512DB7B
:1095200069680298013100F0E7F92A69023205F111
:109530000C01834692000C30FEF776FB2946029818
:1095400000F00FFA5D462B695A1C05EB83032A6174
:1095500001225A61022F05F1140211D1D8F800300E
:10956000013B9E4227D17111012306F01F0603FA29
:1095700006F652F821301E420CBF022701271AE0DE
:109580002B699A450ADA01212846FFF7B7FDD8F87A
:10959000083001349C423FF72CAF0BE016F01F0659
:1095A00008D09144C6F1200659F8040C00F069FA7D
:1095B000B042E8DB012747F0200701E047F0100741
:1095C000149B1D60069B38461C600BB0BDE8F08FF5
:1095D000C2F10802920070B5C2F120064368056826
:1095E00003FA06F42C43D340046040F8043F884259
:1095F000F4D370BD30B5036811F8014B01334CB1A1
:109600001A78A2F14105192D98BF2032A242F3D059
:10961000002030BD0360012030BD2DE9F04F0B6804
:10962000D0F800B05E1102EB860613F01F0385B080
:1096300018BF0436351F174600228246019346F8AC
:10964000042CA8462C46009291461BF8011F0029C5
:109650003CD0084603920291FFF786FD039A00BBB7
:109660000299202916D8009B9945EEDD444505D284
:10967000072A03DC41462046FFF7AAFFBC4223D954
:109680000023A4F1040844F8043CCDF800904446BB
:109690001A46DAE7292948D10BF10103CAF800304C
:1096A00014E00132082A09F1010906DDBC42CCD9D7
:1096B000002344F8043C0122043C216800F00F0020
:1096C00040EA01102060C0E70822BEE7B9F1000FB0
:1096D0002BD0444505D2072A03DC41462046FFF73C
:1096E00077FFBC420CD93B4654F8042B43F8042BBB
:1096F000A542F9D2002243F8042B9D42FBD20BE095
:10970000019B4BB1C3F120024FF0FF33D34056F819
:10971000042C134046F8043C2B6843B9BD4202D1E7
:1097200001232B6003E0043DF6E7042000E0052060
:1097300005B0BDE8F08F00002DE9F84F07468B46D5
:10974000904600F0D6FC194B1D689A463DB15C4628
:10975000234613F8012B42B13D2A1C46F8D1384666
:1097600000F0C8FC0020BDE8F88FCBEB0404A9464C
:1097700059F8040B0028F2D022465946FEF7D3FAD6
:1097800088B959F8043C1E191B5D3D2B0BD1DAF842
:109790000030ED1AAD103846C8F8005000F0AAFCB1
:1097A000701CBDE8F88F4D46E1E700BFF4E10320EF
:1097B00007B501AAFFF7C0FF03B05DF804FB000086
:1097C00000487047B4E103200268474BF0B592FBB4
:1097D000F3F403FB1422002ABCBF02F5A83202F501
:1097E000C0724FF4616004F52F2492FBF0F300FB8C
:1097F00013224FF03C00ACBF04F66C2404F66B243B
:109800008B6092FBF0F300FB13224B600A6007238E
:10981000E21C92FBF3F3C3EBC303D31A8B61334B0C
:10982000334D94FBF5F503FB054448F6AC62B4FBFD
:10983000F2F2224440F2B457B4FBF7F3D21A2D48A7
:10984000B4FBF0F048F69466131AB3FBF6F6344412
:1098500040F26D12B3FBF2F0B3FBF7F3E31A02FB35
:109860001033992403EB83020232B2FBF4F20A2A8A
:1098700004FB02F404F102064FF00504B6FBF4F415
:1098800034BF02266FF0090616444FF4C87202FB7B
:1098900005055F1C012E98BF0135B3F5997FA7EB35
:1098A000040702D3A3F5997214E0820705D164245A
:1098B000B0FBF4F204FB12024AB94FF4C872B0FBD9
:1098C000F2F402FB1400B0FA80F2520900E0012227
:1098D0003B331A44A5F26C750023CA614D610E61D9
:1098E000CF600B620846F0BD805101004FC5FDFFFF
:1098F000B13A0200B03A020070B5456A04460E461D
:109900003DB91020FBF764FF60624560856005602B
:10991000C560656AEB6843B1636ADB6853F826008B
:1099200078B1026843F8262017E02122042120465E
:1099300000F0D1FB636AE860DB68002BECD100200B
:1099400070BD012101FA06F56A1D9200204600F063
:10995000C2FB0028F3D04660856000230361C3602A
:1099600070BD70B5446A06460D463CB91020FBF741
:109970002FFF7062446084600460C4603DB1736A0C
:109980006A68DB6853F82210296043F8225070BDE2
:109990002DE9F0410D691F4606460C4601F1140EF3
:1099A0000023DEF8000081B202FB01710F0C000CF5
:1099B00002FB007089B2013301EB00419D424FEA86
:1099C00010474EF8041BECDCD7B1A3689D4212DBB4
:1099D000616830460131FFF78FFF2269023204F1DE
:1099E0000C01804692000C30FEF71EF921463046ED
:1099F000FFF7B7FF444604EB850301355F6125613E
:109A00002046BDE8F0812DE9F8430C4615461F4677
:109A100009220833064693FBF2F3002101229A4201
:109A200002DA52000131FAE73046FFF765FF089B82
:109A30004361092D4FF00103036111DD04F10908B1
:109A4000C1462C4419F8013B0146303B0A223046FE
:109A5000FFF79EFFA145F5D108EB0504083C01E0A6
:109A60000A3409252D1B63199F4208DD14F8013BB8
:109A70000146303B0A223046FFF78AFFF3E7BDE894
:109A8000F883030C1B0413B90004102300E0002327
:109A900010F07F4F04BF0002083310F0704F04BF76
:109AA0000001043310F0404F04BF8000023300284F
:109AB00003DB420003D5581C70471846704720202E
:109AC0007047036813F007020BD0D90722D49A0716
:109AD0004BBF5B089B08036003604CBF0120022062
