:02000002D0002C
:1040000000400D00F4C70D00000006000D00050182
:084010000401E70500000000B7
:04401800D8B70D0008
:1040200009480A49884208B505D0094A824202D0A7
:10403000121A05F033F90748074A0021121A05F051
:1040400053F9014808BD00BFA8E00320D4C60D0005
:10405000A0E10320A0E10320F0E7032070B504F005
:1040600049F9074C074BE41AA40800251E46A5424F
:1040700004D056F8253098470135F8E770BD00BFE9
:10408000D0C60D008CC60D0000F09EB808B500F03B
:1040900007F9BDE8084004F0EFB801F027BD01F0D2
:1040A0002DBD01F02BBD000008B5034A00210C20F6
:1040B00001F030FCFEE700BFF5560D000078B0FAC5
:1040C00080F0400970470123037070477047006A11
:1040D0000368DB68184700002DE9F0478EB08DEDCE
:1040E000071ACDED080A8DED090A04F081F89DED5F
:1040F000090A824610EE100A04F038FCDDED080AC9
:10410000804610EE900A894604F030FC9DED071AB7
:10411000064611EE100A0F4604F028FC04460D4630
:10412000134A0121CDE90445CDE90267CDE90089B3
:104130005046DFF848A003F006FD0E4801F01CFAD7
:104140005246CDE9008910210AA801F0FFFC524631
:10415000CDE9006710210AA801F0F8FCCDE900457F
:10416000054A10210AA801F0F1FC0EB0BDE8F08765
:104170001CB80D0025E303203BB80D0036B80D0038
:104180000A4B10B50446036002F09CFC214602F085
:1041900089FE04F02DF804F01FF82046044B40F887
:1041A000043B02F085FD204610BD00BF0CB80D0099
:1041B000F4B70D0010B50446FFF7E2FF20462421B6
:1041C00004F009F9204610BD10B504F011F8184CA0
:1041D0004FF4165103F0FCFF04F0D2F802F0ECF8B3
:1041E000204601F05DF9204601F0C6F9204601F0B5
:1041F0002AFA204601F069F900222046022101F046
:1042000071F920460B4C0C4901F0D8F90B492046B6
:1042100000F0B8FE0A49204601F0D0F83C2100F039
:10422000A7FEB1EE0C0ABDE8104003F093BE00BF3C
:1042300025E30320C8E1032040B80D0049B80D0074
:10424000D9400D0070B503F0C2FE03F0C7FE104E5A
:10425000104C306003F0CAFE0F4D2860204601F07C
:10426000F2F9204601F031F905222046042101F03F
:1042700039F93168204601F0AEF92046074901F0CE
:104280009DF929682046BDE8704001F0A4B900BF3F
:1042900010E2032025E303200CE20320C4B90D0043
:1042A00008B5034801F03CF8BDE80840FFF7CABF75
:1042B000C8E1032070B5046843681426054606FB70
:1042C0000346A64204D0204603F09CFC1434F8E7D1
:1042D000286801F013FC284670BD8842F8B50646F0
:1042E0000C46154616D9904215D2A2F114056C1A47
:1042F000A1F114070444AF421CD02CB1294620463A
:1043000003F070FC2B7C2374284603F07BFC143DE7
:10431000143CF0E70ED0AC420CD02EB12146304612
:1043200003F060FC237C3374204603F06BFC1434F0
:104330001436F0E7F8BD2DE9F04100230360436037
:1043400083604E689E4204460F4624DD4FF01408F9
:1043500008FB06F001F0CAFB0546E0B194E8060050
:1043600008FB0212FFF7B9FF206801F0C7FB2560C8
:10437000A6603E687B6808FB0368464509D02DB1FE
:104380003146284603F0C4FC337C2B7414361435B4
:10439000F3E77B6863602046BDE8F08170B58CB0C0
:1043A00001F0C8F9002300930193029303F020FF6A
:1043B000214C0646694603A8FFF7BDFF254603A921
:1043C00006A8FFF7B8FF1D4B45F8043B06A909A84E
:1043D000FFF7B1FF09AA0121284602F0CAFE09A889
:1043E000FFF768FF06A8FFF765FF154B23602662FD
:1043F00003A8FFF75FFF134B236003F0F9FE4FF4B0
:10440000165103F0E5FE02F05DFB214602F044FE8A
:104410000D4D6846FFF74EFF20460C4C0C492A46CE
:1044200003F0D4FF204600F07DFD2A4609492046CE
:1044300003F0CCFF0CB070BDA4E10320F4B70D0075
:10444000F8C10D000CB80D00A0E10320C8E1032065
:1044500081410D00A54D0D0030B41C461B681D6840
:104460001346AC460A460146204630BC60470EB4AF
:1044700000B58CB00DAA202352F8041B03928DE8DE
:10448000060004930168002304AA1E20059301F08E
:1044900049FA0CB05DF804EB03B0704770B58CB00E
:1044A0000C4604A84B4915461E4603F0F2FBB4F532
:1044B000101F35D013DCB4F5901F28D005DC24B3D1
:1044C000B4F5881F36D1444922E0B4F5081F23D043
:1044D000B4F50C1F22D0B4F5041F2BD117E0B4F5AE
:1044E000401F21D007DCB4F5141F1BD0B4F5181FF2
:1044F00020D13A490CE0B4F5A00F17D0B4F5C00FA5
:1045000016D0B4F5800F15D110E0354900E03549DB
:1045100004A803F010FC19E03349F9E73349F7E741
:104520003349F5E73349F3E73349F1E73349EFE737
:104530003349EDE72246334908A803F06BFC08A98C
:1045400004A803F0F0FB08A803F05CFB3346049AD0
:104550002D492E48FFF78BFF1E4908A803F099FB51
:104560002C46631B9E4227DD14F8013B0A2B0CD11D
:10457000274908A803F007FC08992448FFF777FFAC
:10458000144908A803F0D7FBEBE70D2B01D1214913
:1045900009E0A3F120025E2A09D90A211E4A01A8D6
:1045A00001F0D4FA01A908A803F0EDFBD9E71946F8
:1045B00008A803F0F7FBD4E70A9B1BB1089913483E
:1045C000FFF755FF08A803F01DFB04A803F01AFB32
:1045D0000CB070BD38BC0D0071B80D00BAB80D003C
:1045E00064B80D0079B80D0084B80D0091B80D00C5
:1045F000A0B80D00B0B80D00C8B80D00D4B80D00BB
:10460000DEB80D00EBB80D00F5B80D0098E30320FF
:1046100016B90D0019B90D001CB90D002DE9F843AC
:104620000F4606461449904603F033FB796A30463C
:1046300003F006FB00252C4607F11C097B6A9D420E
:1046400016D22946484603F0E2FB2228014607D14C
:1046500084F00103DBB244B1B8F1000F05D007E0EC
:1046600014B1304603F09EFB234601351C46E5E7B6
:104670003046BDE8F88300BF38BC0D0038B56FF098
:1046800002034360084D00230372084B0446294689
:1046900040F80C3B03F0FDFA294604F11C0003F03E
:1046A000F8FA204638BD00BF38BC0D0060BC0D00D4
:1046B00010B5064B044640F81C3B03F0A3FA04F186
:1046C0000C0003F09FFA204610BD00BF60BC0D0037
:1046D00070B5044615460E46FFF7D0FF084B236021
:1046E0004FF6FF73E362FF232363002263654FF0FD
:1046F000FF3384F84820A665E5652366204670BD33
:1047000054BC0D000368B3F57A7F0CDA69B9037FF6
:10471000C0680BB1064B01E04FF6FE739842CCBF68
:10472000002001207047002070470120704700BF23
:10473000FEFFFF0FF0B5054685B008460F4614464C
:1047400004F047FE0F2801D8002603E023463A462E
:104750005949ABE0B85D28B105F004FE0DF806003C
:104760000136F7E704AB1E44544906F8100C6846BE
:1047700004F002FE40B95249204604F06DFE0030BC
:1047800018BF0120287794E04E49684604F0F4FDF4
:1047900020B9204604F073FC28608AE04A49684644
:1047A00004F0EAFD20B9204604F069FC686080E06E
:1047B0004649684604F0E0FD014628B9102220462B
:1047C00005F03EFDA86074E04149684604F0D4FD60
:1047D000014628B91022204605F032FDE86068E065
:1047E0003C49684604F0C8FD014628B9102220461D
:1047F00005F026FD28615CE03749684604F0BCFD01
:1048000020B9204604F03BFC686152E03349684619
:1048100004F0B2FD00284CD03149684604F0ACFDEC
:10482000002846D02F49684604F0A6FD002840D055
:104830002D49684604F0A0FD014628B91022204603
:1048400005F0FEFCA86134E02849684604F094FDB8
:1048500020B9204604F013FC28622AE02449684667
:1048600004F08AFD30B9204604F009FC0123686297
:104870002B771EE01F49684604F07EFD20B92046D4
:1048800004F0FDFBA86214E01B49684604F074FDC7
:1048900078B11A49684604F06FFD50B1184968466E
:1048A00004F06AFD28B1174923463A461648FFF737
:1048B000DEFD05B0F0BD00BF29B90D0046B90D0001
:1048C0004AB90D004FB90D0053B90D0057B90D008D
:1048D0005BB90D005EB90D0063B90D0069B90D003B
:1048E00073B90D007CB90D0082B90D0088B90D00B7
:1048F0008CB90D0090B90D0099B90D009DB90D004E
:10490000A0B90D00A9B90D0098E30320F7B506463C
:10491000084604F043FD01AA1049054605F007FCCE
:104920000027B0B1044601302378202BFAD03A2179
:10493000204604F009FD30B10246214602F8017B11
:104940003046FFF7F7FE01AA0449002005F0EFFB0F
:10495000E7E7284601F0D2F803B0F0BDBFBC0D0078
:104960002DE9F043067A8BB005460F4691461C466A
:104970000EB1FFF793FD37F4800855D1601C01F0AC
:10498000B5F8064600284FD02246494604F03EFDC1
:1049900006F80480274AEB68202102A801F0D6F827
:1049A0002549804601AA304605F0C1FB044600288F
:1049B00037D003788BB3B7F5800F05D1424602A9F3
:1049C00004F00FFD00B9444404221C49204604F0C1
:1049D00008FDB8B92B6E002B08DA214605F12C0032
:1049E000FFF794FF2B6E01332B6616E0AA6DA2B180
:1049F000E96D8B4211D2591C2C20296600FB032043
:104A0000214608E004220E49204604F0EAFC20B9C1
:104A1000214605F12C00FFF779FF01AA0649002085
:104A2000C2E7304601F06AF84FF0FF300BB0BDE846
:104A3000F08300BF46BC0D0036BC0D00C1B90D00AF
:104A4000C6B90D0070B5046E002C0FDB856D5DB12D
:104A500000222C26A24207D0002106FB0250FFF7BD
:104A600051FE28B10132F5E7204670BD002070BD2F
:104A7000104670BD2DE9F04100F1340686B000F11A
:104A8000380700F13C088DE8C00100F1300504460C
:104A90002B4605AA0B49C06901F048F8052803D147
:104AA000012384F82C3009E08DE8800133462A4642
:104AB0000549E06901F03AF80428F1D006B0BDE8F4
:104AC000F08100BFCEBA0D00D1BA0D0010B56FF065
:104AD0000203436000230372044B0549044640F877
:104AE0000C3B03F0D6F8204610BD00BF60B80D00A7
:104AF00038BC0D0010B5044B044640F80C3B03F0E5
:104B000081F8204610BD00BF60B80D0010B588B018
:104B1000044601A8FFF7DAFF084B094842F2107279
:104B200001A900F095FD04A9204603F0F1F801A8C1
:104B3000FFF7E0FF204608B010BD00BF01BB0D002D
:104B400059440D0010B588B001466846FFF7DEFFF6
:104B5000094904A803F09DF804A9684603F045F943
:104B6000044604A803F04EF8684603F04BF8201CF6
:104B700018BF012008B010BD3FBB0D0030B514496F
:104B800093B01546044603F084F807A8FFF776FDB6
:104B900010490AA803F0CFF800950F4B0F4842F2D6
:104BA000107207A900F054FD02300BD1012207A9B1
:104BB00003A8FFF733FD03A9204603F0B4F803A8C8
:104BC00003F020F807A8FFF773FD204613B030BDAF
:104BD00038BC0D0047BB0D004DBB0D0059440D0006
:104BE00037B514460D4602F10C00074903F0A3F84F
:104BF0000095064B064842F21072214600F028FD4F
:104C0000606003B030BD00BFA7BB0D00ACBB0D00A2
:104C100059440D0010B50C460021124B42F210729F
:104C2000084600F015FD02301AD10F4904F10C00BE
:104C300003F081F80D4B0E4842F21072214600F04D
:104C400007FD606002300BD12046FFF713FF002103
:104C5000084B42F210720846BDE8104000F0F8BC64
:104C600010BD00BFE7BB0D00F3BB0D00F8BB0D008E
:104C700059440D0003BC0D002DE9F0410D461F46BF
:104C8000591CAB689DF8188019442846164602F056
:104C9000D7FF3446A31B9F420DDDB8F1000F04D0AF
:104CA00023780D2B05D00A2B03D02178284603F05A
:104CB00079F80134EEE7BDE8F0810000F7B590F82F
:104CC00008E004460F4615461E46BEF1000F01D00F
:104CD000FFF7E4FB47B9012300932A46334604F16A
:104CE0000C010348FFF7C8FF4FF0FF3003B0F0BDE1
:104CF00014E20320F0B590F808E08BB006460D46AC
:104D000017461C46BEF1000F01D0FFF7C7FBB5F5F3
:104D1000800F2AD1601C00F0E9FE054628B3224628
:104D2000394604F073FB00232B55124AF368202107
:104D300002A800F00BFF02A9284604F08DFB0446F0
:104D400080B102A804F045FB04440D21204604F084
:104D5000FBFA012300932246031B06F11C010648BF
:104D6000FFF78AFF284600F0C9FE4FF0FF300BB076
:104D7000F0BD00BF45BC0D0014E2032000F0DABC1A
:104D800030B40368126858689C681B68096810F0A2
:104D9000010F4FEA600018BF2558204418BFEB5898
:104DA00030BC184710B5064B044640F82C3B02F0C7
:104DB00029FF04F10C0002F025FF204610BD00BFC2
:104DC00084BC0D0010B50446FFF7ECFF20464421DB
:104DD00003F001FB204610BD7FB5174E174D184A52
:104DE00004463068636810F8011C0393236802933B
:104DF000A3680193E3680093124B2D1A5B2918BF37
:104E00001346114A294600F0A1FE854212D3A2683A
:104E100082B14FF6FF739A420CD022689A4209D0B1
:104E200062689A4206D03368084A184413683060B2
:104E30000133136004B070BD20E3032019E30320A5
:104E4000BFBC0D0038BC0D008CBC0D0018E2032067
:104E50002DE9F043436A85B00446002B37D0104655
:104E600004F09CFA03AA1B49054605F060F958B303
:104E700004F002F903AA1749002057EC106B05F063
:104E800056F908B304F0F8F803AA1249002059ECC7
:104E9000108B05F04CF9B8B104F0EEF851EC100BA2
:104EA00004F09AF849460190404604F095F83946D6
:104EB0000090304604F090F8636A9DED011ADDED34
:104EC000000A00EE100A9847284600F017FE05B0C9
:104ED000BDE8F083BFBC0D00022A38B5044605D0FA
:104EE000032A0FD0012A11D10B6809E00C200D68AC
:104EF000FFF7D3F8034618B195E8070083E80700E9
:104F0000236003E00C21006803F065FA002038BD3F
:104F100010B58368044613B1032201469847204622
:104F200010BD000038B50F4B0360002542F210732E
:104F30000446456083600C490C3002F0AAFE4FF431
:104F4000FA53A362E56125626562084904F12C0009
:104F500002F09FFE4FF49B73E3634FF4CD73236421
:104F6000204638BD84BC0D0049B80D00ACBC0D0016
:104F700002234360042998BF05214FF47A735943F3
:104F80008160704710B504460C3002F0D4FE204614
:104F900010BD000070B5224C224923688AB000255C
:104FA0001D70092202A81026FFF7E8FD29463246A7
:104FB00006A804F099F9294606A8ADF8186000F093
:104FC0004FFB054630BB029A17492068174E00F088
:104FD000A5FD236816490344184604F0D7F9BDF827
:104FE00020200192BDF81E20BDF82230009205302D
:104FF000099A1049206000F091FD32682168013261
:105000000B1832605D220A547D225A709A701A1D64
:105010002260DD7002A802F0F5FD07480AB070BDFD
:1050200020E3032014E20320B1BC0D0018E20320AA
:10503000C1BC0D008EBC0D001DE20320F0B593B085
:1050400012AE2D4D46F8405D00246FF00203074676
:105050002A49039305A88DF8104002F01AFE27494B
:1050600009A802F016FE264B02938DF834400E94E8
:105070004FF6FF731194234C0F9331464FF0FF33DB
:1050800021481093FFF7C6FDFA6A20492068204E98
:1050900000F044FD23681F490344184604F076F9E4
:1050A0009DF834300530206073B13B6C0193FB6B8D
:1050B0000093109A0F9B184900F030FD23681844A4
:1050C000336820600133336023685D221A707D22CB
:1050D0005A709A701A1D22600022DA7033680BB978
:1050E0000E4A137009A8029502F08CFD05A802F083
:1050F00089FD0A4813B0F0BD60BC0D0038BC0D003E
:105100006CBC0D0020E3032014E20320B1BC0D00B1
:1051100018E20320C1BC0D008EBC0D001DE203206F
:1051200070B50546CAB03948FFF70CFD044618B102
:105130002846FFF783FF66E004221EA905A8FFF7B3
:10514000C7FA334B059355A929AB4FF6FF70FF22E1
:1051500043F82C0C43F8282C03F8104C43F8042C8B
:105160002C338B42F4D105AA05212848FFF738FDDE
:10517000069B023304D005AA03212448FFF730FD23
:10518000244C22492568092201A8FFF7F7FC019A5F
:105190002149284600F0C2FC23681844206001A879
:1051A00002F030FD23681D49184604F0EFF803466D
:1051B000053310A82360FFF70FFE00252C2605A855
:1051C000FFF740FCA84206D91B9806FB0500FFF735
:1051D00003FE0135F3E723685D221A707D225A70C1
:1051E0009A701A1D22600022DA700D4B1B680BB9F1
:1051F0000C4A13700C4B05930CA802F003FD08A891
:1052000002F000FD07484AB070BD00BF14E2032061
:1052100078BC0D0020E30320B1BC0D00C1BC0D0023
:1052200018E203201DE2032060BC0D00174B184A52
:1052300030B51A60174B184D00221A60174B1A78B8
:1052400089B00446BAB9012215491A706846FFF7B9
:105250005DFC144904A802F01CFD04A9684602F094
:10526000C4FDB0FA80F04009287004A802F0CAFC1E
:10527000684602F0C7FC2B78204613B1FFF78AFE80
:1052800001E0FFF74DFF09B030BD00BF20E3032070
:105290001DE2032018E203201DE3032024E3032082
:1052A00014E20320C7BC0D0030B585B0054602F0FE
:1052B0009FFF184902F01DFC2846FFF7B7FF044680
:1052C00002F096FF2346144A012102F03CFC2378A9
:1052D000F3B100F08BFBD8B1104BE9681B788DF867
:1052E000003022463C2302A800F068FE039C7CB1FB
:1052F0006368013B63605BB9236820469B689847FD
:10530000A368013BA3601BB923682046DB6898476C
:1053100005B030BDD1BC0D00E1BC0D001CE2032086
:1053200010B5036A022B04460BD0032B23D0002BAD
:1053300034D100F05BFB88B30223236200F0E2F972
:1053400017E000F0DFF9E369C01AA36A984225D399
:105350006368012B03D12046FFF7A6FF00E013B9D5
:105360000423236210BD0323236200F0CBF9A3685A
:10537000C01AE06110BD00F039FB70B100F0C2F955
:10538000E369C01AA368984208D300F0BBF9E06152
:105390002046BDE81040FFF787BF206210BD38B53A
:1053A000002383608B6804460D462BB10222984788
:1053B000EB68E360AB68A360204638BD30B58BB0C6
:1053C000C5684162044606A800F018FB069B0093DE
:1053D0001B4A1C482B464FF4807100F0B7FB06A80F
:1053E00002F010FC00250C200495FEF756FE18B1C3
:1053F000154B846080E82800144B0290059302A9A5
:10540000134B049306A8FFF7CAFF089B7BB110203B
:10541000FEF743FE054650B106A9FFF7C0FF002383
:10542000019300932A460B49064800F0F7FA06A8B4
:10543000FFF76EFD02A8FFF76BFD20460BB030BDF5
:10544000EDBC0D001DE20320514E0D00814D0D00FD
:10545000D94E0D008D5D0D00024B01221A7000F037
:1054600069B900BF1CE203200368C9B29B681847F2
:1054700010B50C4602F084FF3C2100F0A7FF02F0BB
:105480007FFF8021FFF7F0FF02F07AFF03682146DB
:105490009B68984702F074FFBDE8104000F09DBF84
:1054A00010B5AE210446FFF7E3FF052000F06EFBC8
:1054B000AF212046FFF7DCFF052000F067FB204608
:1054C000A621BDE81040FFF7D3BF10B50123044665
:1054D00003702021FFF7CCFF20460221BDE81040D9
:1054E000FFF7C6BF38B550391446C9B20546FFF7B5
:1054F000BFFFE100284601F00801FFF7B9FFC4F340
:10550000430128461031BDE83840FFF7B1BF10B560
:105510000C4602F035FF3C2100F058FF02F030FF4E
:105520004021FFF7A1FF02F02BFF036821469B6893
:10553000984702F025FFBDE8104000F04EBF000084
:10554000A1F120035F2B0B4B88BF202170B56FF4B6
:10555000807203EBC10503EBC10306461544A3F1BA
:10556000F90415F8011F3046FFF7D1FFA542F8D125
:1055700070BD00BF01BD0D0070B5AE210546FFF73F
:1055800077FF00260022F1B22846FFF7ABFF102478
:1055900020212846013CFFF7D3FF14F0FF04F7D188
:1055A0000136082EEED12846AF21FFF761FF2246D3
:1055B00021462846BDE87040FFF794BF70B5054608
:1055C0000E460024E3B20134F15C19B12846FFF71E
:1055D000B7FFF7E770BDF0B585B000230E1E074694
:1055E00001930293ADF80C3007DA2D21FFF7A8FFE5
:1055F0007642012300240A2105E0FBD13021FFF788
:105600009FFF01201DE004AA651C1444EDB296FB27
:10561000F1F201FB126604F80C6C2C461646002AC7
:10562000F1D12B44DCB25DB104AB2B44384613F806
:105630000D1C3031C9B2013DFFF782FFEDB2F2E738
:10564000204605B0F0BDA621FFF712BF00F072B8EA
:1056500008B5024B1B689B6C019308BD74020300E4
:1056600008B5034B1B68D3F89430019308BD0000C4
:105670007402030008B5024B1B689B68019308BDC8
:105680004802030008B5024B1B681B69019308BD63
:105690004802030008B5024B1B685B69019308BD13
:1056A0004802030008B5024B1B685B6C019308BD00
:1056B0004802030008B5024B1B689B6C019308BDB0
:1056C0004802030008B5024B1B68DB6C019308BD60
:1056D0004802030008B5024B1B685B6D019308BDCF
:1056E0004802030008B5024B1B685B68019308BDC4
:1056F0001802030008B5024B1B68DB68019308BD64
:105700001802030008B5024B1B685B69019308BDD2
:105710001802030008B5024B1B68DB69019308BD42
:105720001802030008B5024B1B689B6D019308BD6E
:105730001802030008B5024B1B681B68019308BDE3
:105740002C02030008B5024B1B68DB68019308BDFF
:105750002802030008B5024B1B689B69019308BD32
:105760002802030008B5024B1B68DB69019308BDE2
:105770002802030008B5024B1B681B6A019308BD91
:105780002802030008B5024B1B685B6A019308BD41
:105790002802030008B5024B1B689B6A019308BDF1
:1057A0002802030008B5024B1B68DB6A019308BDA1
:1057B0002802030008B5024B1B681B6B019308BD50
:1057C0002802030008B5024B1B681B6C019308BD3F
:1057D0002802030008B5024B1B685B69019308BDF2
:1057E0006402030008B5024B1B689B68019308BD67
:1057F0006802030008B5024B1B68DB68019308BD13
:105800006802030008B5024B1B681B68019308BDC2
:105810003C02030008B5024B1B689B68019308BD5E
:105820003C02030008B5024B1B68DB68019308BD0E
:105830003C02030008B5024B1B681B69019308BDBD
:105840003C02030008B5024B1B685B69019308BD6D
:105850003C02030008B5024B1B689B69019308BD1D
:105860003C02030008B5024B1B68DB69019308BDCD
:105870003C02030008B5024B1B689B6A019308BDFC
:105880003C02030008B5024B1B68DB6A019308BDAC
:105890003C02030008B5024B1B681B68019308BD5E
:1058A0004C02030008B5024B1B685B68019308BDFE
:1058B0004C02030008B5024B1B689B68019308BDAE
:1058C0004C02030008B5024B1B681B69019308BD1D
:1058D0004C02030008B5024B1B685B69019308BDCD
:1058E0004C02030008B5024B1B689B69019308BD7D
:1058F0004C02030008B5024B1B68DB69019308BD2D
:105900004C02030008B5024B1B681B6A019308BDDB
:105910004C02030008B5024B1B685B6B019308BD8A
:105920006002030008B5024B1B685B6D019308BD64
:105930006002030008B5024B1B68DB6E019308BDD3
:105940006002030008B5024B1B681B6F019308BD82
:105950006002030008B5024B1B681B68019308BD79
:105960002002030008B5024B1B685B68019308BD69
:105970002002030008B5024B1B685B69019308BD58
:105980002002030008B5024B1B68DB6C019308BDC5
:105990002002030008B5024B1B685B6D019308BD34
:1059A0002002030008B5024B1B689B6D019308BDE4
:1059B0002002030008B5034B1B68D3F8883001931D
:1059C00008BD00002002030008B5034B1B68D3F894
:1059D0009430019308BD00002002030008B5024B7B
:1059E0001B689B68019308BD4402030008B5024B85
:1059F0001B685B69019308BD4402030008B5024BB4
:105A00001B68DB69019308BD4402030008B5024B23
:105A10001B681B6A019308BD4402030008B5024BD2
:105A20001B685B6A019308BD4402030008B5024B82
:105A30001B681B6B019308BD4402030008B5024BB1
:105A40001B68DB6B019308BD4402030008B5024BE1
:105A50001B685B68019308BD4002030008B5024B58
:105A60001B689B68019308BD4002030008B5024B08
:105A70001B68DB68019308BD4002030008B5024BB8
:105A80001B681B69019308BD4002030008B5024B67
:105A90001B685B69019308BD4002030008B5024B17
:105AA0001B689B69019308BD4002030008B5024BC7
:105AB0001B68DB69019308BD4002030008B5024B77
:105AC0001B681B6A019308BD4002030008B5024B26
:105AD0001B681B6B019308BD4002030008B5024B15
:105AE0001B685B6B019308BD4002030008B5024BC5
:105AF0001B681B68019308BD1C02030008B5024B1C
:105B00001B685B68019308BD1C02030008B5024BCB
:105B10001B689B68019308BD1C02030008B5024B7B
:105B20001B68DB68019308BD1C02030008B5024B2B
:105B30001B685B69019308BD1C02030008B5024B9A
:105B40001B689B69019308BD1C02030008B5024B4A
:105B50001B68DB69019308BD1C02030008B5024BFA
:105B60001B685B6A019308BD1C02030008B5024B69
:105B70001B68DB6A019308BD1C02030008B5024BD9
:105B80001B681B6B019308BD1C0203000021FFF77B
:105B9000F1BE10B5836804460BB902F038FCC36847
:105BA0009847A3681BB10322214620469847204608
:105BB0001021BDE8104002F00EBC10B5044600688C
:105BC00008B1FFF777FD204610BD10B50368044605
:105BD0009B689847A368013BA3602BB923682046C4
:105BE000DB68BDE81040184710BD0B68036013B1B7
:105BF0005A6801325A60704710B50446006828B1EF
:105C00004368013B43600BB9FFF7DFFF204610BD3F
:105C100038B50C6803689C4205460CD014B1636823
:105C200001336360286828B14368013B43600BB9C6
:105C3000FFF7CBFF2C60284638BD000010B5064C9E
:105C4000002320462360FFF72DFD2046034A044928
:105C5000BDE8104002F0BABB28E30320A0E1032016
:105C6000BB5B0D00002211464068FFF707BF002212
:105C700011464068FFF722BF002211464068FFF737
:105C80002DBF00224068FFF721BF002281F00101F3
:105C90004068FFF70BBF00231A4619464068FFF71C
:105CA000FDBE00231A4619464068FFF7EFBE0022EA
:105CB00011464068FFF7D2BE002202214068FFF77C
:105CC000D5BE00231A464068FFF7C0BE38B5084C61
:105CD00028252A460021204603F006FB4FF0FF331B
:105CE0006360044B258004225A60034A1A6038BD61
:105CF00034E303202CE303200CC00D007047002088
:105D0000704710B51021044602F065FB204610BD17
:105D100008B508B1FFF7F5FF08BD0022026010B515
:105D20004FF69C728280B1F9044084808A800268B8
:105D30000C6804600A6010BD10B504460068FFF7E7
:105D4000DDFE204610BD38B5C468F4B12378022BBF
:105D500003D104F10C00FFF7EFFF656835B1284669
:105D6000FFF7D6F81021284602F035FBA56835B1BB
:105D70002846FFF7CDF81021284602F02CFB2046DC
:105D80001421BDE8384002F026BB38BD07B58DE8C8
:105D9000060082680AB902F03AFBC36801AA6946A4
:105DA000984703B05DF804FB13B5044691E805007D
:105DB00000234B600B602060626001A80193009398
:105DC000FFF71AFF204602B010BDF7B50C4602AD32
:105DD00054F8043B45F8083D06460F4601A8214605
:105DE000FFF703FF29463046FFF7DEFF01A8FFF764
:105DF00003FF2046FFF700FF3846082102F0EBFAC8
:105E0000304603B0F0BD13B50B46044603C88DE819
:105E1000030093E8030084E803009DE8030083E89F
:105E2000030002B010BD000038B500230446036033
:105E300010200D46FEF731F928B10123436083603D
:105E4000024B0360C5602060204638BD40C00D0095
:105E5000826810B50AB902F0DAFAC368BDE81040EA
:105E6000184708B5006800F11001FFF7F1FF08BD01
:105E7000826810B50AB902F0CAFAC368BDE81040DA
:105E8000184708B5006800F11001FFF7F1FF08BDE1
:105E900038B5002383608B6804460D462BB102227F
:105EA0009847EB68E360AB68A360204638BD00000C
:105EB000F0B589B004686846FFF72FFF00238DF81E
:105EC00008304FF00202D4E84F3F002B03D1C4E862
:105ED000412F0029F7D102D08DF8083063E014F18A
:105EE0000C0503D069462846FFF717FFBFF35F8F05
:105EF00001236370002004F10803BFF35F8F53E8B0
:105F0000006F43E80002002AF9D1BFF35F8F002E33
:105F100049D0FFF737FD20B129463046FFF798FFFB
:105F20003AE0314602A8FFF7B3FFE068B4F9105039
:105F300008B103F033FA06901020ADF81C50FEF7BC
:105F4000ACF80546E8B1002787601820FEF7A5F8F1
:105F5000044688B10146876002A8FFF754FF049BFE
:105F6000A268A360059B049206A9E268E36004F1BD
:105F700010000592FFF7D1FE0D4BEB600D4B2C602E
:105F8000AB6006A8FFF7D8FE02A8FEF7C1FF00220B
:105F900029460948FFF7FEFC3046FEF7B9FF1021FD
:105FA000304602F018FA6846FFF7C6FE09B0F0BDA9
:105FB000635E0D00D9600D00935B0D002DE9F04F7D
:105FC0008BB006460F46904699469DF850A0FFF7C5
:105FD0000DFD07AD834630BB4FF62E73059005A926
:105FE0002846ADF81830FFF798FE1420FEF755F854
:105FF000044658B10223037001234370C0F804B073
:10600000C0F808B029460C30FFF787FE304621461D
:1060100040F8044BFFF708FF2846FFF78DFE05A860
:10602000FFF78AFE52E000240C2314206C60AC6061
:106030000793FEF732F8014618B1047044704460CB
:10604000846004A80391FFF7EFFE224B0893082019
:10605000FEF723F8044628B1039B40F8043B04A94B
:10606000FFF7C3FD00955FFA8AF34A46414638467A
:106070000994FFF7CBFC20B9039B5B7803F0FF0288
:1060800083B1039B059304A906A8FFF7AEFD05A9FC
:106090003046FFF789FE06A8FFF7AEFD04A8FFF71C
:1060A000ABFD13E04FF69C7305A903A80592ADF86C
:1060B0001830FFF7FDFE05A8FFF73EFE05A8099979
:1060C000FFF783FE06A8FFF797FDDAE730460BB02F
:1060D000BDE8F08F49620D00022AF8B5044606D0EB
:1060E000032A17D0012A22D10B6803601FE0182071
:1060F0000E68FDF7D2FF054650B13146FFF7C8FEE6
:106100003069B6F9147008B103F048F92861AF821C
:1061100025600CE0046854B104F11000FFF70CFE98
:106120002046FEF7F5FE1821204602F054F9002023
:10613000F8BD38B5002383608B6804460D462BB14B
:1061400002229847EB68E360AB68A360204638BD45
:10615000022A70B5044606D0032A11D0012A18D1AC
:106160000B68036015E014200E68FDF796FF0546E6
:1061700020B13146FFF7DDFF337C2B74256008E04A
:10618000046834B12046FEF7C3FE1421204602F015
:1061900022F9002070BD0000F0B5002387B00C4646
:1061A000BFF35F8F50E8006F40E80032002AF9D15A
:1061B000BFF35F8F002E3FD01846FFF7E3FB074683
:1061C00020B121463046FFF753FE2EE0314601A8AC
:1061D000FFF7AFFF23788DF814301020FDF75DFF37
:1061E0000546D0B187601420FDF757FF044678B10B
:1061F0008760014601A8FFF706FE039BA268A36023
:10620000049B0392E268E3609DF8143004922374C7
:106210000A4BEB600A4B2C60AB6001A8FEF778FEDE
:10622000002229460748FFF7B5FB3046FEF770FE0F
:106230001021304602F0CFF807B0F0BD835E0D00AC
:1062400051610D00935B0D0030B585B004460D46DD
:1062500068461146FFF7B9FD7CB124B228460DB15E
:1062600003F09CF8029002A96846ADF80C40FFF7D5
:106270001FFE02A8FFF760FD1DE000988DF80840A2
:106280004FF00102D0E84F3FA34203D1C0E8412FB5
:106290000029F7D102D08DF808300CE010F10C0184
:1062A0004FF0010318BF0373BFF35F8F043000F892
:1062B000033CFFF771FF01A8FFF79EFC05B030BD5E
:1062C000002211464068FFF7F9BB002211464068E2
:1062D000FFF704BC00224068FFF7F8BB002281F002
:1062E00001014068FFF7E2BB00231A4619464068E7
:1062F000FFF7D4BB00231A4619464068FFF7C6BB18
:10630000002211464068FFF7B9BB002211464068E1
:10631000FFF7A4BB002202214068FFF7A7BB0023C0
:106320001A464068FFF792BB024B03225A60024AAA
:106330001A6070475CE303205CC00D007047F8B53D
:10634000064615460C468F18BC4206D0336814F832
:10635000011B9B6830469847F6E72846F8BD0022A7
:10636000007CFFF707BA0021007CFFF70BBA002181
:10637000007CFFF70FBA0021007CFFF713BA002161
:10638000007CFFF717BA10B51421044602F023F879
:10639000204610BD10B50446002363604FF47A73A5
:1063A000A360044B2174084623601146FFF70AFAE4
:1063B000204610BD90C00D0000231A461946007CEF
:1063C000FFF7C0B90022007CFFF7C4B9C9B2FFF7DC
:1063D000F9BF0022007CFFF7C5B90121FFF7F9BF23
:1063E000704710B51821044601F0F5FF204610BD96
:1063F000F0B5037D062B8DB00E4600F104074FF07B
:10640000000402D000F1080518E00CAD394605F88B
:10641000304D2F232A460A20FFF7DCF9284602F0E8
:10642000D8FF33680246DB682946304698470FE0BC
:1064300024B12E21304601F04DFB044415F8011D16
:106440000A22304601F05FFBBD420444F0D12046F1
:106450000DB0F0BD10B5054B0446112240F8043BC9
:10646000002102F041FF204610BD00BFB8C00D0062
:106470000346074A10B543F8042B01F1100251F806
:10648000044B43F8044B9142F9D10A781A7010BDBD
:10649000B8C00D0010B59DF8084044EA032343EA54
:1064A000024242EA016104234160037510BD37B521
:1064B0000D788B784A78C97800912946FFF7EAFF72
:1064C00003B030BD00F11002012312F8101C0129A5
:1064D000104604D152F8041C03EB410304E00229E6
:1064E00004BF52F8041C5B18013B02F11002ECD10E
:1064F00070470EB42DE9F04187B000AF07F13404C6
:10650000054654F8046B7C6023463246102107F19F
:106510000800FFF723FB0F2816D900F1080323F02A
:106520000703E846ADEB030D3246411C234668469F
:106530007C60FFF713FB021E04DD2B6869469B6835
:1065400028469847C54607E030B12B6802469B684D
:1065500007F10801284698471C37BD46BDE8F041C1
:1065600003B0704713B502AB026803F8011D9468CD
:1065700019460122A04702B010BD8368FBB11A780A
:10658000032A1AD8DFE802F00417021D052070471D
:1065900002685B685268D05C2D2814D0A0F13003EB
:1065A000092B10D9742810D066280ED0A0F16E03E4
:1065B00058425841704706207047002070471846DF
:1065C000704704207047032070470220704710B5C1
:1065D0000446FFF7D2FF02280DD016D3042814D8A2
:1065E0002268A36850685B680A2200211844BDE84D
:1065F000104003F025BE2268A36852685B68D05C37
:10660000A0F174035842584110BD002010BD10B5D0
:10661000436904465BB18068E060013B1030A060D4
:10662000206163612BB1FFF74DFFA06001E01846C8
:1066300010BD012010BD10B57D210446FFF792FF6B
:1066400001232371204610BD08B50379012B02D028
:10665000022B02D008BD2C2100E03A21FFF782FF77
:1066600008BD10B50446FFF7EFFF20467B21FFF77A
:1066700079FF00232371204610BD000038B5044681
:106680000D46FFF7E1FF23680449DB6820462A46F0
:10669000984701232371204638BD00BFDEBA0D00A4
:1066A00038B504460D46FFF7CFFF23680449DB6881
:1066B00020462A46984701232371204638BD00BF53
:1066C00042BC0D00F8B50D461746222104462F4462
:1066D000FFF748FF2A462946BA4238D0164616F830
:1066E000015B222D03D05C2D01D01F2D2DD82368F6
:1066F000521A9B68204698475C212046FFF732FFDC
:106700000C2D19D007D8092D0FD00A2D12D0082D25
:1067100014D162210AE0222D05D05C2D03D00D2D6D
:106720000CD1722102E0294600E074212046FFF7D7
:1067300019FF09E06E21F9E76621F7E723680A49A6
:10674000DB682A462046984731463246C4E79142E4
:1067500004D02368521A9D682046A847222120466B
:10676000FFF700FFF8BD00BFDBC00D0070B50446A9
:106770000D461646FFF768FF204632462946FFF7CA
:10678000A1FF02232371204670BD70B504460D465B
:106790001646FFF759FF204632462946FFF792FF7B
:1067A00001232371204670BD10B500230446036009
:1067B00043601048A060E360D1B10B78032B06D092
:1067C000B3B9136858684B68C35C6E2B08D0136864
:1067D00058684B680344A3608B6849685B1AE360A0
:1067E0001146204651F8043B40F8043BFFF710FAED
:1067F000204610BD38BC0D00002310B504460360D0
:1068000043608360C3600361436171B10B78012B06
:106810000BD101F110038360CB684361114651F83D
:10682000043B40F8043BFFF7F3F9204610BD00237A
:1068300010B5044603604360816031B1114651F8E0
:10684000043B40F8043BFFF7E3F9204610BD8068A5
:106850000368DB681847704719B10B6808465B6826
:106860001847704719B10B6808465B6818477047AE
:1068700070477047704738B504460D4600682E21B2
:1068800002F070FD2368C31A2B6023B1037803B1B3
:10689000013023682060184638BD10B50C2104462D
:1068A00001F099FD204610BD10B50421044601F009
:1068B00092FD204610BD10B50421044601F08BFD69
:1068C000204610BD38B50C46054601F091FC8442C7
:1068D0000DD001F001FC844205D101F0FDFBBDE8C3
:1068E000384001F0F6BB21462846FFF7BBFF38BD14
:1068F00008B502F041FDB0FA80F0400908BD38B596
:10690000054608460C4602F064FD2146024628462C
:10691000BDE83840FFF739BF0068FEF7D3BE70B559
:10692000044608460D4602F054FD236802462946F7
:106930002046DB68BDE87040184713B502AB02681B
:1069400003F8011DD46819460122A04702B010BD0A
:106950002DE9F04F4568076885B0914614225543EC
:106960000193AB10194D02925D438B463C460123C7
:10697000002D039323DD029B6E1003FB06F004EB56
:1069800000084A46B8F804A02058D14528BF52460E
:10699000594602F026FD039B48B9D14503D1019A1F
:1069A00013703546E4E78CBF0120002000E0C00FE3
:1069B0000028F6D0AE1B08F11404013EF1E7E41BF9
:1069C0000248A410604305B0BDE8F08FCDCCCCCC1C
:1069D000F0B585B003690191067E13B309B304AF26
:1069E000002347F8043D00F10C041D46394601A878
:1069F000FFF741FF0146A0B104AB039A03F8055D20
:106A00002046FFF7A5FF9DF80B3053B123681424EF
:106A100004FB0034083434F9023C002BA8BFDEB27A
:106A2000E4E7304605B0F0BD10B5094C2368DB073C
:106A30000BD42046FDF742FB38B12046FDF743FB5F
:106A4000044A0549054801F0C1FC044810BD00BFD7
:106A500064E30320A0E1032073680D00ACE0032091
:106A600010B5094C2368DB070BD42046FDF726FB45
:106A700038B12046FDF727FB044A0549054801F0D7
:106A8000A5FC044810BD00BF94E30320A0E103204F
:106A900071680D00A8E0032038B5002504460560A4
:106AA0004560856005614561856140F8245FFEF7BA
:106AB000F9FDFFF7B9FFE061FFF7D2FF2573206210
:106AC000204638BD10B50A4C2368DB070ED420469B
:106AD000FDF7F4FA50B10748FFF7DEFF2046FDF757
:106AE000F2FA054A0549034801F070FC014810BD5F
:106AF00068E303206CE30320A0E103202F6F0D0067
:106B00000023024A02490348FEF71CBF116E0D0024
:106B1000A16D0D00296D0D0000231A461946184677
:106B2000FEF710BF73B502AC8E6851F8043B44F811
:106B3000083D054601A8FFF758F822463146284689
:106B4000FFF75AFE01A8FFF757F8284602B070BDBC
:106B500073B502AC0E6951F8043B44F8083D054694
:106B600001A8FFF742F8224631462846FFF75FFEAC
:106B700001A8FFF741F8284602B070BD73B502AC1A
:106B8000CE6851F8043B44F8083D054601A8FFF7DC
:106B90002CF8224631462846FFF706FE01A8FFF7EB
:106BA0002BF8284602B070BD30B58BB00D460146BB
:106BB00004A8FFF7B7FF04A8FFF729FDE8B104A96F
:106BC0006846FFF7DBFF0F490298FFF791FE044686
:106BD00010B12C1C18BF012401A8FFF70DF8002CE0
:106BE000E9D004A96846FFF7B3FF6846FFF7EFFC5A
:106BF000286001A8FFF700F8DDE705A8FEF7FCFF15
:106C00000BB030BD14C10D0037B50C4620461349FA
:106C1000154602F0B1FB40B901F0EAFA4FF4165103
:106C200001F0D6FA01F0E4FA15E00D49204602F031
:106C3000A3FB78B902A94FF4165341F8043D284646
:106C4000FFF7B2FF01F048FA019901F03FFA01F0B5
:106C500043FA00E0002003B030BD00BF19C10D00B1
:106C600020C10D0070B5046843681426054606FB74
:106C70000346A64205D004F10800FFF7F3FF1434E1
:106C8000F7E72868FEF73AFF284670BD70B504683C
:106C90004368054604EB0316A64204D0204600F0E4
:106CA000B1FF1034F8E72868FEF728FF284670BDCA
:106CB00010B504460C30FFF7D5FF2046FFF7E6FF7E
:106CC000204610BD10B5044B044640F8043BFFF7C6
:106CD000EFFF204610BD00BFF4B70D0010B504460D
:106CE000FFF7F0FF2046242101F075FB204610BD80
:106CF00010B5034B03600446FFF7E4FF204610BDC8
:106D000004C10D0010B50446FFF7F2FF2046242110
:106D100001F061FB204610BD10B5036804461868F9
:106D2000FEF7D8FC204610BD2DE9F04F9B461B4BCB
:106D30005B68C3F3080385B082460E46904653BB9A
:106D4000FFF7C0FE044624300390FFF7E5FD237BE8
:106D5000F3B90123237325686368F6B205EB830951
:106D60004D4513D055F8047B4146381DFFF730FEE2
:106D70008642F5D33B68CDF800B09B689E46384606
:106D80004346324651467746B847E9E70023237326
:106D900003A8FFF7C1FF05B0BDE8F08F00ED00E0EC
:106DA0002DE9F74F9946194B5B68C3F30803074673
:106DB0008846164633BBFFF785FE04462430019013
:106DC000FFF7AAFD237BD3B90123237325686368EA
:106DD0005FFA86FB05EB830A55450ED055F8046B28
:106DE0004946301DFFF7F4FD8345F5D3336842462D
:106DF000DB68394630469847EEE70023237301A845
:106E0000FFF78AFF03B0BDE8F08F00BF00ED00E0A0
:106E10002DE9F341154B5B68C3F30803044688462C
:106E2000FBB9FFF74FFE064624300190FFF774FDD3
:106E300096E8A000462605EB8707AF4207D101A8D8
:106E4000FFF76AFFB442B4BF002001200AE055F802
:106E5000040B41460430FFF7BBFD8642A8BF06463F
:106E6000EBE7002002B0BDE8F08100BF00ED00E0DC
:106E700070B503684268044603EB82029A421846E2
:106E80000ED006680D68AE4203F10403F6D1011D71
:106E9000521A02F00EFA6368013B6360012070BD74
:106EA000002070BD1FB50446243001910390FFF708
:106EB00033FD01A92046FFF7DBFF20B903A8FFF748
:106EC0002BFF04B010BD6368002BF7D1FFF724FE41
:106ED000F4E770B5056943691826044606FB0356B6
:106EE000AE4215D005F110012046FFF7C1FF6368DF
:106EF0000BB9FFF711FEE06929690368DB68984761
:106F0000696919B1206A0368DB6898471835E7E7B3
:106F100025696369182606FB0356B54204D0284646
:106F200000F070FE1835F8E70023636170BD73B59B
:106F3000044602ADFFF7F0FD04F1240045F8040D0E
:106F4000FFF7EAFC2046FFF7C4FF2846FFF7E4FE00
:106F5000606A08B1FEF7AEFB25696369182606FB77
:106F60000356B54204D0284600F04CFE1835F8E729
:106F70002069FEF7C3FD2068FEF7C0FD204602B081
:106F800070BD03680A6802600B6043684A6842602B
:106F90004B6083688A6882608B60704710B50023FD
:106FA0000446036043608360FFF7EBFF204610BD9B
:106FB0008842F8B50446164625D9904224D2551A7F
:106FC000143D2C44A1F11407A2F10C050026A5F1F3
:106FD00008039F4237D084B155F8083C236035F848
:106FE000043CA38035F9023CE380A660E66026619C
:106FF000294604F10800FFF7C4FF2846FFF732FED8
:10700000143C143DE3E71ED001F108050027A5F16B
:1070100008039E4217D084B155F8083C236035F828
:10702000043CA38035F9023CE380A760E760276158
:10703000294604F10800FFF7A4FF2846FFF712FED7
:1070400014341435E3E7F8BDF8B5456883689D420C
:1070500004460E4617460EDB0135002D05DDA9005E
:107060000068FEF753FD20B9F8BD0068FEF746FD45
:1070700000202060A5602568626805EB860105EBAD
:107080008202521A081D02F014F945F8267063684E
:10709000013363600120F8BD37B5044624300D4646
:1070A0000190FFF739FC2368616803EB810083429C
:1070B0001A4609D01268AA4203F10403F7D101A8C5
:1070C000FFF72AFE00250EE02A462046FFF7BCFF08
:1070D00005460028F3D06368012B01D1FFF710FDAE
:1070E00001A8FFF719FE284603B030BD8842F8B565
:1070F00006460C46154614D9904213D2A2F110054B
:107100006C1AA1F110070444AF4218D01CB12946F3
:10711000204600F067FD284600F074FD103D103C4D
:10712000F2E70CD0AC420AD01EB12146304600F046
:1071300059FD204600F066FD10341036F2E7F8BD28
:1071400070B50E1E05460BDD3001FEF7CFFC044680
:1071500070B195E8060001EB0212FFF7C7FF00E0EF
:1071600000242868FEF7CAFC2C60AE60012070BDC8
:1071700070BD2DE9F04F002395B092464622036082
:1071800043608360C3600361436102760291DAF871
:10719000041008939942054609930A9340F39D8091
:1071A00008A8FFF7CDFF002840F097808EE0214629
:1071B0000BA800F017FD0BA90FA8099E00F012FD07
:1071C00009990A9B9942C0F2CE80013108A8FFF7C5
:1071D000B7FF002840F0C7800FA800F013FD0BA8F0
:1071E00000F010FD1434A742E1D100260B960C9656
:1071F0000D96B146099B9E4280F2A8803301089A01
:10720000D3580693002B00F09F8014237343CDF8CE
:107210001C9001930BAC07A906A8FFF72CFB0746AF
:10722000002800F0918014AB014603F8399D079ABD
:107230002046FFF78DFB9DF817800090B8F1000FF6
:1072400053D1BDF81C30ADF840304FF6FF730F97A7
:10725000ADF84230CDF84480CDF84880CDF84C8070
:107260006768A3689F424FDA009BD4F800B061685A
:10727000142253430BEB030702FB01B207F1140086
:1072800039460393FFF794FEA7B1039B0F9A4BF87F
:107290000320BDF84030BB80BDF94230FB80C7F809
:1072A0000890C7F80C90C7F8109011A907F10800D2
:1072B000FFF767FE63680133636011A8FFF7D2FC34
:1072C000B8F1000F11D00BA8FFF7CCFC08A8FFF70E
:1072D000DDFC284615B0BDE8F08FDAF80040DAF89A
:1072E0000430142707FB03477DE72368009A142422
:1072F00004FB0234069B1B7823BBDAF80030019AAA
:1073000013441B7CE3801DE00137002F0FDD1423A5
:1073100003FB07F00393FEF7E9FB834678B194E89B
:107320000600039B03FB0212FFF742FE00E0C34688
:107330002068FEF7E3FBC4F800B0A76094E74FF0C5
:107340000108BAE7083466E7013653E708A928467A
:10735000FFF717FE0BA905F10C00FFF712FE9DF8D1
:1073600008302B76AFE7089B099A03EB061603EB70
:107370000212314606F11000FFF7B8FE1EB10FA948
:10738000304600F02FFC099B0133099324E70000ED
:107390007FB50446094B44F8043B05460E4601A858
:1073A0001146FCF7C8FF01AA31462046FFF7E1FE6F
:1073B00001A8FCF77FFF284604B070BDF4B70D00AC
:1073C000F0B50F468BB02B49109C384616461D462B
:1073D00001F0D2FF28BB002C49D0294601A8FFF7B5
:1073E000DDFD2549242001F001F80546B8B101A9C9
:1073F00004A8FFF7D3FD04A907A8FCF79CFF07AA80
:1074000031462846FFF7C4FF07A8FCF753FF1B4B84
:107410002B602C6204A8FCF74DFF194B2B6001A8D0
:107420001FE01849384601F0A7FFF0B9FCB1294622
:1074300004A8FFF7B3FD1049242000F0D7FF05464C
:1074400070B104A907A8FCF776FF07AA31462846C1
:10745000FFF79EFF07A8FCF72DFF084B2B602C625F
:1074600004A8FCF727FF284602E0002000E02046A1
:107470000BB0F0BD72C10D0028C30D00F8C10D00A6
:1074800004C10D0076C10D00014B024A1A6070471D
:1074900098E3032087C10D002DE9F047089DD0F83F
:1074A000209004460E461746984600F0A1FE8145FE
:1074B00005D15A4800F073FA002840F0AC802B79CF
:1074C0001B0705D56B69564A206A002100F03BFB7B
:1074D000B8F1000F0DD05B212046FFF72EFA414690
:1074E0002046FFF71CFA23684E49DB68022220463B
:1074F00098472B79D90725D5D5F808802F21404604
:1075000001F097FF08B100F1010841462046FFF75E
:1075100006FA2B799A0709D53A212046FFF70DFA8A
:10752000EB68414A206A002100F00DFB2B7913F033
:10753000040F236818BF3D49DB6808BF3C4902229D
:10754000204698472B795B0718D529690A461346C8
:1075500013F8010B38B1202801D1194601E0282881
:1075600001D01A46F3E72368521ADB682046984791
:1075700023683049DB6804222046984700213846BA
:10758000FEF7D8F901462046FFF7C9F923682849D4
:10759000DB680222204698471EB131462046FFF79D
:1075A000BEF92B7913F0300F2DD023682249DB6808
:1075B0002046022298472B79D8060BD523681F490D
:1075C000DB68072220469847AB691D4A206A0021E4
:1075D00000F0B9FA2B79990611D5DA0605D523689A
:1075E0001249DB6802222046984723681549DB6868
:1075F00020460A229847E9692046FFF790F95D2165
:107600002046FFF79AF923680F49DB6820460222DB
:10761000BDE8F0471847BDE8F08700BF70E50320DC
:107620008BC10D0092C10D00DEBA0D0095C10D0099
:107630009AC10D0098C10D009DC10D00A0C10D00A3
:10764000A8C10D00ABC10D0036BC0D002DE9F04303
:1076500085B0D0F820800C9C06460F4691461D460A
:1076600000F0C6FD804505D14A4800F098F9002891
:1076700040F08C80336A484A01924FF0000801A81C
:1076800003938DF80880FEF7ECFF41464846FEF76D
:1076900051F942498046012201A8FFF767F84146A7
:1076A000FFF72DF93FB13E49012201A8FFF75EF82F
:1076B0003946FFF724F93DB13A49012201A8FFF705
:1076C00055F82946FFF71BF92379DF070ED5A56882
:1076D0002F21284601F0ADFE00B1451C32490122A0
:1076E00001A8FFF743F82946FFF709F923799D0719
:1076F00007D52E49022201A8FFF738F8E168FEF706
:10770000BDFF2379580716D525692F463B4613F848
:10771000012B3AB1202A01D11D4601E0282A01D0CF
:107720001F46F3E70222224901A8FFF71FF87A1B40
:107730002946FFF72AF82379190707D51D490122A1
:1077400001A8FFF713F86169FEF7AAFF2379DA06AB
:1077500008D5042218490DEB0200FFF707F8A169CC
:10776000FEF78CFF23799B0607D51449062201A852
:10777000FEF7FCFFE169FFF7C2F801A8FEF75BFF27
:10778000306A0F4903680222DB68984705B0BDE8FC
:10779000F08300BF70E50320ECC00D001EC10D009A
:1077A00031C10D00E7C10D0034B80D00B6C10D00A8
:1077B000B9C10D0046C10D00BCC10D00C1C10D0015
:1077C00036BC0D00002211464068FEF777B9002252
:1077D00011464068FEF782B900224068FEF776B98C
:1077E000002281F001014068FEF760B900231A46CB
:1077F00001214068FEF752B900231A461946406835
:10780000FEF744B9002211464068FEF737B900225E
:1078100011464068FEF722B9002202214068FEF7B7
:1078200025B900231A464068FEF710B938B5054659
:1078300088B104684CB1A3681BB1032221462046DD
:1078400098471021204600F0C6FD28461421BDE8C7
:10785000384000F0C0BD38BD10B103685B68184700
:10786000704710B503680446BBB15868FDF702FFC6
:1078700078B923685A7C12B95868FDF703FF23686A
:107880005868FDF707FF20680023236028B1FFF741
:10789000CDFF206808B1FFF7C9FF204610BD38B5FD
:1078A0000446D0F8C40108B1FCF7FBFBD4F8C001D2
:1078B00008B1FDF7FFFED4F8BC5135B12846FFF7FB
:1078C000D0FF0421284600F086FD206808B1FFF7AC
:1078D000C3FF204638BD000010B5044B044640F8F5
:1078E000083BFFF7DCFF204610BD00BF40C20D0083
:1078F00038B50E4C0E4B23600025022304F5E470CE
:107900006360A560C4F8C451C4F8C851FDF7CAFE4D
:10791000084BC4F8CC5184F8D05123602046064A65
:107920000649BDE8384000F051BD00BF9CE303208C
:1079300074C20D0040C20D00A0E10320D9780D00F3
:1079400000231A464068FEF781B8002202214068F1
:10795000FEF78CB8002211464068FEF77FB800227F
:1079600011464068FEF78AB800231A461946406857
:10797000FEF78CB800231A4619464068FEF78EB809
:10798000002281F001014068FEF790B800224068B3
:10799000FEF79CB8002211464068FEF79FB800220F
:1079A00011464068FEF78AB82DE9F043002495B0EF
:1079B00016460D460746FEF74DFD214620220CA82F
:1079C000009401F091FC40230C9321466B460CAAD5
:1079D0003046FDF70FFF0446002844D1024601213E
:1079E0006868FEF74BF80221804622466868FEF779
:1079F00045F8009E81462146002E34D0002932D120
:107A00007368022B02D00A2B09D02AE0B8F1000FCC
:107A100027D0716938460431FEF749FD20E0B9F1FD
:107A2000000F1ED07469112201A801F05DFC06232D
:107A30008DF8143001AD04F1080318341868596842
:107A40002A4603C20833A3421546F7D101A906A866
:107A500007ADFEF70DFD0FCD3C1D0FC42B68237045
:107A60000121F669C8E70098FDF7BCFE384615B05D
:107A7000BDE8F083024B034A1A6000225A60704747
:107A800070E5032074C20D00F8B506460D468F1848
:107A90000024BD420CD0336815F8011B9B683046AA
:107AA0009847002801DB0444F3E7002C08BF044694
:107AB0002046F8BD70B505460C46084649B101F0B0
:107AC00088FC2B68024621462846DB68BDE87040EA
:107AD000184770BD03689B68184738B50D210546E7
:107AE000FFF7F8FF0A2104462846FFF7F3FF20447A
:107AF00038BD38B50546FFF7DDFF04462846FFF7D9
:107B0000ECFF204438BD30B58BB00B4600218DF81A
:107B10002410012A98BF0A220DF12304B3FBF2F5C9
:107B200005FB123303F0FF03092B94BF30333733C7
:107B3000DBB2214604F801392B46002DEED1FFF7C8
:107B4000B9FF0BB030BD0CB42DE9F04387B000AFE6
:107B500007F13804054654F8049B3C600E46234662
:107B60004A461421381DFDF7F9FF132805D8391DA1
:107B70002846FFF79FFF044613E000F1080323F0B7
:107B80000703E846ADEB030D411C23464A46684611
:107B90003C60FDF7E3FF69462846FFF78BFF04468C
:107BA000C5461EB12846FFF798FF044420461C37FF
:107BB000BD46BDE8F04302B0704710B50446FDF77E
:107BC000A7F9204610BD00000348044A04490023D9
:107BD000836000F0FBBB00BF78E50320A0E1032039
:107BE000BB7B0D000023036043608360037310B50B
:107BF0000C6804604C6844608C6884600B604B6067
:107C00008B6010BD10B504460068FDF777FF204675
:107C100010BD10B50446006808B1FDF76FFF0023E2
:107C20002360A360636010BD38B504460D4600684C
:107C30000131FDF76BFF10B184E82100012038BD50
:107C400010B50368044613B143688B4207D220463F
:107C5000FFF7EAFF20B1A3680BB922681370012077
:107C600010BD70B50E46114604461546FFF7E8FFF5
:107C700018B92046FFF7CDFF09E02A463146A56036
:107C8000206801F00BFB2268A3680021D154204634
:107C900070BD38B5002304460360436083600373FE
:107CA0000D4639B1084601F094FB294602462046AC
:107CB000FFF7D7FF204638BD38B5054600680C46AB
:107CC00060B16A688B689A4206D3096801F05EFB6E
:107CD000A368AB6000230AE0FDF710FF23682B6068
:107CE00063686B60A368AB60002323606360A3607C
:107CF00038BD884210B50B46044607D0096819B153
:107D00009A68FFF7AEFF01E0FFF783FF204610BD42
:107D100010B5002304460360436083600373FFF7DC
:107D2000E8FF204610BD884210B5044601D0FFF799
:107D3000C3FF204610BD38B505460C4641B1084684
:107D400001F047FB214602462846FFF78AFF01E083
:107D5000FFF75FFF284638BD70B504460E4609B9E7
:107D6000002070BD6AB18368D5182946FFF768FF07
:107D70000028F5D02068A3683146184401F006FBBE
:107D8000A560012070BD38B505460C46084641B1D6
:107D900001F01FFB214602462846BDE83840FFF7A8
:107DA000DBBF38BD07B500238DF80410012201A9FF
:107DB0008DF80530FFF7D0FF03B05DF804FB10B578
:107DC000144683688A689B1AA3420AD3006858B194
:107DD000096841B1204401F004FBB0FA80F0400989
:107DE00010BD002010BD084610BD82688B689A4205
:107DF00002D30022FFF7E3BF0020704783688B4265
:107E000003D9006810B1405C704700207047FFF74D
:107E1000F5BF00000EB4FFB509AC054654F8047B6D
:107E2000019423463A46052102A8FDF797FE0C4926
:107E300006462846FFF72DFF31462846FFF700FF8C
:107E4000286830B123463A46711C0194FDF786FE3E
:107E5000A860284604B0BDE8F04003B0704700BFFA
:107E600038BC0D0010B50446006818B1FDF746FE99
:107E70000023236010BD10B50446FFF7F3FF204632
:107E800010BD000010B5094C00204FF6FF732060B4
:107E9000A080A07120816381FDF764FD2046044A23
:107EA0000449BDE8104000F091BA00BF88E5032006
:107EB000A0E10320777E0D00F0B5144B144F1E682F
:107EC000144B064418683B6806449E428BB01BD096
:107ED0000AA801AD40F8286D01F0E4F8436903F207
:107EE0006C73436104460FCC0FC50FCC0FC5D4F89B
:107EF00000E0C5F800E001AD0FCD074C0FC40FCD79
:107F00000FC43E60C4F800E00BB0F0BDC4E5032030
:107F1000C0E50320BCE5032094E5032008B500205C
:107F2000FDF784FD28B1FDF761FD80F00100C0B2CE
:107F300008BD012008BD000008B5FFF7BDFF044BD8
:107F4000986818B10C2802DD0C3808BD0C2008BD5B
:107F500094E50320FAEE087AB4EEE70AF1EE10FA9F
:107F60000FD4F2EE0C7AB4EEE70AF1EE10FA08DC68
:107F7000DFED047A044B20EE270ABDEEC00A83ED44
:107F8000000A704700006145C4E5032010B50020D9
:107F9000FDF7C8FB044668B9FDF7DCFC01280BD1EE
:107FA0002046FDF7FFFC38B9FFF7B8FF30B9FDF701
:107FB00015FDF9E7012010BD002010BDFFF7AEFF51
:107FC0000020FDF7AFFB003018BF012010BD08B541
:107FD000FFF7DCFFBDE80840FDF79CBB08B5FFF7E5
:107FE000F6FFBDE80840FFF7A7BF000008B5FFF7A0
:107FF000EEFFFFF761FF014B586808BD94E50320D1
:10800000024B1A68024B1A60704700BFB0E00320B1
:10801000B8E5032070474174704708B5007CFDF750
:1080200029FC20EAE07008BD08B5007CFDF702FCE1
:1080300020EAE07008BD08B5007CFDF70BFC30EAD3
:10804000200028BF4FF0FF3008BD08B5007CFDF7C9
:10805000F9FB30EA200028BF4FF0FF3008BD007C5C
:10806000FDF700BC10B51421044600F0B4F9204619
:1080700010BD70B5457C04460E4625B9007CFDF761
:10808000F9FB002805DD3146207CBDE87040FDF796
:10809000C9BB284670BD000010B50446084611460D
:1080A000002262604FF47A72A260054A22600122C7
:1080B000207462741A46FDF7A5FB204610BD00BF70
:1080C000D0C20D000023007CFDF7DCBB0022FFF7CF
:1080D000F9BF007CFDF79EBB38B50C4D296811F047
:1080E000010411D12846FBF7E9FF68B1084A094BA2
:1080F00009482146FFF7D0FF2846FBF7E4FF074A6F
:108100000749054800F062F9034838BD60E60320DE
:1081100064E60320DCE50320C8E50320A0E103209A
:1081200015800D0041747047704708B50021007C30
:10813000FDF7D8FB30EA200028BF4FF0FF3008BD24
:1081400008B50121007CFDF7CDFB30EA200028BFF7
:108150004FF0FF3008BD08B5007CFDF7BBFB20EAFF
:10816000E07008BD08B5007CFDF7ACFB20EAE070CC
:1081700008BD007CFDF7C6BB10B51421044600F015
:108180002AF9204610BD38B50446007C0D46FDF79F
:10819000A1FB002801DC607C28B12946207CFDF78A
:1081A000A9FB20EAE07038BD10B5044600236360E7
:1081B0004FF47A73A360054B2360012308462174B2
:1081C00063741146FDF766FB204610BD00C30D0029
:1081D0000022007CFDF766BB007CFDF76BBB10B591
:1081E00014220446002101F07FF8204610BD000053
:1081F00030B50E4D87B001A8FFF7F1FF296811F0E7
:10820000010410D12846FBF759FF60B101AA2146AD
:108210000748FFF7C9FF2846FBF755FF054A0649FF
:10822000034800F0D3F8024807B030BDE8E6032069
:10823000ECE60320A0E1032029810D0008B50C4BDA
:1082400033B1FFF7D5FF03681B699847002809DCA5
:10825000084B63B1FFF740FF03681B69984700288C
:1082600003DC08BDAFF30080F2E7AFF3008008BD88
:10827000000000000000000008B5FFF7DFFFFDF779
:1082800041FA014B186008BD08E703200248034A81
:108290000349121A01F002B800F4032004F4032089
:1082A000D0C60D0007B5002300931A466FF0770182
:1082B000FDF78AFB03B05DF804FB000007B54388B7
:1082C0000A2B08D0502B09D1094B1B683BB103B0D6
:1082D0005DF804EB1847FFF7E5FF06E00023009385
:1082E0001A466FF07701FDF76FFB03B05DF804FBF2
:1082F00000E7032038B5104C104D2368AB42104BFB
:108300000CBF012200221A7002D0FFF7BFFF2560C8
:10831000FDF7E8F9044600F0EFFF0A4B13B12046E1
:10832000AFF3008000210748FDF788FB00210648D5
:10833000BDE83840FDF73EBB00F403201E1C279A21
:1083400004E7032000000000BD820D0070B5044664
:1083500014252A46094E002100F0C6FF258020255D
:108360003146A5602561284600F04FF8314660602F
:10837000284600F04AF8E060204670BD28C30D0092
:1083800030B50E4D296811F0010487B013D128468D
:10839000FBF794FE78B101A8FFF7D8FF01AA2146A8
:1083A0000748FDF7F7FF2846FBF78DFE054A06490B
:1083B000034800F00BF8024807B030BD0CE703207B
:1083C00010E70320A0E103203D630D000B460146AA
:1083D000184600F059BEFBF762BE0000024B186859
:1083E000BFF35F8F704700BF24E7032010B500285C
:1083F00014BF044601242046FDF778FB20B9FFF79F
:10840000EDFF08B18047F6E710BDFFF7EFBF08B5F5
:10841000FDF7ACFB244B1A68D0075CBF01221A6041
:10842000224B1A68D1075CBF01221A60204B1A68E0
:10843000D2075CBF01221A601E4B1A68D0075CBFCE
:1084400001221A601C4B1A68D1075CBF01221A6016
:108450001A4B1A68D2075CBF01221A60184B1A68BF
:10846000D0075CBF01221A60164B1A68D1075CBFA7
:1084700001221A60144B1A68D2075CBF01221A60ED
:10848000124B1A68D0075CBF01221A60104B1A68A1
:10849000D1075CBF01221A600E4B1A68D2075CBF7D
:1084A00001221A60704700BF54E7032050E7032001
:1084B0004CE7032048E7032044E7032040E703207C
:1084C0003CE7032038E7032034E7032030E70320AC
:1084D0002CE7032028E70320184B1A68D1075CBF5C
:1084E00001221A60164B1A68D2075CBF01221A607B
:1084F000144B1A68D0075CBF01221A60124B1A682D
:10850000D1075CBF01221A60104B1A68D2075CBF0A
:1085100001221A600E4B1A68D0075CBF01221A6054
:108520000C4B1A68D1075CBF01221A600A4B1A680B
:10853000D2075CBF01221A60704700BF74E70320B6
:1085400070E703206CE7032068E7032064E703205B
:1085500060E703205CE7032058E70320184B1A6804
:10856000D1075CBF01221A60164B1A68D2075CBFA4
:1085700001221A60144B1A68D0075CBF01221A60EE
:10858000124B1A68D1075CBF01221A60104B1A689F
:10859000D2075CBF01221A600E4B1A68D0075CBF7D
:1085A00001221A600C4B1A68D1075CBF01221A60C5
:1085B0000A4B1A68D2075CBF01221A60704700BFDD
:1085C00094E7032090E703208CE7032088E703204B
:1085D00084E7032080E703207CE7032078E703207B
:1085E000244B1A68D0075CBF01221A60224B1A681C
:1085F000D1075CBF01221A60204B1A68D2075CBF0A
:1086000001221A601E4B1A68D0075CBF01221A6053
:108610001C4B1A68D1075CBF01221A601A4B1A68FA
:10862000D2075CBF01221A60184B1A68D0075CBFE2
:1086300001221A60164B1A68D1075CBF01221A602A
:10864000144B1A68D2075CBF01221A60124B1A68D9
:10865000D0075CBF01221A60104B1A68D1075CBFBB
:1086600001221A600E4B1A68D2075CBF01221A6001
:10867000704700BFC4E70320C0E70320BCE7032026
:10868000B8E70320B4E70320B0E70320ACE70320FA
:10869000A8E70320A4E70320A0E703209CE703202A
:1086A00098E7032081F0004102E000BF83F000431F
:1086B00030B54FEA41044FEA430594EA050F08BF7D
:1086C00090EA020F1FBF54EA000C55EA020C7FEA41
:1086D000645C7FEA655C00F0E2804FEA5454D4EBBE
:1086E0005555B8BF6D420CDD2C4480EA020281EA88
:1086F000030382EA000083EA010180EA020281EAC0
:108700000303362D88BF30BD11F0004F4FEA013111
:108710004FF4801C4CEA113102D0404261EB410120
:1087200013F0004F4FEA03334CEA133302D05242A6
:1087300063EB430394EA050F00F0A780A4F1010462
:10874000D5F1200E0DDB02FA0EFC22FA05F280189C
:1087500041F1000103FA0EF2801843FA05F3594182
:108760000EE0A5F120050EF1200E012A03FA0EFC01
:1087700028BF4CF0020C43FA05F3C01851EBE3712B
:1087800001F0004507D54FF0000EDCF1000C7EEB48
:1087900000006EEB0101B1F5801F1BD3B1F5001F86
:1087A0000CD349085FEA30004FEA3C0C04F10104A5
:1087B0004FEA445212F5800F80F09A80BCF1004FCE
:1087C00008BF5FEA500C50F1000041EB045141EA50
:1087D000050130BD5FEA4C0C404141EB010111F451
:1087E000801FA4F10104E9D191F0000F04BF0146FC
:1087F0000020B1FA81F308BF2033A3F10B03B3F1DA
:1088000020020CDA0C3208DD02F1140CC2F10C0269
:1088100001FA0CF021FA02F10CE002F11402D8BFC7
:10882000C2F1200C01FA02F120FA0CFCDCBF41EA93
:108830000C019040E41AA2BF01EB0451294330BD62
:108840006FEA04041F3C1CDA0C340EDC04F114043F
:10885000C4F1200220FA04F001FA02F340EA030016
:1088600021FA04F345EA030130BDC4F10C04C4F15C
:10887000200220FA02F001FA04F340EA030029463C
:1088800030BD21FA04F0294630BD94F0000F83F486
:10889000801306BF81F480110134013D4EE77FEA69
:1088A000645C18BF7FEA655C29D094EA050F08BFB5
:1088B00090EA020F05D054EA000C04BF1946104696
:1088C00030BD91EA030F1EBF0021002030BD5FEADA
:1088D000545C05D14000494128BF41F0004130BD02
:1088E00014F580043CBF01F5801130BD01F0004556
:1088F00045F0FE4141F470014FF0000030BD7FEAC9
:10890000645C1ABF194610467FEA655C1CBF0B46C3
:10891000024650EA013406BF52EA033591EA030FDA
:1089200041F4002130BD00BF90F0000F04BF0021D2
:10893000704730B54FF4806404F132044FF0000505
:108940004FF0000150E700BF90F0000F04BF00217E
:10895000704730B54FF4806404F1320410F00045E4
:1089600048BF40424FF000013EE700BF42004FEADF
:10897000E2014FEA31014FEA02701FBF12F07F435C
:1089800093F07F4F81F06051704792F0000F14BF59
:1089900093F07F4F704730B54FF4607401F000459D
:1089A00021F0004120E700BF50EA010208BF7047F4
:1089B00030B54FF000050AE050EA010208BF7047E9
:1089C00030B511F0004502D5404261EB41014FF452
:1089D000806404F132045FEA915C3FF4DCAE4FF056
:1089E00003025FEADC0C18BF03325FEADC0C18BF3D
:1089F000033202EBDC02C2F1200300FA03FC20FA8E
:108A000002F001FA03FE40EA0E0021FA02F11444DA
:108A1000C1E600BF70B54FF0FF0C4CF4E06C1CEAEF
:108A200011541DBF1CEA135594EA0C0F95EA0C0F64
:108A300000F0DEF82C4481EA030621EA4C5123EAD7
:108A40004C5350EA013518BF52EA033541F4801106
:108A500043F4801338D0A0FB02CE4FF00005E1FBB9
:108A600002E506F00042E0FB03E54FF00006E1FB03
:108A700003569CF0000F18BF4EF0010EA4F1FF0446
:108A8000B6F5007F64F5407404D25FEA4E0E6D4186
:108A900046EB060642EAC62141EA55514FEAC52097
:108AA00040EA5E504FEACE2EB4F1FD0C88BFBCF513
:108AB000E06F1ED8BEF1004F08BF5FEA500E50F1C4
:108AC000000041EB045170BD06F0004646EA01018A
:108AD00040EA020081EA0301B4EB5C04C2BFD4EBBC
:108AE0000C0541EA045170BD41F480114FF0000EB5
:108AF000013C00F3AB8014F1360FDEBF002001F023
:108B0000004170BDC4F10004203C35DA0C341BDC9C
:108B100004F11404C4F1200500FA05F320FA04F06E
:108B200001FA05F240EA020001F0004221F00041A2
:108B300010EBD37021FA04F642EB06015EEA430E15
:108B400008BF20EAD37070BDC4F10C04C4F1200545
:108B500000FA04F320FA05F001FA04F240EA0200F8
:108B600001F0004110EBD37041F100015EEA430EC9
:108B700008BF20EAD37070BDC4F1200500FA05F2E9
:108B80004EEA020E20FA04F301FA05F243EA020368
:108B900021FA04F001F0004121FA04F220EA020077
:108BA00000EBD3705EEA430E08BF20EAD37070BDBD
:108BB00094F0000F0FD101F00046400041EB01019D
:108BC00011F4801F08BF013CF7D041EA060195F07F
:108BD000000F18BF704703F00046520043EB030339
:108BE00013F4801F08BF013DF7D043EA0603704726
:108BF00094EA0C0F0CEA135518BF95EA0C0F0CD031
:108C000050EA410618BF52EA4306D1D181EA030176
:108C100001F000414FF0000070BD50EA410606BF70
:108C20001046194652EA430619D094EA0C0F02D1B5
:108C300050EA013613D195EA0C0F05D152EA0336FA
:108C40001CBF104619460AD181EA030101F0004118
:108C500041F0FE4141F470014FF0000070BD41F061
:108C6000FE4141F4780170BD70B54FF0FF0C4CF43B
:108C7000E06C1CEA11541DBF1CEA135594EA0C0F5A
:108C800095EA0C0F00F0A7F8A4EB050481EA030EA7
:108C900052EA03354FEA013100F088804FEA03338E
:108CA0004FF0805545EA131343EA12634FEA02225C
:108CB00045EA111545EA10654FEA00260EF000411D
:108CC0009D4208BF964244F1FD0404F5407402D26F
:108CD0005B084FEA3202B61A65EB03055B084FEA00
:108CE00032024FF480104FF4002CB6EB020E75EBFD
:108CF000030E22BFB61A754640EA0C005B084FEA25
:108D00003202B6EB020E75EB030E22BFB61A7546A1
:108D100040EA5C005B084FEA3202B6EB020E75EBEC
:108D2000030E22BFB61A754640EA9C005B084FEA64
:108D30003202B6EB020E75EB030E22BFB61A754671
:108D400040EADC0055EA060E18D04FEA051545EA60
:108D500016754FEA06164FEAC30343EA52734FEA09
:108D6000C2025FEA1C1CC0D111F4801F0BD141EA82
:108D700000014FF000004FF0004CB6E711F4801FE7
:108D800004BF01430020B4F1FD0C88BFBCF5E06FC7
:108D90003FF6AFAEB5EB030C04BFB6EB020C5FEAD7
:108DA000500C50F1000041EB045170BD0EF0004E2C
:108DB0004EEA113114EB5C04C2BFD4EB0C0541EA5E
:108DC000045170BD41F480114FF0000E013C90E65B
:108DD00045EA060E8DE60CEA135594EA0C0F08BF1F
:108DE00095EA0C0F3FF43BAF94EA0C0F0AD150EA1E
:108DF00001347FF434AF95EA0C0F7FF425AF1046B1
:108E000019462CE795EA0C0F06D152EA03353FF4D8
:108E1000FDAE1046194622E750EA410618BF52EA55
:108E200043067FF4C5AE50EA41047FF40DAF52EA29
:108E300043057FF4EBAE12E74FF0FF3C06E000BFC6
:108E40004FF0010C02E000BF4FF0010C4DF804CDD3
:108E50004FEA410C7FEA6C5C4FEA430C18BF7FEA93
:108E60006C5C1BD001B050EA410C0CBF52EA430CC1
:108E700091EA030F02BF90EA020F0020704710F141
:108E8000000F91EA030F58BF994208BF90422CBFD0
:108E9000D8176FEAE37040F0010070474FEA410CC9
:108EA0007FEA6C5C02D150EA013C07D14FEA430CE7
:108EB0007FEA6C5CD6D152EA033CD3D05DF8040B58
:108EC000704700BF8446104662468C46194663468A
:108ED00000E000BF01B5FFF7B7FF002848BF10F161
:108EE000000F01BD4DF808EDFFF7F4FF0CBF0120A6
:108EF00000205DF808FB00BF4DF808EDFFF7EAFF22
:108F000034BF012000205DF808FB00BF4DF808EDDC
:108F1000FFF7E0FF94BF012000205DF808FB00BFD1
:108F20004DF808EDFFF7CEFF94BF012000205DF85B
:108F300008FB00BF4DF808EDFFF7C4FF34BF012068
:108F400000205DF808FB00BF4FEA410212F5001255
:108F500015D211D56FF47873B3EB625212D94FEA80
:108F6000C12343F0004343EA505311F0004F23FA6A
:108F700002F018BF404270474FF00000704750EABF
:108F8000013005D111F0004008BF6FF0004070477C
:108F90004FF00000704700BF4A0011D212F50012D6
:108FA00011D20DD56FF47873B3EB62520ED44FEA41
:108FB000C12343F0004343EA505323FA02F07047C1
:108FC0004FF00000704750EA013002D14FF0FF30FF
:108FD00070474FF0000070474FEA4102B2F1E043A2
:108FE00024BFB3F5001CDCF1FE5C0DD901F0004C90
:108FF0004FEAC0024CEA5070B2F1004F40EB8300E0
:1090000008BF20F00100704711F0804F21D113F10B
:109010003872BCBF01F00040704741F480114FEA44
:109020005252C2F11802C2F1200C10FA0CF320FACD
:1090300002F018BF40F001004FEAC1234FEAD323EA
:1090400003FA0CFC40EA0C0023FA02F34FEA430354
:10905000CCE77FEA625307D150EA01331EBF4FF0DD
:10906000FE4040F44000704701F0004040F0FE40F8
:1090700040F40000704700BF002101F025B80A222B
:10908000002101F0DDB8000010B5054C13462CB1ED
:109090000A4601460220AFF3008010BD204610BDF5
:1090A0000000000038B5074B1C68E36B05461BB990
:1090B0002420FCF71BFDE063E16B2846BDE8384047
:1090C00000F002B818E103202DE9F0410C4680467B
:1090D00001F0E6FE21460746404601F0E5FE4669FE
:1090E00006F26C76B307044605D1642296FBF2F3D0
:1090F00002FB13634BB94FF4C87596FBF5F305FB00
:109100001365B5FA85F35B0900E001235F4A30255A
:1091100005FB032501F0DAF901F0DAF95C4B1B6875
:10912000F3B17B689E4205D13968D8F80030FA69FE
:1091300041B90AE0304601F021F90028F4D14FF09E
:10914000FF330DE0934208DB01E0934207DABA6B8C
:109150009342ACBF0023012302E0002300E001237F
:109160002362236A012B0CBFF96B396A4FF46163E8
:109170003C2091FBF3F603FB1613616893FBF0F2BE
:1091800000FB12302368891AA26861601B1A921BC7
:109190003B2B2360A26003DD013161603C3B04E0B6
:1091A000002B03DA013961603C33236063683B2B99
:1091B00003DD0132A2603C3B04E0002B03DA013AFC
:1091C000A2603C336360A368172B22DDE2690132A1
:1091D000E261A2690132062AC8BF0022A261E268E8
:1091E000183B0132A3602369E26055F823108A42DC
:1091F00046DD01330C2B0CBF63692361A2EB010236
:10920000E26001BF013300222261636108BFE261B5
:1092100036E0002B34DAE269013AE261A269013AF0
:1092200048BF0622A261E2681833013AE260A360F7
:1092300032BB2369013B01D423611DE00B23236171
:1092400063695A1E12F0030F626103F26B7305D15A
:10925000642193FBF1F201FB12324AB94FF4C87159
:1092600093FBF1F201FB1233B3FA83F35B0900E0E5
:10927000012303F5B673E361236955F82330E360F6
:1092800001F025F92046BDE8F08100BF94C40D002F
:10929000E4E70320004870471CE1032010B5431E9B
:1092A0000A44914204D011F8014B03F8014FF8E74A
:1092B00010BD884210B501EB020301D8421E0BE03D
:1092C0009842FBD28118D21AD34204D013F8014D30
:1092D00001F8014DF8E710BD994204D011F8014B97
:1092E00002F8014FF8E710BD02440346934202D052
:1092F00003F8011BFAE7704738B5124B1C68A36BE3
:109300000546D3B91820FCF7F1FB43F20E33A063F6
:1093100003804AF6CD33438041F2342383804EF2FA
:109320006D63C3804DF6EC630381052343810B23FA
:10933000838101220023C0E90423A36B00221D6165
:109340005A6138BD18E10320C9B2034610F8012B59
:109350001AB19142F9D11846704700290CBF18463E
:109360000020704710B50446FFF7EEFF18B92046FD
:1093700000F02FF8204410BD10F8012B11F8013B2C
:10938000012A28BF9A42F7D0D01A7047034611F835
:10939000012B03F8012B002AF9D17047024B01463B
:1093A000186800F003B800BF18E1032070B5064646
:1093B00008460C4600F00DF8451C29463046FCF7DF
:1093C000DDFB064618B12A462146FFF767FF304607
:1093D00070BD034613F8012B002AFBD1181A01387F
:1093E000704730B582B1451E013915F8013F11F8BB
:1093F000014FA34206D1EC431444E04201D0002BBC
:10940000F3D11C46181B30BD104630BD10B50346C5
:1094100042B111F8014B03F8014B013A002CF7D18E
:109420001A4400E010BD934202D003F8014BFAE762
:1094300010BD38B503460D4641B1002429461846F3
:10944000FFF782FF30B1431C0446F7E7BDE8384020
:10945000FFF77ABF204638BDF0B5037863B90B78C3
:10946000002B18BF0020F0BD15F8012F62B114F8D1
:10947000017F97423046F7D00346461C007810B172
:109480004D1E5C1EF0E7F0BD1846F0BD70B50446F9
:109490000D4645EC104B164602F064F851EC100BEB
:1094A0007EB1C5F30A53C3F16B03002B09DD1B0525
:1094B00003F17F55002405F5401522462B46FFF7A2
:1094C000A9FA70BD000000002DE9F04F9DB0002307
:1094D00002900C46139218934FF0000A4FF0000BC5
:1094E0001791179B1A780D2A05D8092A13D2002A3A
:1094F00000F0AC8112E02B2A04D02D2A04D0202ABF
:109500000CD108E0002200E001220C925A1C1792B4
:109510005B782BB99AE101331793E2E700230C93B0
:10952000179D2B78302B5CD16B78582B01D0782B82
:109530004CD10C9B019318AB0093A94A029819AB2C
:1095400017A901F096F910F00706044600F0878588
:10955000062E05D10135002317950C9300F07FBD31
:10956000189A3AB135211AA802F0E9F81899029828
:1095700001F067FD062E22D8DFE806F0040D08187A
:109580001D0D04004FF0000BDA4618E0DDF868A06E
:10959000DDF86CB013E01B9B199ADDF868A023F48A
:1095A000801302F2334243EA025B08E0DFF834B290
:1095B0004FF0000A03E06FF0004B4FF0FF3A210735
:1095C00040F14D854BF0004B00F049BD179B5A1CF4
:1095D00017925B78302BF9D0002B00F040850123E7
:1095E00000E000234FF000080693179B0793CDF887
:1095F0001480CDF810800A22179D2E78A6F1300332
:10960000D9B209290ED804990829DDBF059902FBB2
:109610000133059302FB0838049B013501330493A1
:109620001795E9E70298FFF735FE07680298FFF7FC
:1096300031FE0068FFF7CDFE394602462846FFF7A7
:10964000D0FE074628B100203346049D024601465D
:1096500057E00298FFF71EFE0068FFF7BAFE179B5F
:109660001A181792049A1B5C002A42D11046302B1C
:1096700005D1179B5A1C179201305B78F7E7A3F1CD
:109680003102082A43D8179A07920246002005465D
:10969000303B00F1010126D00A4405EB000C2946BD
:1096A0000A2661450ED0013101F1FF3EBEF1080FDF
:1096B00003DC059F77430597F3E71029D8BF06FB26
:1096C00008F8EEE72844082800F1010505DC0598B4
:1096D0000A2101FB0033059304E0102DDCBF0A21B1
:1096E00001FB08380021179B581C17905B7808462F
:1096F00002E0049D38463A46A3F130010929C7D952
:109700000121652B01D0452B51D16DB904E0652BAA
:1097100040F0B3840022012128B9069B002B00F001
:109720009580054600E00025179C631C179363781D
:109730002B2B06D02D2B02D00026039606E001230A
:1097400000E000230393A31C1793A378A3F1300632
:10975000092E2BD8302B04D1179B5E1C17965B78F3
:10976000F8E7A3F13106082E21D8A3F1300E179B9C
:109770004FF00A0C1F46179B5E1C17965B78A3F1EF
:109780003009B9F1090F04D80CFB0E3EAEF1300ED2
:10979000F1E7F61B082E44F61F6902DCF145A8BF6D
:1097A000F146039E2EB1C9F1000902E017944FF073
:1097B0000009002D53D1002840F05184069A002A58
:1097C00040F04D84002941D14E2B20D002DC492BA2
:1097D0000AD03BE0692B07D06E2B18D036E000BFD3
:1097E000F4C40D000000F07FA84917A801F072FA38
:1097F00060B3179BA649013B17A8179301F06AFABB
:1098000010B9179B01331793DFF8A0B21AE0A149F2
:1098100017A801F05FFAC8B1179B1B78282B0FD14E
:109820001AAA9D4917A801F068FA052808D11B9BC0
:10983000DDF868A043F0FF4B4BF4E00B00F00FBCE9
:10984000DFF86CB24FF0000A00F009BC139B1794CC
:10985000002B00F00F8400230C9300F002BC049B4B
:109860000598002B08BF2B46102D2C46C2EB09098A
:10987000A8BF10240493FFF757F8092C82468B46A3
:1098800013DD864B03EBC40353E91223FFF7C2F841
:10989000064640460F46FFF747F802460B4630465D
:1098A0003946FEF705FF82468B460F2D36DCB9F1AF
:1098B000000F00F0D48324DDB9F1160F07DC774DDB
:1098C00005EBC90952465B46D9E9000114E0C5F130
:1098D0002503994522DC714CC5F10F0504EBC50148
:1098E000C5EB090552465B46D1E9000104EBC5040E
:1098F000FFF790F8D4E90023FFF78CF882468B46F7
:10990000ADE319F1160F09DB644DA5EBC909D9E9DF
:10991000002350465946FFF7A7F9EFE72C1B4C44AC
:10992000002C57DD14F00F010AD05C4B03EBC10192
:1099300052465B46D1E90001FFF76CF882468B4640
:1099400034F00F0400F0B880B4F59A7F0BDD0024EA
:10995000254605940494029ADFF850B1222313603F
:109960004FF0000A87E14E4E00232411504659461D
:1099700098463746012C0BDDE20704D5D6E90023D3
:10998000FFF748F8012308F1010864100836F1E7F1
:109990000BB182468B46ABF1547B07EBC8075246AE
:1099A0005B46D7E90001FFF735F821F000438B460D
:1099B0000A461B0D3B491B058B428246C7D8A1F5C1
:1099C00080118B4286BFDFF8ECB04FF0FF3A02F116
:1099D000547B71E070D0644214F00F020AD02F4B18
:1099E00003EBC20350465946D3E90023FFF73CF985
:1099F00082468B4624115FD01F2C04DD00242546AF
:109A00000594049430E114F0100F0CBF00236A2376
:109A1000254E0393504659460023002C09DDE207EA
:109A200004D5D6E90023FEF7F5FF012364100836BC
:109A3000F3E70BB182468B46039BEBB1CBF30A53A2
:109A4000C3F16B03002B594616DD1F2B0EDD342BA3
:109A5000DEBF203B4FF0FF3202FA03F34FF0000A63
:109A6000CCBF4FF05C7B03EA010B05E04FF0FF3207
:109A700002FA03F303EA0A0A002200235046594679
:109A8000FFF730FA0028B9D118E000BF1CC50D005F
:109A90001FC50D0025C50D0008C50D0090C50D00A2
:109AA00058C60D000000A07C28C50D000000F07F06
:109AB0000000F8FFFFFFEF7F00230393059B009357
:109AC000049A079902982B4601F00DFB0590002897
:109AD0003FF43DAFB9F1000FC9F10003A8BF002367
