:02000002D0002C
:1040000000400D007C9D0D00000006000C00050125
:084010000401E70500000000B7
:0440180030920D00D5
:1040200009480A49884208B505D0094A824202D0A7
:10403000121A02F06FFF0748074A0021121A02F015
:1040400074FF014808BD00BF34E10320649C0D00EB
:1040500024E2032024E20320F0E7032070B501F0FE
:1040600089FF074C074BE41AA40800251E46A54209
:1040700004D056F8253098470135F8E770BD00BFE9
:10408000589C0D00149C0D0000F072B808B500F0AB
:10409000DBF8BDE8084001F02FBF00F0F7BD00F0ED
:1040A000FDBD00F0FBBD0078B0FA80F0400970471C
:1040B00001230370704700002DE9F0478EB08DEDAD
:1040C000071ACDED080A8DED090A01F093FE234988
:1040D00001F0F5FB01F08EFE9DED090A824610EE1F
:1040E000100A02F083FADDED080A804610EE900A0D
:1040F000894602F07BFA9DED071A064611EE100A7A
:104100000F4602F073FA04460D46154A0121CDE927
:104110000445CDE90267CDE900895046DFF84CA09F
:1041200001F0F7FB0F4800F035F95246CDE9008960
:1041300010210AA800F0CAFD5246CDE900671021FF
:104140000AA800F0C3FDCDE90045074A10210AA8DE
:1041500000F0BCFD0EB0BDE8F08700BF44920D003A
:1041600057920D0074E2032076920D0071920D00BB
:1041700010B501F03FFE184C4FF4165101F02EFE21
:1041800001F03EFF01F076F9204600F097F8204656
:1041900000F000F9204600F064F9204600F0A3F892
:1041A00000222046022100F0ABF820460B4C0C49BF
:1041B00000F012F90B49204600F05EFA0A49204649
:1041C00000F018FB782100F04DFAB1EE0C0ABDE8C2
:1041D000104001F0CFBC00BF74E2032028E20320AE
:1041E0007B920D0084920D00B9400D0070B501F076
:1041F000FEFC01F003FD104E104C306001F006FD96
:104200000F4D2860204600F02CF9204600F06BF896
:1042100005222046042100F073F83168204600F0A2
:10422000E8F82046074900F0D7F829682046BDE89D
:10423000704000F0DEB800BF70E2032074E203209B
:104240006CE20320EA950D0008B5034800F084FAFB
:10425000BDE80840FFF7CABF28E2032010B5064CAE
:1042600000F068FB204600F0D7F92046034A0449D5
:10427000BDE8104001F0EABE28E2032024E203205A
:1042800091440D000368C9B29B68184710B50C46ED
:1042900001F0B6FE3C2101F0F7F801F0B1FE8021FB
:1042A000FFF7F0FF01F0ACFE036821469B689847DA
:1042B00001F0A6FEBDE8104001F0EDB810B5AE214A
:1042C0000446FFF7E3FF052000F020FDAF21204664
:1042D000FFF7DCFF052000F019FD2046A621BDE810
:1042E0001040FFF7D3BF10B501230446037020210F
:1042F000FFF7CCFF20460221BDE81040FFF7C6BF04
:1043000038B550391446C9B20546FFF7BFFFE10082
:10431000284601F00801FFF7B9FFC4F3430128461E
:104320001031BDE83840FFF7B1BF10B50C4601F0C1
:1043300067FE3C2101F0A8F801F062FE4021FFF782
:10434000A1FF01F05DFE036821469B68984701F0DC
:1043500057FEBDE8104001F09EB80000A1F1200317
:104360005F2B0B4B88BF202170B56FF4807203EB7D
:10437000C10503EBC10306461544A3F1F90415F882
:10438000011F3046FFF7D1FFA542F8D170BD00BF35
:1043900092920D0070B5AE210546FFF777FF00261B
:1043A0000022F1B22846FFF7ABFF10242021284657
:1043B000013CFFF7D3FF14F0FF04F7D10136082EBC
:1043C000EED12846AF21FFF761FF2246214628465D
:1043D000BDE87040FFF794BF70B505460E46002457
:1043E000E3B20134F15C19B12846FFF7B7FFF7E7F4
:1043F00070BDF0B585B000230E1E074601930293F1
:10440000ADF80C3007DA2D21FFF7A8FF7642012323
:1044100000240A2105E0FBD13021FFF79FFF012096
:104420001DE004AA651C1444EDB296FBF1F201FBF9
:10443000126604F80C6C2C461646002AF1D12B4467
:10444000DCB25DB104AB2B44384613F80D1C30319F
:10445000C9B2013DFFF782FFEDB2F2E7204605B099
:10446000F0BDA621FFF712BF00F064BA30B40368B4
:10447000126858689C681B68096810F0010F4FEAC1
:10448000600018BF2558204418BFEB5830BC1847AF
:1044900010B5064B044640F82C3B01F089FA04F1B4
:1044A0000C0001F085FA204610BD00BF9C950D0060
:1044B00010B50446FFF7ECFF2046442101F0CBFD88
:1044C000204610BD30B5194D194C024689B02868F8
:1044D00092F82E3010F8011C0793536B069392F854
:1044E0002B30059392F82A30049392F829300393E5
:1044F00092F82830029392F82730019392F82630F0
:1045000000930C4A0C4B241A5B2918BF13460B4A24
:10451000214600F0DBFB844206D32B68084A18448E
:10452000136828600133136009B030BD80E30320B5
:104530007AE30320A4950D004F970D00A6950D007A
:1045400078E203202DE9F043436A85B00446002B4E
:1045500037D0104602F02CFD03AA1B49054603F094
:10456000AEFB58B302F0C8FB03AA1749002057EC72
:10457000106B03F0A4FB08B302F0BEFB03AA1249C0
:10458000002059EC108B03F09AFBB8B102F0B4FB99
:1045900051EC100B02F060FB49460190404602F0DE
:1045A0005BFB39460090304602F056FB636A9DED96
:1045B000011ADDED000A00EE100A9847284600F0C7
:1045C0006DFB05B0BDE8F083A4950D00022A38B557
:1045D000044605D0032A0FD0012A11D10B6809E047
:1045E0000C200D68FFF759FD034618B195E8070048
:1045F00083E80700236003E00C21006801F02BFD35
:10460000002038BD10B58368044613B1032201466B
:104610009847204610BD000038B50F4B03600025B9
:1046200042F210730446456083600C490C3001F07F
:1046300006FA4FF4FA53A362E56125626562084900
:1046400004F12C0001F0FBF94FF49B73E3634FF48A
:10465000CD732364204638BD9C950D0084920D00D7
:10466000DC950D0002234360042998BF05214FF417
:104670007A7359438160704710B504460C3001F0DD
:10468000F1F9204610BD0000F8B5104C104F114E46
:104690001149002520463D6002F082FC04F10B0325
:1046A00033605B23A37229460C4800F01BFA336881
:1046B0005D221A707D225A709A70DD701A1D3B6857
:1046C000326003B923700148F8BD00BF7DE20320CA
:1046D00078E2032080E30320E1950D00C5440D003E
:1046E00030B585B0054601F085FB184901F0E7F8C3
:1046F0002846FFF7C9FF044601F07CFB2346144A15
:10470000012101F006F92378F3B100F03FFAD8B1A6
:10471000104BE9681B788DF8003022463C2302A834
:1047200000F0AAFC039C7CB16368013B63605BB949
:10473000236820469B689847A368013BA3601BB988
:1047400023682046DB68984705B030BDEC950D0026
:10475000FC950D007CE2032010B5036A022B044691
:104760000BD0032B23D0002B34D100F00FFA88B3E9
:104770000223236200F0C6F817E000F0C3F8E369F3
:10478000C01AA36A984225D36368012B03D120463F
:10479000FFF7A6FF00E013B90423236210BD032333
:1047A000236200F0AFF8A368C01AE06110BD00F00A
:1047B000EDF970B100F0A6F8E369C01AA368984259
:1047C00008D300F09FF8E0612046BDE81040FFF7F5
:1047D00087BF206210BD38B5002383608B68044614
:1047E0000D462BB102229847EB68E360AB68A360EB
:1047F000204638BD30B58BB0C5684162044606A876
:1048000000F0CCF9069B00931B4A1C482B464FF442
:10481000807100F05BFA06A801F0CAF800250C20B0
:104820000495FFF73AFC18B1154B846080E8280026
:10483000144B0290059302A9134B049306A8FFF7AB
:10484000CAFF089B7BB11020FFF727FC054650B13B
:1048500006A9FFF7C0FF0023019300932A460B49E6
:10486000064800F0ABF906A8FFF7CCFE02A8FFF758
:10487000C9FE20460BB030BD08960D007DE2032036
:1048800045450D006D440D00CD450D00494E0D0010
:10489000024B01221A7000F04DB800BF7CE20320E9
:1048A00000F048B808B5024B1B689B68019308BD2F
:1048B0004802030008B5024B1B681B69019308BD41
:1048C0004802030008B5024B1B685B69019308BDF1
:1048D0004802030008B5024B1B685B6C019308BDDE
:1048E0004802030008B5024B1B689B6C019308BD8E
:1048F0004802030008B5024B1B685B68019308BDC2
:104900001802030008B5024B1B685B69019308BDE0
:104910001802030008B5024B1B68DB69019308BD50
:104920001802030008B5024B1B689B6D019308BD7C
:104930001802030008B5024B1B681B68019308BDF1
:104940002C02030008B5024B1B68DB68019308BD0D
:104950002802030008B5024B1B689B69019308BD40
:104960002802030008B5024B1B68DB69019308BDF0
:104970002802030008B5024B1B681B6A019308BD9F
:104980002802030008B5024B1B685B6A019308BD4F
:104990002802030008B5024B1B689B6A019308BDFF
:1049A0002802030008B5024B1B68DB6A019308BDAF
:1049B0002802030008B5024B1B681B6B019308BD5E
:1049C0002802030008B5024B1B681B6C019308BD4D
:1049D0002802030008B5024B1B685B69019308BD00
:1049E0006402030008B5024B1B689B68019308BD75
:1049F0006802030008B5024B1B68DB68019308BD21
:104A00006802030008B5024B1B681B68019308BDD0
:104A10003C02030008B5024B1B68DB68019308BD2C
:104A20003C02030008B5024B1B681B69019308BDDB
:104A30003C02030008B5024B1B685B69019308BD8B
:104A40003C02030008B5024B1B689B69019308BD3B
:104A50003C02030008B5024B1B68DB69019308BDEB
:104A60003C02030008B5024B1B689B6A019308BD1A
:104A70003C02030008B5024B1B681B68019308BD8C
:104A80004C02030008B5024B1B685B68019308BD2C
:104A90004C02030008B5024B1B681B69019308BD5B
:104AA0004C02030008B5024B1B685B69019308BD0B
:104AB0004C02030008B5024B1B689B69019308BDBB
:104AC0004C02030008B5024B1B68DB69019308BD6B
:104AD0004C02030008B5024B1B681B6A019308BD1A
:104AE0004C02030008B5024B1B68DB6D019308BD47
:104AF0007402030008B5024B1B681B68019308BDD4
:104B00002002030008B5024B1B685B68019308BDD7
:104B10002002030008B5024B1B685B69019308BDC6
:104B20002002030008B5024B1B68DB6C019308BD33
:104B30002002030008B5024B1B685B6D019308BDA2
:104B40002002030008B5024B1B689B6D019308BD52
:104B50002002030008B5034B1B68D3F8883001938B
:104B600008BD00002002030008B5034B1B68D3F802
:104B70009430019308BD00002002030008B5024BE9
:104B80001B689B68019308BD4402030008B5024BF3
:104B90001B685B69019308BD4402030008B5024B22
:104BA0001B68DB69019308BD4402030008B5024B92
:104BB0001B681B6A019308BD4402030008B5024B41
:104BC0001B685B6A019308BD4402030008B5024BF1
:104BD0001B681B6B019308BD4402030008B5024B20
:104BE0001B68DB6B019308BD4402030008B5024B50
:104BF0001B685B68019308BD4002030008B5024BC7
:104C00001B689B68019308BD4002030008B5024B76
:104C10001B68DB68019308BD4002030008B5024B26
:104C20001B681B69019308BD4002030008B5024BD5
:104C30001B685B69019308BD4002030008B5024B85
:104C40001B689B69019308BD4002030008B5024B35
:104C50001B68DB69019308BD4002030008B5024BE5
:104C60001B681B6A019308BD4002030008B5024B94
:104C70001B681B6B019308BD4002030008B5024B83
:104C80001B685B6B019308BD4002030008B5024B33
:104C90001B681B68019308BD1C02030008B5024B8A
:104CA0001B685B68019308BD1C02030008B5024B3A
:104CB0001B689B68019308BD1C02030008B5024BEA
:104CC0001B689B69019308BD1C02030008B5024BD9
:104CD0001B68DB69019308BD1C02030008B5024B89
:104CE0001B685B6A019308BD1C02030008B5024BF8
:104CF0001B68DB6A019308BD1C02030008B5024B68
:104D00001B681B6B019308BD1C0203000021FFF709
:104D100001BF10B5836804460BB901F0B8F9C36848
:104D20009847A3681BB10322214620469847204696
:104D30001021BDE8104001F08EB910B5044600689E
:104D400008B1FFF7CFFD204610BD10B5036804463B
:104D50009B689847A368013BA3602BB92368204652
:104D6000DB68BDE81040184710BD0B68036013B145
:104D70005A6801325A60704710B50446006828B17D
:104D80004368013B43600BB9FFF7DFFF204610BDCE
:104D900010B5064C002320462360FFF79BFD2046FC
:104DA000034A0449BDE8104001F050B984E30320F0
:104DB00024E203203B4D0D0070470020704710B5E2
:104DC0001021044601F047F9204610BD08B508B18E
:104DD000FFF7F5FF08BD0022026010B54FF69C7288
:104DE0008280B1F9044084808A8002680C68046083
:104DF0000A6010BD10B504460068FFF74FFF20465B
:104E000010BD38B5C468F4B12378022B03D104F186
:104E10000C00FFF7EFFF656835B12846FFF7F2FB9E
:104E20001021284601F017F9A56835B12846FFF78B
:104E3000E9FB1021284601F00EF920461421BDE8B7
:104E4000384001F008B938BD07B58DE80600826822
:104E50000AB901F01CF9C36801AA6946984703B072
:104E60005DF804FB13B5044691E8050000234B6090
:104E70000B602060626001A801930093FFF77CFF44
:104E8000204602B010BDF7B50C4602AD54F8043B05
:104E900045F8083D06460F4601A82146FFF765FF85
:104EA00029463046FFF7DEFF01A8FFF765FF2046E1
:104EB000FFF762FF3846082101F0CDF8304603B015
:104EC000F0BD13B50B46044603C88DE8030093E814
:104ED000030084E803009DE8030083E8030002B0B8
:104EE00010BD000038B500230446036010200D46B5
:104EF000FFF7D3F828B1012343608360024B0360BE
:104F0000C5602060204638BD24960D00826810B52B
:104F10000AB901F0BCF8C368BDE81040184708B5ED
:104F2000006800F11001FFF7F1FF08BD826810B5BD
:104F30000AB901F0ACF8C368BDE81040184708B5DD
:104F4000006800F11001FFF7F1FF08BD38B500233C
:104F500083608B6804460D462BB102229847EB68AC
:104F6000E360AB68A360204638BD0000F0B589B0AF
:104F700004686846FFF72FFF00238DF808304FF0D4
:104F80000202D4E84F3F002B03D1C4E8412F00298F
:104F9000F7D102D08DF8083063E014F10C0503D08E
:104FA00069462846FFF717FFBFF35F8F0123637041
:104FB000002004F10803BFF35F8F53E8006F43E85C
:104FC0000002002AF9D1BFF35F8F002E49D0FFF70E
:104FD000A9FD20B129463046FFF798FF3AE0314657
:104FE00002A8FFF7B3FFE068B4F9105008B101F070
:104FF000DFFF06901020ADF81C50FFF74EF8054675
:10500000E8B1002787601820FFF747F8044688B109
:105010000146876002A8FFF754FF049BA268A360C3
:10502000059B049206A9E268E36004F11000059272
:10503000FFF7D1FE0D4BEB600D4B2C60AB6006A86B
:10504000FFF7D8FE02A8FFF7DDFA0022294609483B
:10505000FFF770FD3046FFF7D5FA1021304600F01B
:10506000FAFF6846FFF7C6FE09B0F0BD1F4F0D00FE
:1050700095510D00134D0D002DE9F04F8BB00646F4
:105080000F46904699469DF850A0FFF77FFD07AD6B
:10509000834630BB4FF62E73059005A92846ADF820
:1050A0001830FFF798FE1420FEF7F7FF044658B1BA
:1050B0000223037001234370C0F804B0C0F808B0A5
:1050C00029460C30FFF787FE3046214640F8044B56
:1050D000FFF708FF2846FFF78DFE05A8FFF78AFEB9
:1050E00052E000240C2314206C60AC600793FEF7A0
:1050F000D4FF014618B1047044704460846004A871
:105100000391FFF7EFFE224B08930820FEF7C5FF3F
:10511000044628B1039B40F8043B04A9FFF725FE91
:1051200000955FFA8AF34A46414638460994FFF7EC
:105130003DFD20B9039B5B7803F0FF0283B1039B25
:10514000059304A906A8FFF710FE05A93046FFF74E
:1051500089FE06A8FFF710FE04A8FFF70DFE13E076
:105160004FF69C7305A903A80592ADF81830FFF718
:10517000FDFE05A8FFF73EFE05A80999FFF783FE8F
:1051800006A8FFF7F9FDDAE730460BB0BDE8F08F6F
:1051900005530D00022AF8B5044606D0032A17D09D
:1051A000012A22D10B6803601FE018200E68FEF769
:1051B00074FF054650B13146FFF7C8FE3069B6F9B5
:1051C000147008B101F0F4FE2861AF8225600CE094
:1051D000046854B104F11000FFF70CFE2046FFF7FD
:1051E00011FA1821204600F036FF0020F8BD38B52E
:1051F000002383608B6804460D462BB1022298473A
:10520000EB68E360AB68A360204638BD022A70B546
:10521000044606D0032A11D0012A18D10B68036076
:1052200015E014200E68FEF738FF054620B1314620
:10523000FFF7DDFF337C2B74256008E0046834B190
:105240002046FFF7DFF91421204600F004FF00207C
:1052500070BD0000F0B5002387B00C46BFF35F8F30
:1052600050E8006F40E80032002AF9D1BFF35F8FA9
:10527000002E3FD01846FFF755FC074620B12146C7
:105280003046FFF753FE2EE0314601A8FFF7AFFF8F
:1052900023788DF814301020FEF7FFFE0546D0B1BC
:1052A00087601420FEF7F9FE044678B18760014656
:1052B00001A8FFF706FE039BA268A360049B03926C
:1052C000E268E3609DF81430049223740A4BEB60AB
:1052D0000A4B2C60AB6001A8FFF794F90022294625
:1052E0000748FFF727FC3046FFF78CF910213046BE
:1052F00000F0B1FE07B0F0BD3F4F0D000D520D00A4
:10530000134D0D0030B585B004460D466846114674
:10531000FFF7B9FD7CB124B228460DB101F048FE7B
:10532000029002A96846ADF80C40FFF71FFE02A8E4
:10533000FFF760FD1DE000988DF808404FF0010276
:10534000D0E84F3FA34203D1C0E8412F0029F7D155
:1053500002D08DF808300CE010F10C014FF0010381
:1053600018BF0373BFF35F8F043000F8033CFFF7EF
:1053700071FF01A8FFF700FD05B030BD0022114606
:105380004068FFF76BBC002211464068FFF776BC0F
:1053900000224068FFF76ABC002281F001014068EA
:1053A000FFF754BC00231A4619464068FFF746BC75
:1053B00000231A4619464068FFF738BC0022114600
:1053C0004068FFF72BBC002211464068FFF716BC6F
:1053D000002202214068FFF719BC00231A464068EA
:1053E000FFF704BC024B03225A60024A1A6070475E
:1053F00088E3032040960D007047F8B50646154631
:105400000C468F18BC4206D0336814F8011B9B6809
:1054100030469847F6E72846F8BD0022007CFFF7A3
:10542000A9BA0021007CFFF7ADBA0021007CFFF78C
:10543000B1BA0021007CFFF7B5BA0021007CFFF76C
:10544000B9BA10B51421044600F005FE204610BD7F
:1054500010B50446002363604FF47A73A360044BD5
:105460002174084623601146FFF7ACFA204610BDB0
:1054700074960D0000231A461946007CFFF762BAA5
:105480000022007CFFF766BAC9B2FFF7F9BF00221D
:10549000007CFFF767BA0121FFF7F9BF704710B52D
:1054A0001821044600F0D7FD204610BDF0B5037D5D
:1054B000062B8DB00E4600F104074FF0000402D019
:1054C00000F1080518E00CAD394605F8304D2F23E2
:1054D0002A460A20FFF77EFA284601F084FD336849
:1054E0000246DB682946304698470FE024B12E215A
:1054F000304600F0D5F9044415F8011D0A22304663
:1055000000F0E7F9BD420444F0D120460DB0F0BDF3
:1055100010B5054B0446112240F8043B002101F070
:1055200004FD204610BD00BF9C960D000346074AAF
:1055300010B543F8042B01F1100251F8044B43F865
:10554000044B9142F9D10A781A7010BD9C960D0057
:1055500010B59DF8084044EA032343EA024242EAB8
:10556000016104234160037510BD37B50D788B7858
:105570004A78C97800912946FFF7EAFF03B030BDA9
:10558000014B024A1A60704790E303201B970D00FD
:10559000002211464068FFF761BB002211464068B7
:1055A000FFF76CBB00224068FFF760BB002281F070
:1055B00001014068FFF74ABB00231A4601214068F9
:1055C000FFF73CBB00231A4619464068FFF72EBB85
:1055D000002211464068FFF721BB002211464068B7
:1055E000FFF70CBB002202214068FFF70FBB00232E
:1055F0001A464068FFF7FABA38B5054688B104681C
:105600004CB1A3681BB103222146204698471021C4
:10561000204600F020FD28461421BDE8384000F067
:105620001ABD38BD10B103685B681847704710B5E4
:1056300003680446BBB15868FFF734F978B92368AA
:105640005A7C12B95868FFF735F923685868FFF794
:1056500039F920680023236028B1FFF7CDFF2068C7
:1056600008B1FFF7C9FF204610BD38B50446D0F891
:10567000C40108B1FEF715FDD4F8C00108B1FFF769
:1056800031F9D4F8BC5135B12846FFF7D0FF0421D9
:10569000284600F0E0FC206808B1FFF7C3FF204671
:1056A00038BD000010B5044B044640F8083BFFF736
:1056B000DCFF204610BD00BF90970D0038B50E4CA2
:1056C0000E4B23600025022304F5E4706360A5609F
:1056D000C4F8C451C4F8C851FFF7FCF8084BC4F82B
:1056E000CC5184F8D05123602046064A0649BDE8D3
:1056F000384000F0ABBC00BF94E30320C4970D001A
:1057000090970D0024E20320A5560D0000231A46B1
:105710004068FFF76BBA002202214068FFF776BAB3
:10572000002211464068FFF769BA0022114640681E
:10573000FFF774BA00231A4619464068FFF776BA95
:1057400000231A4619464068FFF778BA002281F014
:1057500001014068FFF77ABA00224068FFF786BA75
:10576000002211464068FFF789BA002211464068BE
:10577000FFF774BA2DE9F043002495B016460D46A4
:105780000746FFF7C5FE214620220CA8009401F031
:10579000CCFB40230C9321466B460CAA3046FFF706
:1057A00029F90446002844D1024601216868FFF720
:1057B00035FA0221804622466868FFF72FFA009EDC
:1057C00081462146002E34D0002932D17368022B45
:1057D00002D00A2B09D02AE0B8F1000F27D0716956
:1057E00038460431FFF7C1FE20E0B9F1000F1ED0AA
:1057F0007469112201A801F098FB06238DF814307A
:1058000001AD04F108031834186859682A4603C228
:105810000833A3421546F7D101A906A807ADFFF743
:1058200085FE0FCD3C1D0FC42B6823700121F66946
:10583000C8E70098FFF7D6F8384615B0BDE8F08302
:10584000024B034A1A6000225A60704768E5032041
:10585000C4970D00F8B506460D468F180024BD42CA
:105860000CD0336815F8011B9B6830469847002818
:1058700001DB0444F3E7002C08BF04462046F8BDD2
:1058800070B505460C46084649B101F0ACFB2B68E3
:10589000024621462846DB68BDE87040184770BDC7
:1058A00003689B68184738B50D210546FFF7F8FFD8
:1058B0000A2104462846FFF7F3FF204438BD38B5D7
:1058C0000546FFF7DDFF04462846FFF7ECFF2044BE
:1058D00038BD30B58BB00B4600218DF82410012A5D
:1058E00098BF0A220DF12304B3FBF2F505FB123336
:1058F00003F0FF03092B94BF30333733DBB221466B
:1059000004F801392B46002DEED1FFF7B9FF0BB09B
:1059100030BD0CB42DE9F04387B000AF07F1380477
:10592000054654F8049B3C600E4623464A46142123
:10593000381DFFF7D3F9132805D8391D2846FFF77E
:105940009FFF044613E000F1080323F00703E84635
:10595000ADEB030D411C23464A4668463C60FFF709
:10596000BDF969462846FFF78BFF0446C5461EB1C0
:105970002846FFF798FF044420461C37BD46BDE883
:10598000F04302B0704710B50446FEF73BFE2046D8
:1059900010BD00000348044A04490023836000F05E
:1059A00055BB00BF70E5032024E2032087590D009A
:1059B00010B504460068FFF771F9204610BD10B518
:1059C0000446006808B1FFF769F900232360A3606B
:1059D000636010BD38B504460D4600680131FFF71D
:1059E00065F910B184E82100012038BD10B50368C5
:1059F000044613B143688B4207D22046FFF7EAFF03
:105A000020B1A3680BB922681370012010BD70B5D6
:105A10000E46114604461546FFF7E8FF18B9204622
:105A2000FFF7CDFF09E02A463146A560206801F066
:105A300071FA2268A3680021D154204670BD38B5A0
:105A40000023044603604360836003730D4639B14D
:105A5000084601F0C8FA294602462046FFF7D7FF5C
:105A6000204638BD38B505460C4641B1084601F020
:105A7000BAFA214602462846FFF7C9FF01E0FFF7C0
:105A80009EFF284638BD10B50446006818B1FFF7E0
:105A900005F90023236010BD10B50446FFF7F3FF9E
:105AA000204610BD10B5094C00204FF6FF73206052
:105AB000A080A07120816381FFF724F82046044A6A
:105AC0000449BDE8104000F0C1BA00BF80E50320E2
:105AD00024E20320995A0D00F0B5144B144F1E68B0
:105AE000144B064418683B6806449E428BB01BD09A
:105AF0000AA801AD40F8286D01F010F9436903F2DE
:105B00006C73436104460FCC0FC50FCC0FC5D4F89E
:105B100000E0C5F800E001AD0FCD074C0FC40FCD7C
:105B20000FC43E60C4F800E00BB0F0BDBCE503203C
:105B3000B8E50320B4E503208CE5032008B5002078
:105B4000FFF744F828B1FFF721F880F00100C0B258
:105B500008BD012008BD000008B5FFF7BDFF044BDC
:105B6000986818B10C2802DD0C3808BD0C2008BD5F
:105B70008CE50320FAEE087AB4EEE70AF1EE10FAAB
:105B80000FD4F2EE0C7AB4EEE70AF1EE10FA08DC6C
:105B9000DFED047A044B20EE270ABDEEC00A83ED48
:105BA000000A704700006145BCE5032010B50020E5
:105BB000FEF7B8FE044668B9FEF79CFF01280BD13A
:105BC0002046FEF7BFFF38B9FFF7B8FF30B9FEF740
:105BD000D5FFF9E7012010BD002010BDFFF7AEFF93
:105BE0000020FEF79FFE003018BF012010BD08B551
:105BF000FFF7DCFFBDE80840FEF78CBE08B5FFF7F5
:105C0000F6FFBDE80840FFF7A7BF000008B5FFF7A3
:105C1000EEFFFFF761FF014B586808BD8CE50320DC
:105C2000024B1A68024B1A60704700BF34E1032030
:105C3000B0E5032070474174704708B5007CFEF75B
:105C400011FF20EAE07008BD08B5007CFEF7EAFE0F
:105C500020EAE07008BD08B5007CFEF7F3FE30EAEC
:105C6000200028BF4FF0FF3008BD08B5007CFEF7CC
:105C7000E1FE30EA200028BF4FF0FF3008BD007C75
:105C8000FEF7E8BE10B51421044600F0E4F9204602
:105C900010BD70B5457C04460E4625B9007CFEF764
:105CA000E1FE002805DD3146207CBDE87040FEF7AE
:105CB000B1BE284670BD000010B504460846114626
:105CC000002262604FF47A72A260054A22600122CB
:105CD000207462741A46FEF795FE204610BD00BF80
:105CE00020980D0038B50C4D296811F0010411D130
:105CF0002846FEF7D8F968B1084A094B09482146F9
:105D0000FFF7DAFF2846FEF7D3F9074A07490548A7
:105D100000F09CF9034838BD58E603205CE60320F8
:105D2000D4E50320C0E5032024E20320355C0D0008
:105D300041747047704708B50021007CFEF7BAFE39
:105D400030EA200028BF4FF0FF3008BD08B5012120
:105D5000007CFEF7AFFE30EA200028BF4FF0FF3096
:105D600008BD08B5007CFEF79DFE20EAE07008BD86
:105D700008B5007CFEF78EFE20EAE07008BD007CCE
:105D8000FEF7A8BE10B51421044600F064F92046C1
:105D900010BD38B50446007C0D46FEF783FE002892
:105DA00001DC607C28B12946207CFEF78BFE20EACE
:105DB000E07038BD10B50446002363604FF47A7379
:105DC000A360054B236001230846217463741146C8
:105DD000FEF750FE204610BD50980D000022007CBA
:105DE000FEF750BE10B514220446002101F09DF8C4
:105DF000204610BD30B50E4D87B001A8FFF7F2FF69
:105E0000296811F0010410D12846FEF74CF960B161
:105E100001AA21460748FFF7CDFF2846FEF748F9BB
:105E2000054A0649034800F011F9024807B030BDA1
:105E3000E0E60320E4E6032024E20320355D0D00C4
:105E4000002211464068FEF7E9BE00221146406874
:105E5000FEF704BF002211464068FEF70FBF002284
:105E60004068FEF703BF002281F001014068FEF7A1
:105E7000EDBE00231A4619464068FEF7DFBE002338
:105E80001A4619464068FEF7D1BE00221146406806
:105E9000FEF7B4BE002202214068FEF7B7BE002321
:105EA0001A464068FEF7A2BE024B04225A60024A1C
:105EB0001A607047F8E6032080980D0008B50C4B77
:105EC00033B1FFF797FF03681B699847002809DC87
:105ED000084B63B1FFF706FF03681B69984700286A
:105EE00003DC08BDAFF30080F2E7AFF3008008BD2C
:105EF000000000000000000008B5FFF7DFFFFEF71C
:105F000001FD014B186008BD08E703200248034A61
:105F10000349121A00F0FEBF00F4032004F403202A
:105F2000609C0D0007B5002300931A466FF07701BF
:105F3000FEF71AFE03B05DF804FB000007B54388C6
:105F40000A2B08D0502B09D1094B1B683BB103B079
:105F50005DF804EB1847FFF7E5FF06E00023009328
:105F60001A466FF07701FEF7FFFD03B05DF804FB02
:105F700000E7032038B5104C104D2368AB42104B9E
:105F80000CBF012200221A7002D0FFF7BFFF25606C
:105F9000FEF7B0FC044600F0D1FF0A4B13B12046D7
:105FA000AFF3008000210748FEF718FE00210648E5
:105FB000BDE83840FEF7CEBD00F403201E1C279A32
:105FC00004E70320000000003D5F0D0070B50446AB
:105FD00014252A46094E002100F0A7FF2580202520
:105FE0003146A5602561284600F04FF831466060D3
:105FF000284600F04AF8E060204670BDAC980D00DD
:1060000030B50E4D296811F0010487B013D1284630
:10601000FEF749F878B101A8FFF7D8FF01AA214699
:106020000748FFF715FA2846FEF742F8054A0649E1
:10603000034800F00BF8024807B030BD0CE703201E
:1060400010E7032024E20320F9530D000B4601461C
:10605000184600F055BEFEF722B80000024B186843
:10606000BFF35F8F704700BF24E7032010B50028FF
:1060700014BF044601242046FEF708FE20B9FFF7AE
:10608000EDFF08B18047F6E710BDFFF7EFBF08B599
:10609000FEF72CFE244B1A68D0075CBF01221A6061
:1060A000224B1A68D1075CBF01221A60204B1A6884
:1060B000D2075CBF01221A601E4B1A68D0075CBF72
:1060C00001221A601C4B1A68D1075CBF01221A60BA
:1060D0001A4B1A68D2075CBF01221A60184B1A6863
:1060E000D0075CBF01221A60164B1A68D1075CBF4B
:1060F00001221A60144B1A68D2075CBF01221A6091
:10610000124B1A68D0075CBF01221A60104B1A6844
:10611000D1075CBF01221A600E4B1A68D2075CBF20
:1061200001221A60704700BF54E7032050E70320A4
:106130004CE7032048E7032044E7032040E703201F
:106140003CE7032038E7032034E7032030E703204F
:106150002CE7032028E70320184B1A68D1075CBFFF
:1061600001221A60164B1A68D2075CBF01221A601E
:10617000144B1A68D0075CBF01221A60124B1A68D0
:10618000D1075CBF01221A60104B1A68D2075CBFAE
:1061900001221A600E4B1A68D0075CBF01221A60F8
:1061A0000C4B1A68D1075CBF01221A600A4B1A68AF
:1061B000D2075CBF01221A60704700BF74E703205A
:1061C00070E703206CE7032068E7032064E70320FF
:1061D00060E703205CE7032058E70320184B1A68A8
:1061E000D1075CBF01221A60164B1A68D2075CBF48
:1061F00001221A60144B1A68D0075CBF01221A6092
:10620000124B1A68D1075CBF01221A60104B1A6842
:10621000D2075CBF01221A600E4B1A68D0075CBF20
:1062200001221A600C4B1A68D1075CBF01221A6068
:106230000A4B1A68D2075CBF01221A60704700BF80
:1062400094E7032090E703208CE7032088E70320EE
:1062500084E7032080E703207CE7032078E703201E
:10626000244B1A68D0075CBF01221A60224B1A68BF
:10627000D1075CBF01221A60204B1A68D2075CBFAD
:1062800001221A601E4B1A68D0075CBF01221A60F7
:106290001C4B1A68D1075CBF01221A601A4B1A689E
:1062A000D2075CBF01221A60184B1A68D0075CBF86
:1062B00001221A60164B1A68D1075CBF01221A60CE
:1062C000144B1A68D2075CBF01221A60124B1A687D
:1062D000D0075CBF01221A60104B1A68D1075CBF5F
:1062E00001221A600E4B1A68D2075CBF01221A60A5
:1062F000704700BFC4E70320C0E70320BCE70320CA
:10630000B8E70320B4E70320B0E70320ACE703209D
:10631000A8E70320A4E70320A0E703209CE70320CD
:1063200098E7032081F0004102E000BF83F00043C2
:1063300030B54FEA41044FEA430594EA050F08BF20
:1063400090EA020F1FBF54EA000C55EA020C7FEAE4
:10635000645C7FEA655C00F0E2804FEA5454D4EB61
:106360005555B8BF6D420CDD2C4480EA020281EA2B
:10637000030382EA000083EA010180EA020281EA63
:106380000303362D88BF30BD11F0004F4FEA0131B5
:106390004FF4801C4CEA113102D0404261EB4101C4
:1063A00013F0004F4FEA03334CEA133302D052424A
:1063B00063EB430394EA050F00F0A780A4F1010406
:1063C000D5F1200E0DDB02FA0EFC22FA05F2801840
:1063D00041F1000103FA0EF2801843FA05F3594126
:1063E0000EE0A5F120050EF1200E012A03FA0EFCA5
:1063F00028BF4CF0020C43FA05F3C01851EBE371CF
:1064000001F0004507D54FF0000EDCF1000C7EEBEB
:1064100000006EEB0101B1F5801F1BD3B1F5001F29
:106420000CD349085FEA30004FEA3C0C04F1010448
:106430004FEA445212F5800F80F09A80BCF1004F71
:1064400008BF5FEA500C50F1000041EB045141EAF3
:10645000050130BD5FEA4C0C404141EB010111F4F4
:10646000801FA4F10104E9D191F0000F04BF01469F
:106470000020B1FA81F308BF2033A3F10B03B3F17D
:1064800020020CDA0C3208DD02F1140CC2F10C020D
:1064900001FA0CF021FA02F10CE002F11402D8BF6B
:1064A000C2F1200C01FA02F120FA0CFCDCBF41EA37
:1064B0000C019040E41AA2BF01EB0451294330BD06
:1064C0006FEA04041F3C1CDA0C340EDC04F11404E3
:1064D000C4F1200220FA04F001FA02F340EA0300BA
:1064E00021FA04F345EA030130BDC4F10C04C4F100
:1064F000200220FA02F001FA04F340EA03002946E0
:1065000030BD21FA04F0294630BD94F0000F83F429
:10651000801306BF81F480110134013D4EE77FEA0C
:10652000645C18BF7FEA655C29D094EA050F08BF58
:1065300090EA020F05D054EA000C04BF1946104639
:1065400030BD91EA030F1EBF0021002030BD5FEA7D
:10655000545C05D14000494128BF41F0004130BDA5
:1065600014F580043CBF01F5801130BD01F00045F9
:1065700045F0FE4141F470014FF0000030BD7FEA6C
:10658000645C1ABF194610467FEA655C1CBF0B4667
:10659000024650EA013406BF52EA033591EA030F7E
:1065A00041F4002130BD00BF90F0000F04BF002176
:1065B000704730B54FF4806404F132044FF00005A9
:1065C0004FF0000150E700BF90F0000F04BF002122
:1065D000704730B54FF4806404F1320410F0004588
:1065E00048BF40424FF000013EE700BF42004FEA83
:1065F000E2014FEA31014FEA02701FBF12F07F4300
:1066000093F07F4F81F06051704792F0000F14BFFC
:1066100093F07F4F704730B54FF4607401F0004540
:1066200021F0004120E700BF50EA010208BF704797
:1066300030B54FF000050AE050EA010208BF70478C
:1066400030B511F0004502D5404261EB41014FF4F5
:10665000806404F132045FEA915C3FF4DCAE4FF0F9
:1066600003025FEADC0C18BF03325FEADC0C18BFE0
:10667000033202EBDC02C2F1200300FA03FC20FA31
:1066800002F001FA03FE40EA0E0021FA02F114447E
:10669000C1E600BF70B54FF0FF0C4CF4E06C1CEA93
:1066A00011541DBF1CEA135594EA0C0F95EA0C0F08
:1066B00000F0DEF82C4481EA030621EA4C5123EA7B
:1066C0004C5350EA013518BF52EA033541F48011AA
:1066D00043F4801338D0A0FB02CE4FF00005E1FB5D
:1066E00002E506F00042E0FB03E54FF00006E1FBA7
:1066F00003569CF0000F18BF4EF0010EA4F1FF04EA
:10670000B6F5007F64F5407404D25FEA4E0E6D4129
:1067100046EB060642EAC62141EA55514FEAC5203A
:1067200040EA5E504FEACE2EB4F1FD0C88BFBCF5B6
:10673000E06F1ED8BEF1004F08BF5FEA500E50F167
:10674000000041EB045170BD06F0004646EA01012D
:1067500040EA020081EA0301B4EB5C04C2BFD4EB5F
:106760000C0541EA045170BD41F480114FF0000E58
:10677000013C00F3AB8014F1360FDEBF002001F0C6
:10678000004170BDC4F10004203C35DA0C341BDC40
:1067900004F11404C4F1200500FA05F320FA04F012
:1067A00001FA05F240EA020001F0004221F0004146
:1067B00010EBD37021FA04F642EB06015EEA430EB9
:1067C00008BF20EAD37070BDC4F10C04C4F12005E9
:1067D00000FA04F320FA05F001FA04F240EA02009C
:1067E00001F0004110EBD37041F100015EEA430E6D
:1067F00008BF20EAD37070BDC4F1200500FA05F28D
:106800004EEA020E20FA04F301FA05F243EA02030B
:1068100021FA04F001F0004121FA04F220EA02001A
:1068200000EBD3705EEA430E08BF20EAD37070BD60
:1068300094F0000F0FD101F00046400041EB010140
:1068400011F4801F08BF013CF7D041EA060195F022
:10685000000F18BF704703F00046520043EB0303DC
:1068600013F4801F08BF013DF7D043EA06037047C9
:1068700094EA0C0F0CEA135518BF95EA0C0F0CD0D4
:1068800050EA410618BF52EA4306D1D181EA03011A
:1068900001F000414FF0000070BD50EA410606BF14
:1068A0001046194652EA430619D094EA0C0F02D159
:1068B00050EA013613D195EA0C0F05D152EA03369E
:1068C0001CBF104619460AD181EA030101F00041BC
:1068D00041F0FE4141F470014FF0000070BD41F005
:1068E000FE4141F4780170BD70B54FF0FF0C4CF4DF
:1068F000E06C1CEA11541DBF1CEA135594EA0C0FFE
:1069000095EA0C0F00F0A7F8A4EB050481EA030E4A
:1069100052EA03354FEA013100F088804FEA033331
:106920004FF0805545EA131343EA12634FEA0222FF
:1069300045EA111545EA10654FEA00260EF00041C0
:106940009D4208BF964244F1FD0404F5407402D212
:106950005B084FEA3202B61A65EB03055B084FEAA3
:1069600032024FF480104FF4002CB6EB020E75EBA0
:10697000030E22BFB61A754640EA0C005B084FEAC8
:106980003202B6EB020E75EB030E22BFB61A754645
:1069900040EA5C005B084FEA3202B6EB020E75EB90
:1069A000030E22BFB61A754640EA9C005B084FEA08
:1069B0003202B6EB020E75EB030E22BFB61A754615
:1069C00040EADC0055EA060E18D04FEA051545EA04
:1069D00016754FEA06164FEAC30343EA52734FEAAD
:1069E000C2025FEA1C1CC0D111F4801F0BD141EA26
:1069F00000014FF000004FF0004CB6E711F4801F8B
:106A000004BF01430020B4F1FD0C88BFBCF5E06F6A
:106A10003FF6AFAEB5EB030C04BFB6EB020C5FEA7A
:106A2000500C50F1000041EB045170BD0EF0004ECF
:106A30004EEA113114EB5C04C2BFD4EB0C0541EA01
:106A4000045170BD41F480114FF0000E013C90E6FE
:106A500045EA060E8DE60CEA135594EA0C0F08BFC2
:106A600095EA0C0F3FF43BAF94EA0C0F0AD150EAC1
:106A700001347FF434AF95EA0C0F7FF425AF104654
:106A800019462CE795EA0C0F06D152EA03353FF47C
:106A9000FDAE1046194622E750EA410618BF52EAF9
:106AA00043067FF4C5AE50EA41047FF40DAF52EACD
:106AB00043057FF4EBAE12E74FF0FF3C06E000BF6A
:106AC0004FF0010C02E000BF4FF0010C4DF804CD77
:106AD0004FEA410C7FEA6C5C4FEA430C18BF7FEA37
:106AE0006C5C1BD001B050EA410C0CBF52EA430C65
:106AF00091EA030F02BF90EA020F0020704710F1E5
:106B0000000F91EA030F58BF994208BF90422CBF73
:106B1000D8176FEAE37040F0010070474FEA410C6C
:106B20007FEA6C5C02D150EA013C07D14FEA430C8A
:106B30007FEA6C5CD6D152EA033CD3D05DF8040BFB
:106B4000704700BF8446104662468C46194663462D
:106B500000E000BF01B5FFF7B7FF002848BF10F104
:106B6000000F01BD4DF808EDFFF7F4FF0CBF012049
:106B700000205DF808FB00BF4DF808EDFFF7EAFFC5
:106B800034BF012000205DF808FB00BF4DF808ED80
:106B9000FFF7E0FF94BF012000205DF808FB00BF75
:106BA0004DF808EDFFF7CEFF94BF012000205DF8FF
:106BB00008FB00BF4DF808EDFFF7C4FF34BF01200C
:106BC00000205DF808FB00BF4FEA410212F50012F9
:106BD00015D211D56FF47873B3EB625212D94FEA24
:106BE000C12343F0004343EA505311F0004F23FA0E
:106BF00002F018BF404270474FF00000704750EA63
:106C0000013005D111F0004008BF6FF0004070471F
:106C10004FF00000704700BF4A0011D212F5001279
:106C200011D20DD56FF47873B3EB62520ED44FEAE4
:106C3000C12343F0004343EA505323FA02F0704764
:106C40004FF00000704750EA013002D14FF0FF30A2
:106C500070474FF0000070474FEA4102B2F1E04345
:106C600024BFB3F5001CDCF1FE5C0DD901F0004C33
:106C70004FEAC0024CEA5070B2F1004F40EB830083
:106C800008BF20F00100704711F0804F21D113F1AF
:106C90003872BCBF01F00040704741F480114FEAE8
:106CA0005252C2F11802C2F1200C10FA0CF320FA71
:106CB00002F018BF40F001004FEAC1234FEAD3238E
:106CC00003FA0CFC40EA0C0023FA02F34FEA4303F8
:106CD000CCE77FEA625307D150EA01331EBF4FF081
:106CE000FE4040F44000704701F0004040F0FE409C
:106CF00040F40000704700BF002100F0ADBF00006D
:106D000010B5054C13462CB10A4601460220AFF3DC
:106D1000008010BD204610BD0000000038B5074BB4
:106D20001C68E36B05461BB92420FDF7AFFFE06349
:106D3000E16B2846BDE8384000F002B89CE1032032
:106D40002DE9F0410C46804601F0D6FD214607466C
:106D5000404601F0D5FD466906F26C76B30704465D
:106D600005D1642296FBF2F302FB13634BB94FF497
:106D7000C87596FBF5F305FB1365B5FA85F35B095A
:106D800000E001235F4A302505FB032501F0CAF826
:106D900001F0CAF85C4B1B68F3B17B689E4205D1D9
:106DA0003968D8F80030FA6941B90AE0304601F094
:106DB00011F80028F4D14FF0FF330DE0934208DBC7
:106DC00001E0934207DABA6B9342ACBF0023012380
:106DD00002E0002300E001232362236A012B0CBFA1
:106DE000F96B396A4FF461633C2091FBF3F603FBC6
:106DF0001613616893FBF0F200FB12302368891AC6
:106E0000A26861601B1A921B3B2B2360A26003DD0A
:106E1000013161603C3B04E0002B03DA0139616021
:106E20003C33236063683B2B03DD0132A2603C3BB3
:106E300004E0002B03DA013AA2603C336360A368EC
:106E4000172B22DDE2690132E261A2690132062AD2
:106E5000C8BF0022A261E268183B0132A360236927
:106E6000E26055F823108A4246DD01330C2B0CBF3B
:106E700063692361A2EB0102E26001BF01330022DA
:106E80002261636108BFE26136E0002B34DAE26917
:106E9000013AE261A269013A48BF0622A261E268B2
:106EA0001833013AE260A36032BB2369013B01D48D
:106EB00023611DE00B23236163695A1E12F0030F47
:106EC000626103F26B7305D1642193FBF1F201FB64
:106ED00012324AB94FF4C87193FBF1F201FB12333D
:106EE000B3FA83F35B0900E0012303F5B673E361B2
:106EF000236955F82330E36001F015F82046BDE81A
:106F0000F08100BF1C9A0D00E4E7032000487047A1
:106F1000A0E1032010B5431E0A44914204D011F8A9
:106F2000014B03F8014FF8E710BD024403469342BA
:106F300002D003F8011BFAE77047000038B5124B86
:106F40001C68A36B0546D3B91820FDF79FFE43F2DA
:106F50000E33A06303804AF6CD33438041F23423DD
:106F600083804EF26D63C3804DF6EC63038105238D
:106F700043810B23838101220023C0E90423A36BF7
:106F800000221D615A6138BD9CE1032010F8012BDD
:106F900011F8013B012A28BF9A42F7D0D01A704756
:106FA000034611F8012B03F8012B002AF9D1704791
:106FB000024B0146186800F003B800BF9CE10320B3
:106FC00070B5064608460C4600F00DF8451C2946EB
:106FD0003046FDF793FE064618B12A462146FFF7D4
:106FE00099FF304670BD034613F8012B002AFBD1F0
:106FF000181A0138704730B582B1451E013915F8AD
:10700000013F11F8014FA34206D1EC431444E04282
:1070100001D0002BF3D11C46181B30BD104630BDEB
:1070200070B504460D4645EC104B164601F0C6FF00
:1070300051EC100B7EB1C5F30A53C3F16B03002B67
:1070400009DD1B0503F17F55002405F54015224697
:107050002B46FFF71FFB70BD2DE9F04F9DB00023BD
:1070600002900C46139218934FF0000A4FF0000B59
:107070001791179B1A780D2A05D8092A13D2002ACE
:1070800000F0AC8112E02B2A04D02D2A04D0202A53
:107090000CD108E0002200E001220C925A1C179249
:1070A0005B782BB99AE101331793E2E700230C9345
:1070B000179D2B78302B5CD16B78582B01D0782B17
:1070C0004CD10C9B019318AB0093A94A029819ABC1
:1070D00017A901F0FAF810F00706044600F08785BA
:1070E000062E05D10135002317950C9300F07FBDC6
:1070F000189A3AB135211AA802F04DF81899029859
:1071000001F0CBFC062E22D8DFE806F0040D0818AB
:107110001D0D04004FF0000BDA4618E0DDF868A002
:10712000DDF86CB013E01B9B199ADDF868A023F41E
:10713000801302F2334243EA025B08E0DFF834B224
:107140004FF0000A03E06FF0004B4FF0FF3A2107C9
:1071500040F14D854BF0004B00F049BD179B5A1C88
:1071600017925B78302BF9D0002B00F0408501237B
:1071700000E000234FF000080693179B0793CDF81B
:107180001480CDF810800A22179D2E78A6F13003C6
:10719000D9B209290ED804990829DDBF059902FB47
:1071A0000133059302FB0838049B01350133049336
:1071B0001795E9E70298FFF7A9FE07680298FFF71D
:1071C000A5FE0068FFF70FFF394602462846FFF785
:1071D00012FF074628B100203346049D02460146AF
:1071E00057E00298FFF792FE0068FFF7FCFE179B3E
:1071F0001A181792049A1B5C002A42D11046302BB1
:1072000005D1179B5A1C179201305B78F7E7A3F161
:107210003102082A43D8179A0792024600200546F1
:10722000303B00F1010126D00A4405EB000C294651
:107230000A2661450ED0013101F1FF3EBEF1080F73
:1072400003DC059F77430597F3E71029D8BF06FBBA
:1072500008F8EEE72844082800F1010505DC059848
:107260000A2101FB0033059304E0102DDCBF0A2145
:1072700001FB08380021179B581C17905B780846C3
:1072800002E0049D38463A46A3F130010929C7D9E6
:107290000121652B01D0452B51D16DB904E0652B3F
:1072A00040F0B3840022012128B9069B002B00F096
:1072B0009580054600E00025179C631C17936378B2
:1072C0002B2B06D02D2B02D00026039606E001239F
:1072D00000E000230393A31C1793A378A3F13006C7
:1072E000092E2BD8302B04D1179B5E1C17965B7888
:1072F000F8E7A3F13106082E21D8A3F1300E179B31
:107300004FF00A0C1F46179B5E1C17965B78A3F183
:107310003009B9F1090F04D80CFB0E3EAEF1300E66
:10732000F1E7F61B082E44F61F6902DCF145A8BF01
:10733000F146039E2EB1C9F1000902E017944FF007
:107340000009002D53D1002840F05184069A002AEC
:1073500040F04D84002941D14E2B20D002DC492B36
:107360000AD03BE0692B07D06E2B18D036E000BF67
:107370007C9A0D000000F07FA84917A801F0D6F90B
:1073800060B3179BA649013B17A8179301F0CEF9EC
:1073900010B9179B01331793DFF8A0B21AE0A14987
:1073A00017A801F0C3F9C8B1179B1B78282B0FD180
:1073B0001AAA9D4917A801F0CCF9052808D11B9BF2
:1073C000DDF868A043F0FF4B4BF4E00B00F00FBC7E
:1073D000DFF86CB24FF0000A00F009BC139B179461
:1073E000002B00F00F8400230C9300F002BC049BE0
:1073F0000598002B08BF2B46102D2C46C2EB09091F
:10740000A8BF10240493FFF7CFF8092C82468B46BF
:1074100013DD864B03EBC40353E91223FFF73AF95C
:10742000064640460F46FFF7BFF802460B46304679
:107430003946FEF77DFF82468B460F2D36DCB9F1CB
:10744000000F00F0D48324DDB9F1160F07DC774D6F
:1074500005EBC90952465B46D9E9000114E0C5F1C4
:107460002503994522DC714CC5F10F0504EBC501DC
:10747000C5EB090552465B46D1E9000104EBC504A2
:10748000FFF708F9D4E90023FFF704F982468B4699
:10749000ADE319F1160F09DB644DA5EBC909D9E974
:1074A000002350465946FFF71FFAEFE72C1B4C44C8
:1074B000002C57DD14F00F010AD05C4B03EBC10127
:1074C00052465B46D1E90001FFF7E4F882468B465D
:1074D00034F00F0400F0B880B4F59A7F0BDD00247F
:1074E000254605940494029ADFF850B122231360D4
:1074F0004FF0000A87E14E4E0023241150465946B2
:1075000098463746012C0BDDE20704D5D6E9002367
:10751000FFF7C0F8012308F1010864100836F1E70D
:107520000BB182468B46ABF1547B07EBC807524642
:107530005B46D7E90001FFF7ADF821F000438B4629
:107540000A461B0D3B491B058B428246C7D8A1F555
:1075500080118B4286BFDFF8ECB04FF0FF3A02F1AA
:10756000547B71E070D0644214F00F020AD02F4BAC
:1075700003EBC20350465946D3E90023FFF7B4F9A1
:1075800082468B4624115FD01F2C04DD0024254643
:107590000594049430E114F0100F0CBF00236A230B
:1075A000254E0393504659460023002C09DDE2077F
:1075B00004D5D6E90023FFF76DF8012364100836DF
:1075C000F3E70BB182468B46039BEBB1CBF30A5337
:1075D000C3F16B03002B594616DD1F2B0EDD342B38
:1075E000DEBF203B4FF0FF3202FA03F34FF0000AF8
:1075F000CCBF4FF05C7B03EA010B05E04FF0FF329C
:1076000002FA03F303EA0A0A00220023504659460D
:10761000FFF7A8FA0028B9D118E000BFA49A0D001E
:10762000A79A0D00AD9A0D00909A0D00189B0D00C1
:10763000E09B0D000000A07CB09A0D000000F07FE0
:107640000000F8FFFFFFEF7F00230393059B0093EB
:10765000049A079902982B4601F071FA05900028C8
:107660003FF43DAFB9F1000FC9F10003A8BF0023FB
:107670000D93002429EAE97312932546059B02988D
:10768000596801F0D5F9049000283FF42CAF059B10
:107690001A69023203F10C0192000C30FFF73AFC38
:1076A0001AAA19A94BEC10AB0298CDE908AB01F06E
:1076B000FAFC189000283FF416AF0121029801F05F
:1076C000C9FA054600283FF40EAF199B03991A9E8C
:1076D000002BADBF0D9A129ADDF8348002EB03083F
:1076E000B8BFD21AA3EB01033344B549A8BF129A1D
:1076F000013B8B42C6F1360680F28A80C91A1F29E7
:10770000C8BFB04F4FF00109D4BF09FA01F3FF1A07
:10771000A6EB0106D9BF0693002709FA07F7CDF8B3
:10772000189008EB0609039BC84516441E444346BF
:10773000A8BF4B46B342A8BF3346002BC2BFC3EB22
:107740000909F61AC3EB08080D9B002B64D1B9F1A7
:10775000000F7ADC129B002B40F08180002E00F39A
:107760008880B8F1000F00F38E80049A189902986F
:1077700001F0C5FB044600283FF4B5AEC36807938B
:107780000023C360294601F09EFB002880F2898017
:10779000079B002B40F00482BAF1000F40F00082FA
:1077A000CBF31303002B40F0FB812BF000431B0DA8
:1077B0001B05B3F1D66F40F2F3816369002B6CD0E7
:1077C00021460122029801F02DFB2946044601F0D2
:1077D0007AFB002840F3E4812BF00043039A1B0D51
:1077E0001B05002A00F08C80B3F1D66F00F388806F
:1077F000B3F15C7F00F3D681029A22234FF0000A96
:107800004FF0000B1360059B002B40F0DC81EEE194
:1078100001230027069384E729461A46029801F0BF
:10782000B3FA054600283FF45EAE0146189A029866
:1078300001F019FA079000283FF455AE1899029804
:1078400001F02BF9079B189381E74A461899029893
:1078500001F0E8FA189000287FF47CAF43E6129A12
:107860000499029801F090FA049000287FF476AF12
:1078700039E632460499029801F0D4FA04900028BF
:107880007FF46FAF2FE629464246029801F0CAFA0C
:10789000054600287FF469AF25E62369012B8FDCBC
:1078A0007EE161D1079ACBF3130322B346498B42A1
:1078B0005A462ED1039B514663B1444B1340B3F15A
:1078C000D46F07D81B0DC3F16B034FF0FF3000FAE4
:1078D00003F301E04FF0FF338B421AD13C498A4257
:1078E00002D101333FF4FFAD384B134003F5801B49
:1078F0004FF0000A54E163B9BAF1000F09D16BE708
:10790000A3F580136FEA135B6FEA0B5B4FF0FF3A4E
:1079100046E117B117EA0B0F02E0069B13EA0A0FC4
:1079200000F03E81079B039A5046594653B1FFF73A
:1079300077FB02460B46DDE90801FEF7F9FC8246BB
:107940008B462DE1FFF76CFB02460B46DDE9080193
:10795000FEF7ECFC0022002382468B46FFF702F97B
:1079600000287FF449AF1BE12946204601F0E9FBDE
:1079700057EC106B00224FF0804310EE100A39468E
:10798000FFF704F9002842D0079B23B14FF000080D
:10799000DFF8409011E0BAF1000F03D1CBF31303ED
:1079A0003BB91BE0BAF1010F03D1BBF1000F3FF46B
:1079B00023AFDFF824904FF000080026054F39E090
:1079C00002FCFFFFE2FBFFFFFFFF0F000000F07F64
:1079D000FFFFEF7F0000F03F0000F0BF0022984B58
:1079E00030463946FFF7C8F840B9304639460022DC
:1079F000944BFEF74FFE06460F4601E0914F0026DE
:107A000007F1004314961593DDE9148912E08D4BBC
:107A1000304639460022FEF73DFE079B06460F46DC
:107A200023B901F100430E900F9301E0CDE90E67F9
:107A3000DDE90E892BF000431B0D1B050693069A0A
:107A4000814B9A422BD1DDE90823ABF1547B4BECFF
:107A500010ABCDE90A2301F0B1FA404653EC102BEC
:107A60004946FEF717FE52465B46FEF761FC21F0E1
:107A700000431B0D754A1B05934282460CD9744B7B
:107A80000B9A9A4203D10A9B01333FF42CADDFF8E5
:107A9000C0B14FF0FF3A72E001F1547B38E0039B34
:107AA00033B3069BB3F1D46F22D85DA3D3E900238F
:107AB00030463946FFF76AF8A8B139463046FFF735
:107AC000ABF8002808BF0120FEF76EFD079B0646B5
:107AD0000F4623B901F100431090119301E0CDE965
:107AE0001067DDE91089069A09F1D663C2EB030934
:107AF0009DED080B01F062FA404653EC102B49460D
:107B0000FEF7C8FDDDE90823FEF712FC82468B462E
:107B1000039BA3BB2BF000431B0D069A1B059A4247
:107B2000D8462CD139463046FFF74EF8FEF74CFDCB
:107B30000B46024639463046FEF7F8FB079B0646E1
:107B40000F462BB9BAF1000F02D1CBF3130383B167
:107B500035A3D3E9002330463946FFF70DF8002856
:107B600031D133A3D3E9002330463946FFF722F859
:107B700004E031A3D3E90023FEF7FEFF18BB1899F8
:107B8000029800F08AFF0499029800F086FF2946C7
:107B9000029800F082FF2146029800F07EFF6DE51A
:107BA000039B83B12B4B0B9300230A9350465946FA
:107BB000DDE90A23FEF76EFD82468B4619B910B93E
:107BC000029A222313601899029800F066FF049924
:107BD000029800F062FF2946029800F05EFF0599C6
:107BE000029800F05AFF2146029800F056FF139BBE
:107BF00013B1139A179B13600C9B1BB152460BF1E8
:107C0000004307E052465B4604E000252A46012176
:107C1000FFF741BB43EC102B1DB0BDE8F08F00BF58
:107C20000000C0FFFFFFDF419535A094FFFFDF3F5D
:107C300035E5AF350000E03F9535A094FFFFCF3F1D
:107C40000000F03F0000E03F0000E07FFFFF9F7C6E
:107C5000FFFFEF7F00005039024B0A4601461868CB
:107C6000FFF7FAB99CE10320F0B548B9106838B9BC
:107C7000F0BD17F8016B5EB1B542FAD12BB12046C9
:107C800004460F4614F8015BF3E714600370F0BD7F
:107C90004DB915602846F0BD17F8016BB54207D005
:107CA000002EF9D11C4623460F4613F8015BF3E77B
:107CB00015B10021217000E02B461360F0BD0123B7
:107CC000FFF7D2BF2DE9F04780463C48D0F800903E
:107CD0000E46354615F8014B09EB0400407800F0DC
:107CE000080000F0FF0708B12E46F2E72D2C03D163
:107CF000B51C7478012703E02B2C04BF7478B51CE5
:107D000013B1102B0AD153E0302C4FD1287800F05A
:107D1000DF00582845D16C78102302354FF0FF3C26
:107D20000026BCFBF3FC03FB0CFA6FEA0A0A3046A0
:107D300009EB040E9EF801E01EF0040F01D0303C68
:107D40000BE01EF0030E1AD0BEF1010F0CBF4FF076
:107D5000370E4FF0570ECEEB0404A3420FDD002E7A
:107D600008DB604506D801D1544503DC03FB004025
:107D7000012601E04FF0FF3615F8014BD8E7002E41
:107D800007DA2223C8F800304FF0FF302AB9BDE8E7
:107D9000F08707B1404272B106B1691E1160BDE8BB
:107DA000F0873024002BB9D10823B7E70A23B5E7C1
:107DB000302CABD0B2E7BDE8F08700BF38E103203C
:107DC00013460A46014602480068FFF77BBF00BF22
:107DD0009CE103202DE9F74F044600F08DFD40F2B1
:107DE000B1739C4240F396806FF4F663E318A4F2FB
:107DF000B2729B1040F26D1505FB0235A4F26D7254
:107E00006FF0630392FBF3F36FF4C8622B44A51881
:107E10004FF4C87295FBF2F51D44642394FBF2F70E
:107E200094FBF3F602FB174703FB164600F13803F9
:107E3000B7FA87FE019304F0030344604FEA5E1E25
:107E4000014600934FF0070C0B7A4A2B0ED14B6979
:107E5000009AEC1802B906B927B93B2BD4BF00230E
:107E6000012300E000232344013B3FE0442B02D1E7
:107E70004B692B443AE0009B2BB9002E0CBFF04617
:107E80004FF0010800E0F046244BCC68302202FBA2
:107E90000838A8F1040AA9460123A34204DA5AF8D3
:107EA00004BF0133D944F8E709F1040393FBFCFB59
:107EB000CBEBCB0A012CCAEB030A4B69B8BF0124F8
:107EC00004F18044B3EB0A0A0B6904F1FF3403F1B7
:107ED000FF3348BF0AF1070AC3EBC30358F8244035
:107EE0005344A34201DB073BFBE74B448C690C4A3C
:107EF00002FB03430C6A234441F81C3F019B994257
:107F0000A2D1C369826B9342ACBF002301230360FB
:107F1000012000E0002003B0BDE8F08F1C9A0D00A6
:107F20008051010070477047014B186800F002B89B
:107F30009CE103202DE9F04F8DB0074600F0DCFCFA
:107F4000B049B14E0446384600F0CEFC054660B953
:107F5000AE4BAF4A1860AF4B1860AF4B30681A6039
:107F60005A60FCF79BFE356048E1316879B93068AA
:107F7000FCF794FE2846FFF736F8411C3846FCF71C
:107F8000BDFE306048B12946FFF70AF805E0FEF76C
:107F9000FDFF002800F03281E9E72B789F4AA049D5
:107FA0003A2B08BF01350AAE33462846FCF786FE59
:107FB000002840F323810A9BEF18EB5C2D2B03D1A3
:107FC00001374FF0FF3503E02B2B08BF01370125A8
:107FD0000DF1200A0DF11E0B4FF000080396CDF8AD
:107FE00008A00196CDF800B0334607AA8D49ADF838
:107FF0001E803846ADF82080FCF760FE404540F317
:10800000FD80BDF81E20BDF82030DFF824923C2111
:1080100001FB0233BDF81C204FF4616101FB023308
:108020005D4325627C4D7D4B2B600A9B7C491F4440
:108030004A4633463846FCF741FE404508DC2B688B
:108040006B60724B226A1A60724BC3F80080D5E0F5
:108050000A9BC5F80490FD18FB5C2D2B03D101355C
:108060004FF0FF3703E02B2B08BF0135012700231A
:10807000ADF81C30ADF81E30ADF820300A930396F1
:10808000CDF808A00196CDF800B0334607AA65499F
:108090002846FCF713FE002804DC236AA3F561637D
:1080A000E3630EE0BDF81E20BDF820303C2101FB4B
:1080B0000233BDF81C204FF4616101FB02335F43C2
:1080C000E7630A9B27461D444FF000092B782C2BB1
:1080D00008BF013595F80080B8F14D0F26D10DF19C
:1080E0002603029309AB00930396019633460DF1E4
:1080F00022024D492846FCF7E1FD03287ED1BDF858
:1081000022104B1E0B2B79D8BDF82420531E042BB4
:1081100074D8BDF82630062B70D887F80880F9602F
:108120003A617B610A9B05EB03082AE0B8F14A0F2C
:1081300006BF0135434644230A220BA9284605936E
:10814000FFF73EFEDDF82C80ADF826004545059B87
:1081500014D14D23B9F1000F07D123720323E3603B
:1081600002232361C4F814900BE084F824300B231D
:10817000A3620123E3620023236302E080B23B7227
:1081800078610223ADF81C300023ADF81E30ADF845
:1081900020300A9398F800302F2B0BD10396CDF89E
:1081A00008A00196CDF800B0334607AA1F49404603
:1081B000FCF784FDBDF81E20BDF820303C2101FBFA
:1081C0000233BDF81C204FF4616101FB0233BB6137
:1081D0000A9D09F10109B9F1020F454407F11C0795
:1081E0007FF474AF6068FFF7F5FD084B226A1A60F0
:1081F000E36B9B1A074A18BF012313600DB0BDE85B
:10820000F08F00BFD89A0D00E0E70320E8E70320D5
:10821000DB9A0D00E4E70320D8E10320D3E7032035
:10822000DF9A0D00029B0D00EE9A0D00019B0D00E0
:10823000C8E70320F0B506694B11B34200F11405FD
:1082400027DA11F01F0105EB860605EB830201D149
:10825000294616E0141D55F82320C1F1200ECA400E
:108260002B46B44209D2276807FA0EF73A4343F87F
:10827000042B54F8042BCA40F3E71A6052B10433BC
:1082800008E0B2420B4605D252F8043B41F8043BE9
:10829000F7E72B465B1B9B10036103B94361F0BDFD
:1082A000A0F13003092B01D820380AE0A0F16103C6
:1082B000052B01D8473804E0A0F14103052B02D873
:1082C0002738C0B27047002070472DE9F04F8BB0BF
:1082D0008A46904606930290FEF718FE03680393C1
:1082E0001846FEF780FE039B019003444FF0000BFD
:1082F00013F8013C0793DAF8003002331F4613F8F5
:10830000010B302802D10BF1010BF7E7FFF7C8FF93
:108310000446E0B9019A03993846FEF76CFE00283E
:1083200034D1019BF85CFE18FFF7BAFF80B33346E7
:10833000187830281F4603F10103F9D0FFF7B0FF8A
:10834000B0FA80F56D0934464FF0010B01E00025CD
:108350002C463A46164601323078FFF7A1FF002836
:10836000F8D1019A03993046FEF745FE50B954B949
:10837000019BF4182246164601323078FFF790FF31
:108380000028F8D134B1A41BA40003E03E4600E06D
:10839000044601253378502B01D0702B2AD17378F5
:1083A0002B2B08D02D2B03D0711C4FF0000905E0BA
:1083B0004FF0010901E04FF00009B11C0878FFF708
:1083C0006FFF431EDBB2182B14D8A0F1100211F876
:1083D000010FFFF765FF431EDBB2182B04D80A23F9
:1083E00003FB0202103AF2E7B9F1000F00D052424B
:1083F000144400E03146CAF800102DB1BBF1000F63
:1084000014BF002006207CE1F31B013B2946072B0B
:1084100002DD01315B10FAE7029800F009FB019BD5
:1084200000F1140A4FF00009C3F101030546CDF82D
:1084300010A0CB460893B7422FD2731E0593079A1C
:1084400016F8013C93420BD0BBF1200F16D1049BD0
:10845000C3F8009004334FF000090493CB460DE0BD
:10846000059B089A13449F42EED81846019A039937
:108470000993FEF7C0FD099B68B1E5E716F8010C0A
:10848000FFF70EFF00F00F0000FA0BF0059B49EA22
:1084900000090BF1040B1E46CDE7049840F8049B3D
:1084A000CAEB0000801028614701484600F085FBB8
:1084B000D8F80060381AB04226DD871B39462846B6
:1084C00000F083FEC8B17B1E591103F01F024FF06C
:1084D00001095AF8211009FA02F20A420ED04B455E
:1084E00002DC4FF0020909E0B91E284600F06DFEDB
:1084F0000028F6D04FF0030900E0814639462846AF
:10850000FFF798FE3C440CE009DA371A29463A4650
:10851000029800F087FCE41B054600F1140A4FF0B6
:108520000009D8F808309C4208DD0298294600F07E
:10853000B4FA149A00231360A320E2E0D8F80400F0
:10854000844253DA041BA6422EDCD8F80C30022BEE
:108550001AD0032B1CD0012B1DD1A6421BD1012EFA
:108560000BDC069AD8F80430136001232B61CAF89B
:108570000030149B62201D60C3E0711E284600F08D
:1085800024FE0028EDD106E0159B002BE9D002E087
:10859000159B002BE5D10298294600F07EFA149A2B
:1085A000002313605020ACE0671EB9F1000F06D124
:1085B0003FB13946284600F008FE814601E04FF001
:1085C00001097A11012307F01F0703FA07F75AF888
:1085D000223021461F42284618BF49F00209361BA7
:1085E000FFF728FE0227D8F8044000E00127B9F180
:1085F000000F00F08180D8F80C30022B0ED0032B36
:1086000010D0012B76D119F0020F73D0DAF80000E8
:1086100049EA000919F0010F07D16BE0159BC3F17E
:1086200001031593159B002B64D0D5F810A005F11C
:1086300014034FEA8A0903EB090100201A68B2F11A
:10864000FF3F02D001321A6020E043F8040B994248
:10865000F4D8AB689A4512DB69680298013100F0E2
:10866000E7F92A69023205F10C01834692000C30C9
:10867000FEF750FC2946029800F00FFA5D462B6980
:108680005A1C05EB83032A6101225A61022F05F16E
:10869000140211D1D8F80030013B9E4227D171114C
:1086A000012306F01F0603FA06F652F821301E4297
:1086B0000CBF022701271AE02B699A450ADA01212B
:1086C0002846FFF7B7FDD8F8083001349C423FF741
:1086D0002CAF0BE016F01F0608D09144C6F120061F
:1086E00059F8040C00F069FAB042E8DB012747F0C2
:1086F000200701E047F01007149B1D60069B3846D9
:108700001C600BB0BDE8F08FC2F10802920070B59A
:10871000C2F120064368056803FA06F42C43D340EF
:10872000046040F8043F8842F4D370BD30B503685C
:1087300011F8014B01334CB11A78A2F14105192D02
:1087400098BF2032A242F3D0002030BD0360012048
:1087500030BD2DE9F04F0B68D0F800B05E1102EB90
:10876000860613F01F0385B018BF0436351F174661
:1087700000228246019346F8042CA8462C4600921B
:1087800091461BF8011F00293CD008460392029134
:10879000FFF786FD039A00BB0299202916D8009B9B
:1087A0009945EEDD444505D2072A03DC41462046C3
:1087B000FFF7AAFFBC4223D90023A4F1040844F820
:1087C000043CCDF8009044461A46DAE7292948D1FE
:1087D0000BF10103CAF8003014E00132082A09F154
:1087E000010906DDBC42CCD9002344F8043C012237
:1087F000043C216800F00F0040EA01102060C0E74F
:108800000822BEE7B9F1000F2BD0444505D2072A54
:1088100003DC41462046FFF777FFBC420CD93B46BC
:1088200054F8042B43F8042BA542F9D2002243F854
:10883000042B9D42FBD20BE0019B4BB1C3F1200204
:108840004FF0FF33D34056F8042C134046F8043C55
:108850002B6843B9BD4202D101232B6003E0043DE4
:10886000F6E7042000E0052005B0BDE8F08F000029
:108870002DE9F84F07468B46904600F0D6FC194B81
:108880001D689A463DB15C46234613F8012B42B160
:108890003D2A1C46F8D1384600F0C8FC0020BDE84F
:1088A000F88FCBEB0404A94659F8040B0028F2D04A
:1088B00022465946FEF79FFB88B959F8043C1E1919
:1088C0001B5D3D2B0BD1DAF80030ED1AAD103846A8
:1088D000C8F8005000F0AAFC701CBDE8F88F4D46A7
:1088E000E1E700BF20E2032007B501AAFFF7C0FFC0
:1088F00003B05DF804FB000000487047E0E103208E
:108900000268474BF0B592FBF3F403FB1422002AF4
:10891000BCBF02F5A83202F5C0724FF4616004F5E5
:108920002F2492FBF0F300FB13224FF03C00ACBF6E
:1089300004F66C2404F66B248B6092FBF0F300FBCE
:1089400013224B600A600723E21C92FBF3F3C3EB94
:10895000C303D31A8B61334B334D94FBF5F503FB03
:10896000054448F6AC62B4FBF2F2224440F2B4573C
:10897000B4FBF7F3D21A2D48B4FBF0F048F6946636
:10898000131AB3FBF6F6344440F26D12B3FBF2F067
:10899000B3FBF7F3E31A02FB1033992403EB8302D2
:1089A0000232B2FBF4F20A2A04FB02F404F10206DA
:1089B0004FF00504B6FBF4F434BF02266FF009064D
:1089C00016444FF4C87202FB05055F1C012E98BFC8
:1089D0000135B3F5997FA7EB040702D3A3F599728C
:1089E00014E0820705D16424B0FBF4F204FB120208
:1089F0004AB94FF4C872B0FBF2F402FB1400B0FAAB
:108A000080F2520900E001223B331A44A5F26C7552
:108A10000023CA614D610E61CF600B620846F0BD54
:108A2000805101004FC5FDFFB13A0200B03A02008B
:108A300070B5456A04460E463DB91020FCF726F98C
:108A40006062456085600560C560656AEB6843B13A
:108A5000636ADB6853F8260078B1026843F8262081
:108A600017E021220421204600F0D1FB636AE86070
:108A7000DB68002BECD1002070BD012101FA06F566
:108A80006A1D9200204600F0C2FB0028F3D0466029
:108A9000856000230361C36070BD70B5446A0646FB
:108AA0000D463CB91020FCF7F1F870624460846018
:108AB0000460C4603DB1736A6A68DB6853F82210D1
:108AC000296043F8225070BD2DE9F0410D691F4621
:108AD00006460C4601F1140E0023DEF8000081B2B8
:108AE00002FB01710F0C000C02FB007089B2013314
:108AF00001EB00419D424FEA10474EF8041BECDCAD
:108B0000D7B1A3689D4212DB616830460131FFF79F
:108B10008FFF2269023204F10C01804692000C3072
:108B2000FEF7F8F921463046FFF7B7FF444604EB5D
:108B3000850301355F6125612046BDE8F0812DE99F
:108B4000F8430C4615461F4609220833064693FB98
:108B5000F2F3002101229A4202DA52000131FAE7CF
:108B60003046FFF765FF089B4361092D4FF0010375
:108B7000036111DD04F10908C1462C4419F8013BD9
:108B80000146303B0A223046FFF79EFFA145F5D152
:108B900008EB0504083C01E00A3409252D1B631984
:108BA0009F4208DD14F8013B0146303B0A22304663
:108BB000FFF78AFFF3E7BDE8F883030C1B0413B942
:108BC0000004102300E0002310F07F4F04BF0002D8
:108BD000083310F0704F04BF0001043310F0404F11
:108BE00004BF80000233002803DB420003D5581C79
:108BF00070471846704720207047036813F007023B
:108C00000BD0D90722D49A074BBF5B089B0803609F
:108C100003604CBF01200220704799B209B91B0CB8
:108C2000102213F0FF0F04BF1B0A0832190704BFFC
:108C30001B090432990704BF9B080232D90702D4EA
:108C40005B0805D001320360104670470020704772
:108C50002020704710B50C460121FFF7E9FE0122E4
:108C60004461026110BD2DE9F74F14460A6923697A
:108C70009A42B8BF0B468846BCBFA0461C46D8F8EF
:108C80001070D4F81090D8F80830D8F8041007EB1A
:108C900009069E42C8BF0131FFF7CAFE00F1140564
:108CA00005EB860C2B460022634502D243F8042BC9
:108CB000FAE704F1140208F1140102EB890301EB55
:108CC00087070093009B0192934257D9B2F800B0F6
:108CD000BBF1000F23D08946AE464FF0000859F88B
:108CE000044BBEF800A0A3B20BFB03A34FEA144A47
:108CF000DEF8004043444FEA14480BFB0A8404EBBF
:108D00001344F2469BB243EA04434F454FEA1448EA
:108D10004AF8043B01D9D646E1E7CEF80480019B2E
:108D2000B3F802A00432BAF1000F21D02B682C4610
:108D300089464FF00008B9F800E0B4F802B00AFB29
:108D40000EBEF044A3469BB243EA08434BF8043BF3
:108D500059F8043BB4F804E01B0C0AFB03E303EBF3
:108D600018434F454FEA134801D95C46E3E7636077
:108D70000435A7E75CF8043D13B9013E002EF9DC89
:108D8000066103B0BDE8F08F2DE9F843154612F0F7
:108D9000030206460F4607D0013A214C002354F83F
:108DA0002220FFF791FE0746AD1036D0746A3CB919
:108DB0001020FBF76BFF7062446084600460C46045
:108DC000D6F82480D8F808404CB940F271213046DA
:108DD000FFF740FF0023C8F80800044603604FF087
:108DE0000008EB070AD5394622463046FFF73BFF1D
:108DF000394681463046FFF750FE4F466D100CD085
:108E0000206808B10446ECE7224621463046FFF7C9
:108E10002AFF2060C0F80080F4E73846BDE8F883F8
:108E2000089C0D002DE9F0470C464FEA621A2669AE
:108E30004968A368564407469146751CAB4202DA5E
:108E400001315B00FAE73846FFF7F2FD0023804668
:108E500000F114011A46534503DA41F82320013387
:108E6000F9E72AEAEA73206901EB830319F01F0985
:108E700004F1140101EB800E14D0C9F1200C002282
:108E8000086800FA09F002439A4643F8042B51F8A7
:108E9000042B8E4522FA0CF2F2D8CAF8042042B113
:108EA000B51C06E0043B51F8042B43F8042F8E4513
:108EB000F9D8013D3846C8F810502146FFF7EDFDBE
:108EC0004046BDE8F08703690A699B1A10B511D1C5
:108ED00092001430143183180A4453F8044D52F8A8
:108EE000041D8C4202D007D3012010BD9842F4D358
:108EF000002010BD184610BD4FF0FF3010BD2DE909
:108F0000F8430C460746114620461546FFF7DBFF9F
:108F1000061E08D131463846FFF78AFD012303615A
:108F20004661BDE8F883BCBF23462C4638466168DD
:108F3000BABF1D4601260026FFF77AFD2B69C660E1
:108F4000266905F11409143404EB860709EB83083C
:108F500000F114054FF0000C54F8043B59F8042BB1
:108F60001CFA83F11FFA82FE120CCEEB0101C2EB58
:108F7000134303EB214389B24FEA234CC84541EA2E
:108F80000343A64645F8043BE6D8BE450ED25EF83C
:108F9000041B1CFA81F2131403EB114392B242EA50
:108FA00003424FEA234C45F8042BEEE755F8043D05
:108FB0000BB9013EFAE70661BDE8F883124B10EEEB
:108FC000902A1A40A2F15073002B02DD00201946AE
:108FD00017E05B421B15132B4FF000004FF0000110
:108FE00004DC4FF4002242FA03F10AE0143B1E2B8A
:108FF0004FF00102DABFC3F11F0302FA03F3134675
:10900000184641EC100B70470000F07FF8B5056979
:1090100000F1140606EB85052F1F55F8044C204679
:10902000FFF7CBFDC0F120030A280B6014DCC0F170
:109030000B0E24FA0EF1BE4241F07F5334BF55F8B7
:10904000081C0021153004FA00F021FA0EF143F457
:10905000401340EA010223E0BE423ABFA5F10807EF
:1090600055F8081C00210B3815D08440C0F12005AC
:1090700044F07F5444F44014B74221FA05FE44EA18
:109080000E038CBF57F8044C002401FA00F0EC40AA
:1090900040EA040204E044F07F5343F440130A46DC
:1090A00043EC102BF8BD2DE9F7430E46012159EC96
:1090B000108B1546FFF7BCFCC9F30A540746C9F3E9
:1090C00013030CB143F480130193B8F1000F19D0CE
:1090D00002A840F8088DFFF790FD009B48B1019A67
:1090E000C0F1200102FA01F10B43C2407B61019201
:1090F00000E07B61019BBB61002B14BF02210121B9
:10910000396107E001A8FFF778FD019B7B61012130
:109110003961203034B1A4F2334404443460C0F1E6
:10912000350009E007EB8103A0F232403060186996
:10913000FFF743FDC0EB41102860384603B0BDE89F
:10914000F0832DE9F743884669468146FFF75EFFC5
:1091500001A9404655EC104BFFF758FFD9F81030E5
:10916000D8F810209A1A9DE80A00C91A57EC106B1B
:1091700001EB4213002BCCBF05EB0355A7EB0357C4
:1091800032463B4620462946FDF7AEFB41EC100B2C
:1091900003B0BDE8F083013910B5491114690131FC
:1091A00002F1140300EB810103EB8404A3420246A5
:1091B00004D253F8042B40F8042BF7E700238A422B
:1091C00002D242F8043BFAE710BD00F11402006934
:1091D0004B11984210B50CDB0CDD11F01F0109D0CA
:1091E00052F8234024FA01F000FA01F18C420CD12C
:1091F00000E0034602EB8303934204D953F8041DB5
:109200000029F9D001E0002010BD012010BD38B5C3
:1092100002FB01F42146FBF771FD054618B1224619
:109220000021FDF782FE284638BD704770470000D8
:1092300021400D005D400D0089400D008D400D0066
:10924000000000004C6F636174696F6E43616C6C69
:109250006261636B2829006C61743D2566206C6F28
:109260006E3D25662061636375726163793D256695
:1092700000252E366600252E316600475053207695
:10928000352E31006465766963654C6F6361746F78
:109290007200000000000000000000005F000000FD
:1092A0000000000007000700000000147F147F1476
:1092B000000000242A7F2A120000002313086462A1
:1092C0000000003649552250000000000503000050
:1092D0000000001C2241000000000041221C000090
:1092E000000000082A1C2A0800000008083E0808A0
:1092F000000000A060000000000000080808080846
:10930000000000606000000000000020100804025F
:109310000000003E5149453E00000000427F4000F1
:109320000000006251494946000000224149493687
:109330000000001814127F10000000274545453931
:109340000000003C4A494930000000017109050352
:109350000000003649494936000000064949291EE7
:10936000000000003636000000000000AC6C000079
:10937000000000081422410000000014141414140A
:1093800000000041221408000000000201510906FB
:10939000000000324979413E0000007E0909097E43
:1093A0000000007F494949360000003E414141220A
:1093B0000000007F4141221C0000007F49494941D3
:1093C0000000007F090909010000003E414151727F
:1093D0000000007F0808087F000000417F41000076
:1093E0000000002040413F010000007F081422419E
:1093F0000000007F404040400000007F020C027FE0
:109400000000007F0408107F0000003E4141413E03
:109410000000007F090909060000003E4151215E5D
:109420000000007F091929460000002649494932F9
:1094300000000001017F01010000003F4040403F6B
:109440000000001F2040201F0000003F4038403F28
:109450000000006314081463000000030478040390
:1094600000000061514945430000007F4141000078
:10947000000000020408102000000041417F0000AD
:10948000000000040201020400000080808080804F
:109490000000000102040000000000205454547831
:1094A0000000007F4844443800000038444428004D
:1094B000000000384444487F0000003854545418D9
:1094C000000000087E09020000000018A4A4A47C8B
:1094D0000000007F08040478000000007D00000008
:1094E00000000080847D00000000007F1028440000
:1094F000000000417F4000000000007C0418047858
:109500000000007C08047C0000000038444438005F
:10951000000000FC24241800000000182424FC0093
:10952000000000007C08040000000048545424009F
:10953000000000047F4400000000003C40407C002C
:109540000000001C2040201C0000003C4030403C3B
:1095500000000044281028440000001CA0A07C004B
:109560000000004464544C440000000836410000F0
:10957000000000007F0000000000004136080000ED
:1095800000000002010102010000000205050200C6
:1095900000000000000000000000000091440D00E9
:1095A000B1440D002C0025737B226D223A22253018
:1095B00032783A253032783A253032783A253032CE
:1095C000783A253032783A25303278222C227322AC
:1095D0003A25642C2263223A25647D0041542654A6
:1095E000007B2277223A7B2261223A007075626CFE
:1095F0006973684C6F636174696F6E007363616E49
:10960000446174613D257300686F6F6B2D726573E3
:10961000706F6E73652F25732F2573000000000097
:1096200000000000B94D0D00BF4D0D00034E0D00B0
:10963000CD4D0D00BB4D0D000000000000000000EE
:10964000DB530D00D1530D00C7530D00BD530D006A
:10965000B1530D00A5530D0099530D0091530D000A
:1096600087530D007D530D0075570D00000000005D
:1096700000000000F9530D0043540D001B540D0071
:10968000FB530D0023540D002B540D0033540D00DB
:109690003B540D000000000000000000AD540D0020
:1096A0009D540D009F540D006261756400536572F6
:1096B00069616C0053657269616C31007479706521
:1096C00000706172616D00636D6400696400686EB2
:1096D00064007374726D0066696C74006C766C0063
:1096E00061646448616E646C65720072656D6F766A
:1096F0006548616E646C657200656E756D48616E7B
:10970000646C657273004A534F4E53747265616D99
:109710004C6F6748616E646C657200617070002503
:109720003031307520005D20002564002C20002899
:10973000293A2000205B00636F6465203D200025EE
:10974000690064657461696C73203D20000D0A0036
:109750006C6E00666E00636F6465006465746169B9
:109760006C006E6F6E6500747261636500696E6691
:109770006F007761726E006572726F720070616E59
:10978000696300616C6C00000000000000000000D4
:10979000EF550D00E5550D00DB550D00D1550D00C1
:1097A000C5550D00B9550D00AD550D00A5550D0061
:1097B0009B550D0091550D0075570D0000000000E0
:1097C000000000000D570D0017570D0021570D0028
:1097D0002B570D0035570D0041570D004D570D000B
:1097E00059570D0061570D006B570D0075570D004F
:1097F000252B3033643A253032750025592D256DDF
:109800002D25645425483A254D3A2553257A006183
:10981000736374696D6500000000000000000000C3
:10982000355C0D00855C0D00935C0D0055580D00F6
:10983000495C0D006B5C0D00575C0D007F5C0D00FA
:10984000375C0D003B5C0D000000000000000000D4
:10985000355D0D00855D0D00935D0D0055580D00C3
:10986000715D0D00375D0D004D5D0D007F5D0D00DC
:10987000635D0D00315D0D00000000000000000080
:109880009F5E0D00955E0D008B5E0D00415E0D002C
:109890007F5E0D00735E0D00675E0D005F5E0D0064
:1098A000555E0D004B5E0D0075570D000000202029
:1098B0002020202020202028282828282020202080
:1098C0002020202020202020202020202020881040
:1098D00010101010101010101010101010100404A0
:1098E00004040404040404041010101010101041A7
:1098F0004141414141010101010101010101010118
:1099000001010101010101010110101010101042AC
:1099100042424242420202020202020202020202E7
:1099200002020202020202020210101010200000C5
:109930000000000000000000000000000000000027
:109940000000000000000000000000000000000017
:109950000000000000000000000000000000000007
:1099600000000000000000000000000000000000F7
:1099700000000000000000000000000000000000E7
:1099800000000000000000000000000000000000D7
:1099900000000000000000000000000000000000C7
:1099A00000000000000000000000000000000000B7
:1099B00000000000000000000000000000000000A7
:1099C0000000000000000000000000000000000097
:1099D0000000000000000000000000000000000087
:1099E0000000000000000000000000000000000077
:1099F0000000000000000000000000000000000067
:109A00000000000000000000000000000000000056
:109A10004300504F534958002E0000001F00000023
:109A20001C0000001F0000001E0000001F000000BE
:109A30001E0000001F0000001F0000001E000000AC
:109A40001F0000001E0000001F0000001F0000009B
:109A50001D0000001F0000001E0000001F0000008D
:109A60001E0000001F0000001F0000001E0000007C
:109A70001F0000001E0000001F0000003500000055
:109A8000CEFBFFFFCB030000010000000000000040
:109A900034000000CEFBFFFFCB03000001000000FC
:109AA000000000006E6600696E69747900616E00E6
:109AB000BC89D897B2D29C3C33A7A8D523F64939A4
:109AC0003DA7F444FD0FA5329D978CCF08BA5B25C6
:109AD000436FAC6428066811545A00474D54002562
